{
  "contractName": "Voting",
  "abi": [
    {
      "anonymous": false,
      "inputs": [
        {
          "indexed": true,
          "internalType": "address",
          "name": "previousOwner",
          "type": "address"
        },
        {
          "indexed": true,
          "internalType": "address",
          "name": "newOwner",
          "type": "address"
        }
      ],
      "name": "OwnershipTransferred",
      "type": "event"
    },
    {
      "anonymous": false,
      "inputs": [
        {
          "indexed": false,
          "internalType": "uint256",
          "name": "proposalId",
          "type": "uint256"
        }
      ],
      "name": "ProposalRegistered",
      "type": "event"
    },
    {
      "anonymous": false,
      "inputs": [
        {
          "indexed": false,
          "internalType": "address",
          "name": "voter",
          "type": "address"
        },
        {
          "indexed": false,
          "internalType": "uint256",
          "name": "proposalId",
          "type": "uint256"
        }
      ],
      "name": "Voted",
      "type": "event"
    },
    {
      "anonymous": false,
      "inputs": [
        {
          "indexed": false,
          "internalType": "address",
          "name": "voterAddress",
          "type": "address"
        }
      ],
      "name": "VoterRegistered",
      "type": "event"
    },
    {
      "anonymous": false,
      "inputs": [
        {
          "indexed": false,
          "internalType": "enum Voting.WorkflowStatus",
          "name": "previousStatus",
          "type": "uint8"
        },
        {
          "indexed": false,
          "internalType": "enum Voting.WorkflowStatus",
          "name": "newStatus",
          "type": "uint8"
        }
      ],
      "name": "WorkflowStatusChange",
      "type": "event"
    },
    {
      "inputs": [],
      "name": "Status",
      "outputs": [
        {
          "internalType": "enum Voting.WorkflowStatus",
          "name": "",
          "type": "uint8"
        }
      ],
      "stateMutability": "view",
      "type": "function",
      "constant": true
    },
    {
      "inputs": [],
      "name": "owner",
      "outputs": [
        {
          "internalType": "address",
          "name": "",
          "type": "address"
        }
      ],
      "stateMutability": "view",
      "type": "function",
      "constant": true
    },
    {
      "inputs": [
        {
          "internalType": "uint256",
          "name": "",
          "type": "uint256"
        }
      ],
      "name": "proposal",
      "outputs": [
        {
          "internalType": "string",
          "name": "description",
          "type": "string"
        },
        {
          "internalType": "uint256",
          "name": "voteCount",
          "type": "uint256"
        }
      ],
      "stateMutability": "view",
      "type": "function",
      "constant": true
    },
    {
      "inputs": [],
      "name": "renounceOwnership",
      "outputs": [],
      "stateMutability": "nonpayable",
      "type": "function"
    },
    {
      "inputs": [
        {
          "internalType": "address",
          "name": "newOwner",
          "type": "address"
        }
      ],
      "name": "transferOwnership",
      "outputs": [],
      "stateMutability": "nonpayable",
      "type": "function"
    },
    {
      "inputs": [],
      "name": "winningProposalId",
      "outputs": [
        {
          "internalType": "uint256",
          "name": "",
          "type": "uint256"
        }
      ],
      "stateMutability": "view",
      "type": "function",
      "constant": true
    },
    {
      "inputs": [
        {
          "internalType": "enum Voting.WorkflowStatus",
          "name": "_newStatus",
          "type": "uint8"
        }
      ],
      "name": "changeStatus",
      "outputs": [],
      "stateMutability": "nonpayable",
      "type": "function"
    },
    {
      "inputs": [],
      "name": "currentStatus",
      "outputs": [
        {
          "internalType": "enum Voting.WorkflowStatus",
          "name": "",
          "type": "uint8"
        }
      ],
      "stateMutability": "view",
      "type": "function",
      "constant": true
    },
    {
      "inputs": [
        {
          "internalType": "address",
          "name": "_address",
          "type": "address"
        }
      ],
      "name": "addWhitelistVoters",
      "outputs": [],
      "stateMutability": "nonpayable",
      "type": "function"
    },
    {
      "inputs": [
        {
          "internalType": "string",
          "name": "_description",
          "type": "string"
        }
      ],
      "name": "addProposal",
      "outputs": [],
      "stateMutability": "nonpayable",
      "type": "function"
    },
    {
      "inputs": [
        {
          "internalType": "uint256",
          "name": "_proposalId",
          "type": "uint256"
        }
      ],
      "name": "addVote",
      "outputs": [],
      "stateMutability": "nonpayable",
      "type": "function"
    },
    {
      "inputs": [],
      "name": "searchWinner",
      "outputs": [],
      "stateMutability": "nonpayable",
      "type": "function"
    },
    {
      "inputs": [],
      "name": "getWinner",
      "outputs": [
        {
          "internalType": "uint256",
          "name": "",
          "type": "uint256"
        }
      ],
      "stateMutability": "view",
      "type": "function",
      "constant": true
    }
  ],
  "bytecode": "0x60806040526000600155600060025534801561001a57600080fd5b5061004961003561004e640100000000026401000000009004565b610056640100000000026401000000009004565b61011a565b600033905090565b60008060009054906101000a900473ffffffffffffffffffffffffffffffffffffffff169050816000806101000a81548173ffffffffffffffffffffffffffffffffffffffff021916908373ffffffffffffffffffffffffffffffffffffffff1602179055508173ffffffffffffffffffffffffffffffffffffffff168173ffffffffffffffffffffffffffffffffffffffff167f8be0079c531659141344cd1fd0a4f28419497f9722a3daafe3b4186f6b6457e060405160405180910390a35050565b611a4e806101296000396000f3fe608060405234801561001057600080fd5b50600436106100ec576000357c0100000000000000000000000000000000000000000000000000000000900480638da5cb5b116100a95780639cdf2084116100835780639cdf2084146101e4578063c64963c514610200578063ef8a92351461021e578063f2fde38b1461023c576100ec565b80638da5cb5b1461018c5780638e7ea5b2146101aa57806395bc9538146101c8576100ec565b80630383badc146100f15780632fdae3c51461010d57806330326c1714610129578063382018451461015a57806345f09ce914610164578063715018a614610182575b600080fd5b61010b60048036038101906101069190611340565b610258565b005b610127600480360381019061012291906112ff565b61053c565b005b610143600480360381019061013e9190611340565b61079d565b6040516101519291906115fd565b60405180910390f35b610162610859565b005b61016c610a74565b60405161017991906115b9565b60405180910390f35b61018a610a87565b005b610194610b0f565b6040516101a19190611575565b60405180910390f35b6101b2610b38565b6040516101bf91906116ed565b60405180910390f35b6101e260048036038101906101dd91906112d6565b610c06565b005b6101fe60048036038101906101f991906112ad565b610d1d565b005b610208610f82565b60405161021591906116ed565b60405180910390f35b610226610f88565b60405161023391906115b9565b60405180910390f35b610256600480360381019061025191906112ad565b610f9f565b005b6003806005811115610293577f4e487b7100000000000000000000000000000000000000000000000000000000600052602160045260246000fd5b600560009054906101000a900460ff1660058111156102db577f4e487b7100000000000000000000000000000000000000000000000000000000600052602160045260246000fd5b1461031b576040517f08c379a00000000000000000000000000000000000000000000000000000000081526004016103129061164d565b60405180910390fd5b60011515600360003373ffffffffffffffffffffffffffffffffffffffff1673ffffffffffffffffffffffffffffffffffffffff16815260200190815260200160002060000160009054906101000a900460ff161515146103b1576040517f08c379a00000000000000000000000000000000000000000000000000000000081526004016103a8906116cd565b60405180910390fd5b600360003373ffffffffffffffffffffffffffffffffffffffff1673ffffffffffffffffffffffffffffffffffffffff16815260200190815260200160002060000160019054906101000a900460ff1615610441576040517f08c379a00000000000000000000000000000000000000000000000000000000081526004016104389061166d565b60405180910390fd5b60016004838154811061047d577f4e487b7100000000000000000000000000000000000000000000000000000000600052603260045260246000fd5b9060005260206000209060020201600101600082825461049d9190611785565b925050819055506001600360003373ffffffffffffffffffffffffffffffffffffffff1673ffffffffffffffffffffffffffffffffffffffff16815260200190815260200160002060000160016101000a81548160ff0219169083151502179055507f4d99b957a2bc29a30ebd96a7be8e68fe50a3c701db28a91436490b7d53870ca43383604051610530929190611590565b60405180910390a15050565b6001806005811115610577577f4e487b7100000000000000000000000000000000000000000000000000000000600052602160045260246000fd5b600560009054906101000a900460ff1660058111156105bf577f4e487b7100000000000000000000000000000000000000000000000000000000600052602160045260246000fd5b146105ff576040517f08c379a00000000000000000000000000000000000000000000000000000000081526004016105f69061164d565b60405180910390fd5b60011515600360003373ffffffffffffffffffffffffffffffffffffffff1673ffffffffffffffffffffffffffffffffffffffff16815260200190815260200160002060000160009054906101000a900460ff16151514610695576040517f08c379a000000000000000000000000000000000000000000000000000000000815260040161068c906116cd565b60405180910390fd5b600460405180604001604052808481526020016000815250908060018154018082558091505060019003906000526020600020906002020160009091909190915060008201518160000190805190602001906106f2929190611163565b50602082015181600101555050600254600360003373ffffffffffffffffffffffffffffffffffffffff1673ffffffffffffffffffffffffffffffffffffffff168152602001908152602001600020600101819055507f92e393e9b54e2f801d3ea4beb0c5e71a21cc34a5d34b77d0fb8a3aa1650dc18f60025460405161077991906116ed565b60405180910390a160026000815480929190610794906118b0565b91905055505050565b600481815481106107ad57600080fd5b90600052602060002090600202016000915090508060000180546107d09061187e565b80601f01602080910402602001604051908101604052809291908181526020018280546107fc9061187e565b80156108495780601f1061081e57610100808354040283529160200191610849565b820191906000526020600020905b81548152906001019060200180831161082c57829003601f168201915b5050505050908060010154905082565b610861611097565b73ffffffffffffffffffffffffffffffffffffffff1661087f610b0f565b73ffffffffffffffffffffffffffffffffffffffff16146108d5576040517f08c379a00000000000000000000000000000000000000000000000000000000081526004016108cc9061168d565b60405180910390fd5b6004806005811115610910577f4e487b7100000000000000000000000000000000000000000000000000000000600052602160045260246000fd5b600560009054906101000a900460ff166005811115610958577f4e487b7100000000000000000000000000000000000000000000000000000000600052602160045260246000fd5b14610998576040517f08c379a000000000000000000000000000000000000000000000000000000000815260040161098f9061164d565b60405180910390fd5b6000806000905060005b600480549050811015610a675781600482815481106109ea577f4e487b7100000000000000000000000000000000000000000000000000000000600052603260045260246000fd5b9060005260206000209060020201600101541115610a545780925060048181548110610a3f577f4e487b7100000000000000000000000000000000000000000000000000000000600052603260045260246000fd5b90600052602060002090600202016001015491505b8080610a5f906118b0565b9150506109a2565b5081600181905550505050565b600560009054906101000a900460ff1681565b610a8f611097565b73ffffffffffffffffffffffffffffffffffffffff16610aad610b0f565b73ffffffffffffffffffffffffffffffffffffffff1614610b03576040517f08c379a0000000000000000000000000000000000000000000000000000000008152600401610afa9061168d565b60405180910390fd5b610b0d600061109f565b565b60008060009054906101000a900473ffffffffffffffffffffffffffffffffffffffff16905090565b60006005806005811115610b75577f4e487b7100000000000000000000000000000000000000000000000000000000600052602160045260246000fd5b600560009054906101000a900460ff166005811115610bbd577f4e487b7100000000000000000000000000000000000000000000000000000000600052602160045260246000fd5b14610bfd576040517f08c379a0000000000000000000000000000000000000000000000000000000008152600401610bf49061164d565b60405180910390fd5b60015491505090565b610c0e611097565b73ffffffffffffffffffffffffffffffffffffffff16610c2c610b0f565b73ffffffffffffffffffffffffffffffffffffffff1614610c82576040517f08c379a0000000000000000000000000000000000000000000000000000000008152600401610c799061168d565b60405180910390fd5b7f0a97a4ee45751e2abf3e4fc8946939630b11b371ea8ae39ccdc3056e98f5cc3f600560009054906101000a900460ff1682604051610cc29291906115d4565b60405180910390a180600560006101000a81548160ff02191690836005811115610d15577f4e487b7100000000000000000000000000000000000000000000000000000000600052602160045260246000fd5b021790555050565b610d25611097565b73ffffffffffffffffffffffffffffffffffffffff16610d43610b0f565b73ffffffffffffffffffffffffffffffffffffffff1614610d99576040517f08c379a0000000000000000000000000000000000000000000000000000000008152600401610d909061168d565b60405180910390fd5b6000806005811115610dd4577f4e487b7100000000000000000000000000000000000000000000000000000000600052602160045260246000fd5b600560009054906101000a900460ff166005811115610e1c577f4e487b7100000000000000000000000000000000000000000000000000000000600052602160045260246000fd5b14610e5c576040517f08c379a0000000000000000000000000000000000000000000000000000000008152600401610e539061164d565b60405180910390fd5b600360008373ffffffffffffffffffffffffffffffffffffffff1673ffffffffffffffffffffffffffffffffffffffff16815260200190815260200160002060000160009054906101000a900460ff1615610eec576040517f08c379a0000000000000000000000000000000000000000000000000000000008152600401610ee3906116ad565b60405180910390fd5b6001600360008473ffffffffffffffffffffffffffffffffffffffff1673ffffffffffffffffffffffffffffffffffffffff16815260200190815260200160002060000160006101000a81548160ff0219169083151502179055507fb6be2187d059cc2a55fe29e0e503b566e1e0f8c8780096e185429350acffd3dd82604051610f769190611575565b60405180910390a15050565b60015481565b6000600560009054906101000a900460ff16905090565b610fa7611097565b73ffffffffffffffffffffffffffffffffffffffff16610fc5610b0f565b73ffffffffffffffffffffffffffffffffffffffff161461101b576040517f08c379a00000000000000000000000000000000000000000000000000000000081526004016110129061168d565b60405180910390fd5b600073ffffffffffffffffffffffffffffffffffffffff168173ffffffffffffffffffffffffffffffffffffffff16141561108b576040517f08c379a00000000000000000000000000000000000000000000000000000000081526004016110829061162d565b60405180910390fd5b6110948161109f565b50565b600033905090565b60008060009054906101000a900473ffffffffffffffffffffffffffffffffffffffff169050816000806101000a81548173ffffffffffffffffffffffffffffffffffffffff021916908373ffffffffffffffffffffffffffffffffffffffff1602179055508173ffffffffffffffffffffffffffffffffffffffff168173ffffffffffffffffffffffffffffffffffffffff167f8be0079c531659141344cd1fd0a4f28419497f9722a3daafe3b4186f6b6457e060405160405180910390a35050565b82805461116f9061187e565b90600052602060002090601f01602090048101928261119157600085556111d8565b82601f106111aa57805160ff19168380011785556111d8565b828001600101855582156111d8579182015b828111156111d75782518255916020019190600101906111bc565b5b5090506111e591906111e9565b5090565b5b808211156112025760008160009055506001016111ea565b5090565b600061121961121484611739565b611708565b90508281526020810184848401111561123157600080fd5b61123c84828561183c565b509392505050565b600081359050611253816119da565b92915050565b600081359050611268816119f1565b92915050565b600082601f83011261127f57600080fd5b813561128f848260208601611206565b91505092915050565b6000813590506112a781611a01565b92915050565b6000602082840312156112bf57600080fd5b60006112cd84828501611244565b91505092915050565b6000602082840312156112e857600080fd5b60006112f684828501611259565b91505092915050565b60006020828403121561131157600080fd5b600082013567ffffffffffffffff81111561132b57600080fd5b6113378482850161126e565b91505092915050565b60006020828403121561135257600080fd5b600061136084828501611298565b91505092915050565b611372816117db565b82525050565b6113818161182a565b82525050565b600061139282611769565b61139c8185611774565b93506113ac81856020860161184b565b6113b5816119b5565b840191505092915050565b60006113cd602683611774565b91507f4f776e61626c653a206e6577206f776e657220697320746865207a65726f206160008301527f64647265737300000000000000000000000000000000000000000000000000006020830152604082019050919050565b6000611433600e83611774565b91507f496e76616c6964205374617475730000000000000000000000000000000000006000830152602082019050919050565b6000611473601783611774565b91507f5520616c7265616479207375626d6974206120766f74650000000000000000006000830152602082019050919050565b60006114b3602083611774565b91507f4f776e61626c653a2063616c6c6572206973206e6f7420746865206f776e65726000830152602082019050919050565b60006114f3601383611774565b91507f416c72656164792077686974656c6973746564000000000000000000000000006000830152602082019050919050565b6000611533601583611774565b91507f5520617265206e6f742077686974656c697374656400000000000000000000006000830152602082019050919050565b61156f81611820565b82525050565b600060208201905061158a6000830184611369565b92915050565b60006040820190506115a56000830185611369565b6115b26020830184611566565b9392505050565b60006020820190506115ce6000830184611378565b92915050565b60006040820190506115e96000830185611378565b6115f66020830184611378565b9392505050565b600060408201905081810360008301526116178185611387565b90506116266020830184611566565b9392505050565b60006020820190508181036000830152611646816113c0565b9050919050565b6000602082019050818103600083015261166681611426565b9050919050565b6000602082019050818103600083015261168681611466565b9050919050565b600060208201905081810360008301526116a6816114a6565b9050919050565b600060208201905081810360008301526116c6816114e6565b9050919050565b600060208201905081810360008301526116e681611526565b9050919050565b60006020820190506117026000830184611566565b92915050565b6000604051905081810181811067ffffffffffffffff8211171561172f5761172e611986565b5b8060405250919050565b600067ffffffffffffffff82111561175457611753611986565b5b601f19601f8301169050602081019050919050565b600081519050919050565b600082825260208201905092915050565b600061179082611820565b915061179b83611820565b9250827fffffffffffffffffffffffffffffffffffffffffffffffffffffffffffffffff038211156117d0576117cf6118f9565b5b828201905092915050565b60006117e682611800565b9050919050565b60008190506117fb826119c6565b919050565b600073ffffffffffffffffffffffffffffffffffffffff82169050919050565b6000819050919050565b6000611835826117ed565b9050919050565b82818337600083830152505050565b60005b8381101561186957808201518184015260208101905061184e565b83811115611878576000848401525b50505050565b6000600282049050600182168061189657607f821691505b602082108114156118aa576118a9611957565b5b50919050565b60006118bb82611820565b91507fffffffffffffffffffffffffffffffffffffffffffffffffffffffffffffffff8214156118ee576118ed6118f9565b5b600182019050919050565b7f4e487b7100000000000000000000000000000000000000000000000000000000600052601160045260246000fd5b7f4e487b7100000000000000000000000000000000000000000000000000000000600052602160045260246000fd5b7f4e487b7100000000000000000000000000000000000000000000000000000000600052602260045260246000fd5b7f4e487b7100000000000000000000000000000000000000000000000000000000600052604160045260246000fd5b6000601f19601f8301169050919050565b600681106119d7576119d6611928565b5b50565b6119e3816117db565b81146119ee57600080fd5b50565b600681106119fe57600080fd5b50565b611a0a81611820565b8114611a1557600080fd5b5056fea2646970667358221220e39be87e7e2ba1fc6be926e45a7c4df77c5882e1a16a5c174b80966ca5e99afe64736f6c63430008000033",
  "immutableReferences": {},
  "source": "// SPDX-License-Identifier: UNLICENSED\npragma solidity >=0.8.0;\n\nimport \"../../../openzeppelin-contracts/contracts/access/Ownable.sol\";\n\ncontract Voting is Ownable {\n    uint256 public winningProposalId = 0;\n    uint256 private id = 0;\n\n    mapping(address => Voter) private _voter;\n\n    struct Voter {\n        bool isRegistered;\n        bool hasVoted;\n        uint votedProposalId;\n    }\n    struct Proposal {\n        string description;\n        uint voteCount;\n    }\n    Proposal[] public proposal;\n\n    enum WorkflowStatus {\n        RegisteringVoters,\n        ProposalsRegistrationStarted,\n        ProposalsRegistrationEnded,\n        VotingSessionStarted,\n        VotingSessionEnded,\n        VotesTallied\n    }\n    WorkflowStatus public Status;\n    modifier inStatus(WorkflowStatus _status) {\n        require(Status == _status, \"Invalid Status\");\n        _;\n    }\n    function changeStatus(WorkflowStatus _newStatus) public onlyOwner() {\n        emit WorkflowStatusChange(Status, _newStatus);\n        Status = _newStatus;\n    }\n    function currentStatus() public view returns(WorkflowStatus) {\n        return Status;\n    }\n\n    event VoterRegistered(address voterAddress); \n    event WorkflowStatusChange(WorkflowStatus previousStatus, WorkflowStatus newStatus);\n    event ProposalRegistered(uint proposalId);\n    event Voted (address voter, uint proposalId);   \n\n    function addWhitelistVoters(address _address) public onlyOwner() inStatus(WorkflowStatus.RegisteringVoters) {\n        require(!_voter[_address].isRegistered, \"Already whitelisted\");\n        _voter[_address].isRegistered = true;\n        emit VoterRegistered(_address);\n    }\n\n    function addProposal(string memory _description) public inStatus(WorkflowStatus.ProposalsRegistrationStarted) {\n        require(_voter[msg.sender].isRegistered == true, \"U are not whitelisted\");\n        proposal.push(Proposal({description: _description, voteCount: 0}));\n        _voter[msg.sender].votedProposalId = id;\n        emit  ProposalRegistered(id);\n        id++;\n    }\n\n    function addVote(uint256 _proposalId) public inStatus(WorkflowStatus.VotingSessionStarted) {\n        require(_voter[msg.sender].isRegistered == true, \"U are not whitelisted\");\n        require(!_voter[msg.sender].hasVoted, \"U already submit a vote\");\n        proposal[_proposalId].voteCount += 1;\n        _voter[msg.sender].hasVoted = true;\n        emit Voted(msg.sender, _proposalId);\n    }\n\n    function searchWinner() public onlyOwner() inStatus(WorkflowStatus.VotingSessionEnded) {\n        uint256 _id;\n        uint256 _vote = 0;\n        \n        for (uint256 i; i < proposal.length; i++) {\n            if (proposal[i].voteCount > _vote) {\n                _id = i;\n                _vote = proposal[i].voteCount;\n            }\n        }\n        winningProposalId = _id;\n    }\n\n    function getWinner() public view inStatus(WorkflowStatus.VotesTallied) returns(uint) {\n        return winningProposalId;\n    }\n}",
  "sourcePath": "/Users/chinoiserie/delivery/BLOCKCHAIN/Alyra/Developpeur-Ethereum-Template/4. Truffle & CI-CD/contracts/Voting.sol",
  "compiler": {
    "name": "solc",
    "version": "0.8.0+commit.c7dfd78e.Emscripten.clang"
  },
  "schemaVersion": "3.4.1",
  "updatedAt": "2021-12-29T12:31:24.769Z",
  "networkType": "ethereum",
  "devdoc": {
    "kind": "dev",
    "methods": {
      "owner()": {
        "details": "Returns the address of the current owner."
      },
      "renounceOwnership()": {
        "details": "Leaves the contract without owner. It will not be possible to call `onlyOwner` functions anymore. Can only be called by the current owner. NOTE: Renouncing ownership will leave the contract without an owner, thereby removing any functionality that is only available to the owner."
      },
      "transferOwnership(address)": {
        "details": "Transfers ownership of the contract to a new account (`newOwner`). Can only be called by the current owner."
      }
    },
    "version": 1
  },
  "userdoc": {
    "kind": "user",
    "methods": {},
    "version": 1
  }
}