{
  "contractName": "Voting",
  "abi": [
    {
      "anonymous": false,
      "inputs": [
        {
          "indexed": true,
          "internalType": "address",
          "name": "previousOwner",
          "type": "address"
        },
        {
          "indexed": true,
          "internalType": "address",
          "name": "newOwner",
          "type": "address"
        }
      ],
      "name": "OwnershipTransferred",
      "type": "event"
    },
    {
      "anonymous": false,
      "inputs": [
        {
          "indexed": false,
          "internalType": "uint256",
          "name": "proposalId",
          "type": "uint256"
        }
      ],
      "name": "ProposalRegistered",
      "type": "event"
    },
    {
      "anonymous": false,
      "inputs": [
        {
          "indexed": false,
          "internalType": "address",
          "name": "voter",
          "type": "address"
        },
        {
          "indexed": false,
          "internalType": "uint256",
          "name": "proposalId",
          "type": "uint256"
        }
      ],
      "name": "Voted",
      "type": "event"
    },
    {
      "anonymous": false,
      "inputs": [
        {
          "indexed": false,
          "internalType": "address",
          "name": "voterAddress",
          "type": "address"
        }
      ],
      "name": "VoterRegistered",
      "type": "event"
    },
    {
      "anonymous": false,
      "inputs": [
        {
          "indexed": false,
          "internalType": "enum Voting.WorkflowStatus",
          "name": "previousStatus",
          "type": "uint8"
        },
        {
          "indexed": false,
          "internalType": "enum Voting.WorkflowStatus",
          "name": "newStatus",
          "type": "uint8"
        }
      ],
      "name": "WorkflowStatusChange",
      "type": "event"
    },
    {
      "inputs": [],
      "name": "Status",
      "outputs": [
        {
          "internalType": "enum Voting.WorkflowStatus",
          "name": "",
          "type": "uint8"
        }
      ],
      "stateMutability": "view",
      "type": "function",
      "constant": true
    },
    {
      "inputs": [
        {
          "internalType": "address",
          "name": "",
          "type": "address"
        }
      ],
      "name": "_voter",
      "outputs": [
        {
          "internalType": "bool",
          "name": "isRegistered",
          "type": "bool"
        },
        {
          "internalType": "bool",
          "name": "hasVoted",
          "type": "bool"
        },
        {
          "internalType": "uint256",
          "name": "votedProposalId",
          "type": "uint256"
        }
      ],
      "stateMutability": "view",
      "type": "function",
      "constant": true
    },
    {
      "inputs": [],
      "name": "id",
      "outputs": [
        {
          "internalType": "uint256",
          "name": "",
          "type": "uint256"
        }
      ],
      "stateMutability": "view",
      "type": "function",
      "constant": true
    },
    {
      "inputs": [],
      "name": "owner",
      "outputs": [
        {
          "internalType": "address",
          "name": "",
          "type": "address"
        }
      ],
      "stateMutability": "view",
      "type": "function",
      "constant": true
    },
    {
      "inputs": [
        {
          "internalType": "uint256",
          "name": "",
          "type": "uint256"
        }
      ],
      "name": "proposal",
      "outputs": [
        {
          "internalType": "string",
          "name": "description",
          "type": "string"
        },
        {
          "internalType": "uint256",
          "name": "voteCount",
          "type": "uint256"
        }
      ],
      "stateMutability": "view",
      "type": "function",
      "constant": true
    },
    {
      "inputs": [],
      "name": "renounceOwnership",
      "outputs": [],
      "stateMutability": "nonpayable",
      "type": "function"
    },
    {
      "inputs": [
        {
          "internalType": "address",
          "name": "newOwner",
          "type": "address"
        }
      ],
      "name": "transferOwnership",
      "outputs": [],
      "stateMutability": "nonpayable",
      "type": "function"
    },
    {
      "inputs": [
        {
          "internalType": "uint256",
          "name": "",
          "type": "uint256"
        }
      ],
      "name": "whitelistAddr",
      "outputs": [
        {
          "internalType": "address",
          "name": "",
          "type": "address"
        }
      ],
      "stateMutability": "view",
      "type": "function",
      "constant": true
    },
    {
      "inputs": [],
      "name": "winningProposalId",
      "outputs": [
        {
          "internalType": "uint256",
          "name": "",
          "type": "uint256"
        }
      ],
      "stateMutability": "view",
      "type": "function",
      "constant": true
    },
    {
      "inputs": [],
      "name": "getWhitelistAddr",
      "outputs": [
        {
          "internalType": "address[]",
          "name": "",
          "type": "address[]"
        }
      ],
      "stateMutability": "view",
      "type": "function",
      "constant": true
    },
    {
      "inputs": [
        {
          "internalType": "enum Voting.WorkflowStatus",
          "name": "_newStatus",
          "type": "uint8"
        }
      ],
      "name": "changeStatus",
      "outputs": [],
      "stateMutability": "nonpayable",
      "type": "function"
    },
    {
      "inputs": [
        {
          "internalType": "address",
          "name": "_address",
          "type": "address"
        }
      ],
      "name": "addWhitelistVoters",
      "outputs": [],
      "stateMutability": "nonpayable",
      "type": "function"
    },
    {
      "inputs": [
        {
          "internalType": "string",
          "name": "_description",
          "type": "string"
        }
      ],
      "name": "addProposal",
      "outputs": [],
      "stateMutability": "nonpayable",
      "type": "function"
    },
    {
      "inputs": [
        {
          "internalType": "uint256",
          "name": "_proposalId",
          "type": "uint256"
        }
      ],
      "name": "addVote",
      "outputs": [],
      "stateMutability": "nonpayable",
      "type": "function"
    },
    {
      "inputs": [],
      "name": "searchWinner",
      "outputs": [],
      "stateMutability": "nonpayable",
      "type": "function"
    },
    {
      "inputs": [],
      "name": "getWinner",
      "outputs": [
        {
          "internalType": "uint256",
          "name": "",
          "type": "uint256"
        }
      ],
      "stateMutability": "view",
      "type": "function",
      "constant": true
    }
  ],
  "bytecode": "0x60806040526000600155600060025534801561001a57600080fd5b5061004961003561004e640100000000026401000000009004565b610056640100000000026401000000009004565b61011a565b600033905090565b60008060009054906101000a900473ffffffffffffffffffffffffffffffffffffffff169050816000806101000a81548173ffffffffffffffffffffffffffffffffffffffff021916908373ffffffffffffffffffffffffffffffffffffffff1602179055508173ffffffffffffffffffffffffffffffffffffffff168173ffffffffffffffffffffffffffffffffffffffff167f8be0079c531659141344cd1fd0a4f28419497f9722a3daafe3b4186f6b6457e060405160405180910390a35050565b611c4b806101296000396000f3fe608060405234801561001057600080fd5b506004361061011d576000357c0100000000000000000000000000000000000000000000000000000000900480638da5cb5b116100b4578063af640d0f11610083578063af640d0f1461027f578063c64963c51461029d578063ec716bea146102bb578063f2fde38b146102ed5761011d565b80638da5cb5b1461020b5780638e7ea5b21461022957806395bc9538146102475780639cdf2084146102635761011d565b806345f09ce9116100f057806345f09ce914610195578063715018a6146101b357806374b0d9da146101bd57806385c6b79e146101db5761011d565b80630383badc146101225780632fdae3c51461013e57806330326c171461015a578063382018451461018b575b600080fd5b61013c6004803603810190610137919061124e565b610309565b005b610158600480360381019061015391906113c1565b6105c2565b005b610174600480360381019061016f919061124e565b61078e565b6040516101829291906114a1565b60405180910390f35b61019361084a565b005b61019d6109cd565b6040516101aa9190611548565b60405180910390f35b6101bb6109e0565b005b6101c5610a68565b6040516101d29190611653565b60405180910390f35b6101f560048036038101906101f0919061124e565b610af6565b6040516102029190611684565b60405180910390f35b610213610b35565b6040516102209190611684565b60405180910390f35b610231610b5e565b60405161023e919061169f565b60405180910390f35b610261600480360381019061025c91906116df565b610be0565b005b61027d60048036038101906102789190611738565b610cd1565b005b610287610f4d565b604051610294919061169f565b60405180910390f35b6102a5610f53565b6040516102b2919061169f565b60405180910390f35b6102d560048036038101906102d09190611738565b610f59565b6040516102e493929190611780565b60405180910390f35b61030760048036038101906103029190611738565b610f9d565b005b600380600581111561031e5761031d6114d1565b5b600660009054906101000a900460ff1660058111156103405761033f6114d1565b5b14610380576040517f08c379a000000000000000000000000000000000000000000000000000000000815260040161037790611803565b60405180910390fd5b60011515600460003373ffffffffffffffffffffffffffffffffffffffff1673ffffffffffffffffffffffffffffffffffffffff16815260200190815260200160002060000160009054906101000a900460ff16151514610416576040517f08c379a000000000000000000000000000000000000000000000000000000000815260040161040d9061186f565b60405180910390fd5b600460003373ffffffffffffffffffffffffffffffffffffffff1673ffffffffffffffffffffffffffffffffffffffff16815260200190815260200160002060000160019054906101000a900460ff16156104a6576040517f08c379a000000000000000000000000000000000000000000000000000000000815260040161049d906118db565b60405180910390fd5b6001600583815481106104bc576104bb6118fb565b5b906000526020600020906002020160010160008282546104dc9190611959565b9250508190555081600460003373ffffffffffffffffffffffffffffffffffffffff1673ffffffffffffffffffffffffffffffffffffffff168152602001908152602001600020600101819055506001600460003373ffffffffffffffffffffffffffffffffffffffff1673ffffffffffffffffffffffffffffffffffffffff16815260200190815260200160002060000160016101000a81548160ff0219169083151502179055507f4d99b957a2bc29a30ebd96a7be8e68fe50a3c701db28a91436490b7d53870ca433836040516105b69291906119af565b60405180910390a15050565b60018060058111156105d7576105d66114d1565b5b600660009054906101000a900460ff1660058111156105f9576105f86114d1565b5b14610639576040517f08c379a000000000000000000000000000000000000000000000000000000000815260040161063090611803565b60405180910390fd5b60011515600460003373ffffffffffffffffffffffffffffffffffffffff1673ffffffffffffffffffffffffffffffffffffffff16815260200190815260200160002060000160009054906101000a900460ff161515146106cf576040517f08c379a00000000000000000000000000000000000000000000000000000000081526004016106c69061186f565b60405180910390fd5b6005604051806040016040528084815260200160008152509080600181540180825580915050600190039060005260206000209060020201600090919091909150600082015181600001908051906020019061072c929190611161565b506020820151816001015550507f92e393e9b54e2f801d3ea4beb0c5e71a21cc34a5d34b77d0fb8a3aa1650dc18f60025460405161076a919061169f565b60405180910390a160026000815480929190610785906119d8565b91905055505050565b6005818154811061079e57600080fd5b90600052602060002090600202016000915090508060000180546107c190611a50565b80601f01602080910402602001604051908101604052809291908181526020018280546107ed90611a50565b801561083a5780601f1061080f5761010080835404028352916020019161083a565b820191906000526020600020905b81548152906001019060200180831161081d57829003601f168201915b5050505050908060010154905082565b610852611095565b73ffffffffffffffffffffffffffffffffffffffff16610870610b35565b73ffffffffffffffffffffffffffffffffffffffff16146108c6576040517f08c379a00000000000000000000000000000000000000000000000000000000081526004016108bd90611ace565b60405180910390fd5b60048060058111156108db576108da6114d1565b5b600660009054906101000a900460ff1660058111156108fd576108fc6114d1565b5b1461093d576040517f08c379a000000000000000000000000000000000000000000000000000000000815260040161093490611803565b60405180910390fd5b6000806000905060005b6005805490508110156109c0578160058281548110610969576109686118fb565b5b90600052602060002090600202016001015411156109ad5780925060058181548110610998576109976118fb565b5b90600052602060002090600202016001015491505b80806109b8906119d8565b915050610947565b5081600181905550505050565b600660009054906101000a900460ff1681565b6109e8611095565b73ffffffffffffffffffffffffffffffffffffffff16610a06610b35565b73ffffffffffffffffffffffffffffffffffffffff1614610a5c576040517f08c379a0000000000000000000000000000000000000000000000000000000008152600401610a5390611ace565b60405180910390fd5b610a66600061109d565b565b60606003805480602002602001604051908101604052809291908181526020018280548015610aec57602002820191906000526020600020905b8160009054906101000a900473ffffffffffffffffffffffffffffffffffffffff1673ffffffffffffffffffffffffffffffffffffffff1681526020019060010190808311610aa2575b5050505050905090565b60038181548110610b0657600080fd5b906000526020600020016000915054906101000a900473ffffffffffffffffffffffffffffffffffffffff1681565b60008060009054906101000a900473ffffffffffffffffffffffffffffffffffffffff16905090565b60006005806005811115610b7557610b746114d1565b5b600660009054906101000a900460ff166005811115610b9757610b966114d1565b5b14610bd7576040517f08c379a0000000000000000000000000000000000000000000000000000000008152600401610bce90611803565b60405180910390fd5b60015491505090565b610be8611095565b73ffffffffffffffffffffffffffffffffffffffff16610c06610b35565b73ffffffffffffffffffffffffffffffffffffffff1614610c5c576040517f08c379a0000000000000000000000000000000000000000000000000000000008152600401610c5390611ace565b60405180910390fd5b7f0a97a4ee45751e2abf3e4fc8946939630b11b371ea8ae39ccdc3056e98f5cc3f600660009054906101000a900460ff1682604051610c9c929190611aee565b60405180910390a180600660006101000a81548160ff02191690836005811115610cc957610cc86114d1565b5b021790555050565b610cd9611095565b73ffffffffffffffffffffffffffffffffffffffff16610cf7610b35565b73ffffffffffffffffffffffffffffffffffffffff1614610d4d576040517f08c379a0000000000000000000000000000000000000000000000000000000008152600401610d4490611ace565b60405180910390fd5b6000806005811115610d6257610d616114d1565b5b600660009054906101000a900460ff166005811115610d8457610d836114d1565b5b14610dc4576040517f08c379a0000000000000000000000000000000000000000000000000000000008152600401610dbb90611803565b60405180910390fd5b600460008373ffffffffffffffffffffffffffffffffffffffff1673ffffffffffffffffffffffffffffffffffffffff16815260200190815260200160002060000160009054906101000a900460ff1615610e54576040517f08c379a0000000000000000000000000000000000000000000000000000000008152600401610e4b90611b63565b60405180910390fd5b6003829080600181540180825580915050600190039060005260206000200160009091909190916101000a81548173ffffffffffffffffffffffffffffffffffffffff021916908373ffffffffffffffffffffffffffffffffffffffff1602179055506001600460008473ffffffffffffffffffffffffffffffffffffffff1673ffffffffffffffffffffffffffffffffffffffff16815260200190815260200160002060000160006101000a81548160ff0219169083151502179055507fb6be2187d059cc2a55fe29e0e503b566e1e0f8c8780096e185429350acffd3dd82604051610f419190611684565b60405180910390a15050565b60025481565b60015481565b60046020528060005260406000206000915090508060000160009054906101000a900460ff16908060000160019054906101000a900460ff16908060010154905083565b610fa5611095565b73ffffffffffffffffffffffffffffffffffffffff16610fc3610b35565b73ffffffffffffffffffffffffffffffffffffffff1614611019576040517f08c379a000000000000000000000000000000000000000000000000000000000815260040161101090611ace565b60405180910390fd5b600073ffffffffffffffffffffffffffffffffffffffff168173ffffffffffffffffffffffffffffffffffffffff161415611089576040517f08c379a000000000000000000000000000000000000000000000000000000000815260040161108090611bf5565b60405180910390fd5b6110928161109d565b50565b600033905090565b60008060009054906101000a900473ffffffffffffffffffffffffffffffffffffffff169050816000806101000a81548173ffffffffffffffffffffffffffffffffffffffff021916908373ffffffffffffffffffffffffffffffffffffffff1602179055508173ffffffffffffffffffffffffffffffffffffffff168173ffffffffffffffffffffffffffffffffffffffff167f8be0079c531659141344cd1fd0a4f28419497f9722a3daafe3b4186f6b6457e060405160405180910390a35050565b82805461116d90611a50565b90600052602060002090601f01602090048101928261118f57600085556111d6565b82601f106111a857805160ff19168380011785556111d6565b828001600101855582156111d6579182015b828111156111d55782518255916020019190600101906111ba565b5b5090506111e391906111e7565b5090565b5b808211156112005760008160009055506001016111e8565b5090565b6000604051905090565b600080fd5b600080fd5b6000819050919050565b61122b81611218565b811461123657600080fd5b50565b60008135905061124881611222565b92915050565b6000602082840312156112645761126361120e565b5b600061127284828501611239565b91505092915050565b600080fd5b600080fd5b6000601f19601f8301169050919050565b7f4e487b7100000000000000000000000000000000000000000000000000000000600052604160045260246000fd5b6112ce82611285565b810181811067ffffffffffffffff821117156112ed576112ec611296565b5b80604052505050565b6000611300611204565b905061130c82826112c5565b919050565b600067ffffffffffffffff82111561132c5761132b611296565b5b61133582611285565b9050602081019050919050565b82818337600083830152505050565b600061136461135f84611311565b6112f6565b9050828152602081018484840111156113805761137f611280565b5b61138b848285611342565b509392505050565b600082601f8301126113a8576113a761127b565b5b81356113b8848260208601611351565b91505092915050565b6000602082840312156113d7576113d661120e565b5b600082013567ffffffffffffffff8111156113f5576113f4611213565b5b61140184828501611393565b91505092915050565b600081519050919050565b600082825260208201905092915050565b60005b83811015611444578082015181840152602081019050611429565b83811115611453576000848401525b50505050565b60006114648261140a565b61146e8185611415565b935061147e818560208601611426565b61148781611285565b840191505092915050565b61149b81611218565b82525050565b600060408201905081810360008301526114bb8185611459565b90506114ca6020830184611492565b9392505050565b7f4e487b7100000000000000000000000000000000000000000000000000000000600052602160045260246000fd5b60068110611511576115106114d1565b5b50565b600081905061152282611500565b919050565b600061153282611514565b9050919050565b61154281611527565b82525050565b600060208201905061155d6000830184611539565b92915050565b600081519050919050565b600082825260208201905092915050565b6000819050602082019050919050565b600073ffffffffffffffffffffffffffffffffffffffff82169050919050565b60006115ba8261158f565b9050919050565b6115ca816115af565b82525050565b60006115dc83836115c1565b60208301905092915050565b6000602082019050919050565b600061160082611563565b61160a818561156e565b93506116158361157f565b8060005b8381101561164657815161162d88826115d0565b9750611638836115e8565b925050600181019050611619565b5085935050505092915050565b6000602082019050818103600083015261166d81846115f5565b905092915050565b61167e816115af565b82525050565b60006020820190506116996000830184611675565b92915050565b60006020820190506116b46000830184611492565b92915050565b600681106116c757600080fd5b50565b6000813590506116d9816116ba565b92915050565b6000602082840312156116f5576116f461120e565b5b6000611703848285016116ca565b91505092915050565b611715816115af565b811461172057600080fd5b50565b6000813590506117328161170c565b92915050565b60006020828403121561174e5761174d61120e565b5b600061175c84828501611723565b91505092915050565b60008115159050919050565b61177a81611765565b82525050565b60006060820190506117956000830186611771565b6117a26020830185611771565b6117af6040830184611492565b949350505050565b7f496e76616c696420537461747573000000000000000000000000000000000000600082015250565b60006117ed600e83611415565b91506117f8826117b7565b602082019050919050565b6000602082019050818103600083015261181c816117e0565b9050919050565b7f5520617265206e6f742077686974656c69737465640000000000000000000000600082015250565b6000611859601583611415565b915061186482611823565b602082019050919050565b600060208201905081810360008301526118888161184c565b9050919050565b7f5520616c7265616479207375626d6974206120766f7465000000000000000000600082015250565b60006118c5601783611415565b91506118d08261188f565b602082019050919050565b600060208201905081810360008301526118f4816118b8565b9050919050565b7f4e487b7100000000000000000000000000000000000000000000000000000000600052603260045260246000fd5b7f4e487b7100000000000000000000000000000000000000000000000000000000600052601160045260246000fd5b600061196482611218565b915061196f83611218565b9250827fffffffffffffffffffffffffffffffffffffffffffffffffffffffffffffffff038211156119a4576119a361192a565b5b828201905092915050565b60006040820190506119c46000830185611675565b6119d16020830184611492565b9392505050565b60006119e382611218565b91507fffffffffffffffffffffffffffffffffffffffffffffffffffffffffffffffff821415611a1657611a1561192a565b5b600182019050919050565b7f4e487b7100000000000000000000000000000000000000000000000000000000600052602260045260246000fd5b60006002820490506001821680611a6857607f821691505b60208210811415611a7c57611a7b611a21565b5b50919050565b7f4f776e61626c653a2063616c6c6572206973206e6f7420746865206f776e6572600082015250565b6000611ab8602083611415565b9150611ac382611a82565b602082019050919050565b60006020820190508181036000830152611ae781611aab565b9050919050565b6000604082019050611b036000830185611539565b611b106020830184611539565b9392505050565b7f416c72656164792077686974656c697374656400000000000000000000000000600082015250565b6000611b4d601383611415565b9150611b5882611b17565b602082019050919050565b60006020820190508181036000830152611b7c81611b40565b9050919050565b7f4f776e61626c653a206e6577206f776e657220697320746865207a65726f206160008201527f6464726573730000000000000000000000000000000000000000000000000000602082015250565b6000611bdf602683611415565b9150611bea82611b83565b604082019050919050565b60006020820190508181036000830152611c0e81611bd2565b905091905056fea2646970667358221220b9a30834299fc6e7da2b6ba4b06c2ab5595f9ae21b88c9f95ca6197059b5fe1364736f6c63430008090033",
  "immutableReferences": {},
  "source": "// SPDX-License-Identifier: UNLICENSED\npragma solidity >=0.8.0;\n\nimport \"../client/node_modules/@openzeppelin/contracts/access/Ownable.sol\";\n\ncontract Voting is Ownable {\n    uint256 public winningProposalId = 0;\n    uint256 public id = 0;\n\n    address[] public whitelistAddr;\n    mapping(address => Voter) public _voter;\n\n    struct Voter {\n        bool isRegistered;\n        bool hasVoted;\n        uint votedProposalId;\n    }\n    struct Proposal {\n        string description;\n        uint voteCount;\n    }\n    Proposal[] public proposal;\n\n    enum WorkflowStatus {\n        RegisteringVoters,\n        ProposalsRegistrationStarted,\n        ProposalsRegistrationEnded,\n        VotingSessionStarted,\n        VotingSessionEnded,\n        VotesTallied\n    }\n    WorkflowStatus public Status;\n\n    event VoterRegistered(address voterAddress); \n    event WorkflowStatusChange(WorkflowStatus previousStatus, WorkflowStatus newStatus);\n    event ProposalRegistered(uint proposalId);\n    event Voted (address voter, uint proposalId);\n\n    modifier inStatus(WorkflowStatus _status) {\n        require(Status == _status, \"Invalid Status\");\n        _;\n    }\n    function getWhitelistAddr() public view returns(address[] memory){\n        return whitelistAddr;\n    }\n    function changeStatus(WorkflowStatus _newStatus) public onlyOwner() {\n        emit WorkflowStatusChange(Status, _newStatus);\n        Status = _newStatus;\n    }\n\n    function addWhitelistVoters(address _address) public onlyOwner() inStatus(WorkflowStatus.RegisteringVoters) {\n        require(!_voter[_address].isRegistered, \"Already whitelisted\");\n        whitelistAddr.push(_address);\n        _voter[_address].isRegistered = true;\n        emit VoterRegistered(_address);\n    }\n\n    function addProposal(string memory _description) public inStatus(WorkflowStatus.ProposalsRegistrationStarted) {\n        require(_voter[msg.sender].isRegistered == true, \"U are not whitelisted\");\n        proposal.push(Proposal({description: _description, voteCount: 0}));\n        emit ProposalRegistered(id);\n        id++;\n    }\n\n    function addVote(uint256 _proposalId) public inStatus(WorkflowStatus.VotingSessionStarted) {\n        require(_voter[msg.sender].isRegistered == true, \"U are not whitelisted\");\n        require(!_voter[msg.sender].hasVoted, \"U already submit a vote\");\n        proposal[_proposalId].voteCount += 1;\n        _voter[msg.sender].votedProposalId = _proposalId;\n        _voter[msg.sender].hasVoted = true;\n        emit Voted(msg.sender, _proposalId);\n    }\n\n    function searchWinner() public onlyOwner() inStatus(WorkflowStatus.VotingSessionEnded) {\n        uint256 _id;\n        uint256 _vote = 0;\n        \n        for (uint256 i; i < proposal.length; i++) {\n            if (proposal[i].voteCount > _vote) {\n                _id = i;\n                _vote = proposal[i].voteCount;\n            }\n        }\n        winningProposalId = _id;\n    }\n\n    function getWinner() public view inStatus(WorkflowStatus.VotesTallied) returns(uint) {\n        return winningProposalId;\n    }\n}",
  "sourcePath": "/Users/chinoiserie/delivery/BLOCKCHAIN/Alyra/Developpeur-Ethereum-Template/6. Dapp/defi3/contracts/Voting.sol",
  "compiler": {
    "name": "solc",
    "version": "0.8.9+commit.e5eed63a.Emscripten.clang"
  },
  "schemaVersion": "3.4.1",
  "updatedAt": "2022-01-29T13:33:56.928Z",
  "networkType": "ethereum",
  "devdoc": {
    "kind": "dev",
    "methods": {
      "owner()": {
        "details": "Returns the address of the current owner."
      },
      "renounceOwnership()": {
        "details": "Leaves the contract without owner. It will not be possible to call `onlyOwner` functions anymore. Can only be called by the current owner. NOTE: Renouncing ownership will leave the contract without an owner, thereby removing any functionality that is only available to the owner."
      },
      "transferOwnership(address)": {
        "details": "Transfers ownership of the contract to a new account (`newOwner`). Can only be called by the current owner."
      }
    },
    "version": 1
  },
  "userdoc": {
    "kind": "user",
    "methods": {},
    "version": 1
  }
}