{
  "contractName": "Voting",
  "abi": [
    {
      "anonymous": false,
      "inputs": [
        {
          "indexed": true,
          "internalType": "address",
          "name": "previousOwner",
          "type": "address"
        },
        {
          "indexed": true,
          "internalType": "address",
          "name": "newOwner",
          "type": "address"
        }
      ],
      "name": "OwnershipTransferred",
      "type": "event"
    },
    {
      "anonymous": false,
      "inputs": [
        {
          "indexed": false,
          "internalType": "uint256",
          "name": "proposalId",
          "type": "uint256"
        }
      ],
      "name": "ProposalRegistered",
      "type": "event"
    },
    {
      "anonymous": false,
      "inputs": [
        {
          "indexed": false,
          "internalType": "address",
          "name": "voter",
          "type": "address"
        },
        {
          "indexed": false,
          "internalType": "uint256",
          "name": "proposalId",
          "type": "uint256"
        }
      ],
      "name": "Voted",
      "type": "event"
    },
    {
      "anonymous": false,
      "inputs": [
        {
          "indexed": false,
          "internalType": "address",
          "name": "voterAddress",
          "type": "address"
        }
      ],
      "name": "VoterRegistered",
      "type": "event"
    },
    {
      "anonymous": false,
      "inputs": [
        {
          "indexed": false,
          "internalType": "enum Voting.WorkflowStatus",
          "name": "previousStatus",
          "type": "uint8"
        },
        {
          "indexed": false,
          "internalType": "enum Voting.WorkflowStatus",
          "name": "newStatus",
          "type": "uint8"
        }
      ],
      "name": "WorkflowStatusChange",
      "type": "event"
    },
    {
      "inputs": [],
      "name": "Status",
      "outputs": [
        {
          "internalType": "enum Voting.WorkflowStatus",
          "name": "",
          "type": "uint8"
        }
      ],
      "stateMutability": "view",
      "type": "function",
      "constant": true
    },
    {
      "inputs": [],
      "name": "owner",
      "outputs": [
        {
          "internalType": "address",
          "name": "",
          "type": "address"
        }
      ],
      "stateMutability": "view",
      "type": "function",
      "constant": true
    },
    {
      "inputs": [
        {
          "internalType": "uint256",
          "name": "",
          "type": "uint256"
        }
      ],
      "name": "proposal",
      "outputs": [
        {
          "internalType": "string",
          "name": "description",
          "type": "string"
        },
        {
          "internalType": "uint256",
          "name": "voteCount",
          "type": "uint256"
        }
      ],
      "stateMutability": "view",
      "type": "function",
      "constant": true
    },
    {
      "inputs": [],
      "name": "renounceOwnership",
      "outputs": [],
      "stateMutability": "nonpayable",
      "type": "function"
    },
    {
      "inputs": [
        {
          "internalType": "address",
          "name": "newOwner",
          "type": "address"
        }
      ],
      "name": "transferOwnership",
      "outputs": [],
      "stateMutability": "nonpayable",
      "type": "function"
    },
    {
      "inputs": [],
      "name": "winningProposalId",
      "outputs": [
        {
          "internalType": "uint256",
          "name": "",
          "type": "uint256"
        }
      ],
      "stateMutability": "view",
      "type": "function",
      "constant": true
    },
    {
      "inputs": [
        {
          "internalType": "enum Voting.WorkflowStatus",
          "name": "_newStatus",
          "type": "uint8"
        }
      ],
      "name": "changeStatus",
      "outputs": [],
      "stateMutability": "nonpayable",
      "type": "function"
    },
    {
      "inputs": [],
      "name": "currentStatus",
      "outputs": [
        {
          "internalType": "enum Voting.WorkflowStatus",
          "name": "",
          "type": "uint8"
        }
      ],
      "stateMutability": "view",
      "type": "function",
      "constant": true
    },
    {
      "inputs": [
        {
          "internalType": "address",
          "name": "_address",
          "type": "address"
        }
      ],
      "name": "getWhitelistVoters",
      "outputs": [],
      "stateMutability": "nonpayable",
      "type": "function"
    },
    {
      "inputs": [
        {
          "internalType": "string",
          "name": "_description",
          "type": "string"
        }
      ],
      "name": "addProposal",
      "outputs": [],
      "stateMutability": "nonpayable",
      "type": "function"
    },
    {
      "inputs": [
        {
          "internalType": "uint256",
          "name": "_proposalId",
          "type": "uint256"
        }
      ],
      "name": "addVote",
      "outputs": [],
      "stateMutability": "nonpayable",
      "type": "function"
    },
    {
      "inputs": [],
      "name": "searchWinner",
      "outputs": [],
      "stateMutability": "nonpayable",
      "type": "function"
    },
    {
      "inputs": [],
      "name": "getWinner",
      "outputs": [
        {
          "internalType": "uint256",
          "name": "",
          "type": "uint256"
        }
      ],
      "stateMutability": "view",
      "type": "function",
      "constant": true
    }
  ],
  "bytecode": "0x60806040526000600155600060025534801561001a57600080fd5b5061004961003561004e640100000000026401000000009004565b610056640100000000026401000000009004565b61011a565b600033905090565b60008060009054906101000a900473ffffffffffffffffffffffffffffffffffffffff169050816000806101000a81548173ffffffffffffffffffffffffffffffffffffffff021916908373ffffffffffffffffffffffffffffffffffffffff1602179055508173ffffffffffffffffffffffffffffffffffffffff168173ffffffffffffffffffffffffffffffffffffffff167f8be0079c531659141344cd1fd0a4f28419497f9722a3daafe3b4186f6b6457e060405160405180910390a35050565b611a8c806101296000396000f3fe608060405234801561001057600080fd5b50600436106100ec576000357c010000000000000000000000000000000000000000000000000000000090048063715018a6116100a957806395bc95381161008357806395bc9538146101e4578063c64963c514610200578063ef8a92351461021e578063f2fde38b1461023c576100ec565b8063715018a61461019e5780638da5cb5b146101a85780638e7ea5b2146101c6576100ec565b80630383badc146100f15780632ebcd2c41461010d5780632fdae3c51461012957806330326c1714610145578063382018451461017657806345f09ce914610180575b600080fd5b61010b6004803603810190610106919061137e565b610258565b005b610127600480360381019061012291906112eb565b61053c565b005b610143600480360381019061013e919061133d565b610802565b005b61015f600480360381019061015a919061137e565b610a40565b60405161016d92919061163b565b60405180910390f35b61017e610afc565b005b610188610d17565b60405161019591906115f7565b60405180910390f35b6101a6610d2a565b005b6101b0610db2565b6040516101bd91906115b3565b60405180910390f35b6101ce610ddb565b6040516101db919061172b565b60405180910390f35b6101fe60048036038101906101f99190611314565b610ea9565b005b610208610fc0565b604051610215919061172b565b60405180910390f35b610226610fc6565b60405161023391906115f7565b60405180910390f35b610256600480360381019061025191906112eb565b610fdd565b005b6003806005811115610293577f4e487b7100000000000000000000000000000000000000000000000000000000600052602160045260246000fd5b600560009054906101000a900460ff1660058111156102db577f4e487b7100000000000000000000000000000000000000000000000000000000600052602160045260246000fd5b1461031b576040517f08c379a00000000000000000000000000000000000000000000000000000000081526004016103129061168b565b60405180910390fd5b60011515600360003373ffffffffffffffffffffffffffffffffffffffff1673ffffffffffffffffffffffffffffffffffffffff16815260200190815260200160002060000160009054906101000a900460ff161515146103b1576040517f08c379a00000000000000000000000000000000000000000000000000000000081526004016103a89061170b565b60405180910390fd5b600360003373ffffffffffffffffffffffffffffffffffffffff1673ffffffffffffffffffffffffffffffffffffffff16815260200190815260200160002060000160019054906101000a900460ff1615610441576040517f08c379a0000000000000000000000000000000000000000000000000000000008152600401610438906116ab565b60405180910390fd5b60016004838154811061047d577f4e487b7100000000000000000000000000000000000000000000000000000000600052603260045260246000fd5b9060005260206000209060020201600101600082825461049d91906117c3565b925050819055506001600360003373ffffffffffffffffffffffffffffffffffffffff1673ffffffffffffffffffffffffffffffffffffffff16815260200190815260200160002060000160016101000a81548160ff0219169083151502179055507f4d99b957a2bc29a30ebd96a7be8e68fe50a3c701db28a91436490b7d53870ca433836040516105309291906115ce565b60405180910390a15050565b6105446110d5565b73ffffffffffffffffffffffffffffffffffffffff16610562610db2565b73ffffffffffffffffffffffffffffffffffffffff16146105b8576040517f08c379a00000000000000000000000000000000000000000000000000000000081526004016105af906116cb565b60405180910390fd5b60008060058111156105f3577f4e487b7100000000000000000000000000000000000000000000000000000000600052602160045260246000fd5b600560009054906101000a900460ff16600581111561063b577f4e487b7100000000000000000000000000000000000000000000000000000000600052602160045260246000fd5b1461067b576040517f08c379a00000000000000000000000000000000000000000000000000000000081526004016106729061168b565b60405180910390fd5b600360008373ffffffffffffffffffffffffffffffffffffffff1673ffffffffffffffffffffffffffffffffffffffff16815260200190815260200160002060000160009054906101000a900460ff161561070b576040517f08c379a0000000000000000000000000000000000000000000000000000000008152600401610702906116eb565b60405180910390fd5b6001600360008473ffffffffffffffffffffffffffffffffffffffff1673ffffffffffffffffffffffffffffffffffffffff16815260200190815260200160002060000160006101000a81548160ff02191690831515021790555060026000815480929190610779906118ee565b9190505550600254600360008473ffffffffffffffffffffffffffffffffffffffff1673ffffffffffffffffffffffffffffffffffffffff168152602001908152602001600020600101819055507fb6be2187d059cc2a55fe29e0e503b566e1e0f8c8780096e185429350acffd3dd826040516107f691906115b3565b60405180910390a15050565b600180600581111561083d577f4e487b7100000000000000000000000000000000000000000000000000000000600052602160045260246000fd5b600560009054906101000a900460ff166005811115610885577f4e487b7100000000000000000000000000000000000000000000000000000000600052602160045260246000fd5b146108c5576040517f08c379a00000000000000000000000000000000000000000000000000000000081526004016108bc9061168b565b60405180910390fd5b60011515600360003373ffffffffffffffffffffffffffffffffffffffff1673ffffffffffffffffffffffffffffffffffffffff16815260200190815260200160002060000160009054906101000a900460ff1615151461095b576040517f08c379a00000000000000000000000000000000000000000000000000000000081526004016109529061170b565b60405180910390fd5b6000600360003373ffffffffffffffffffffffffffffffffffffffff1673ffffffffffffffffffffffffffffffffffffffff168152602001908152602001600020600101549050826004600254815481106109df577f4e487b7100000000000000000000000000000000000000000000000000000000600052603260045260246000fd5b90600052602060002090600202016000019080519060200190610a039291906111a1565b507f92e393e9b54e2f801d3ea4beb0c5e71a21cc34a5d34b77d0fb8a3aa1650dc18f81604051610a33919061172b565b60405180910390a1505050565b60048181548110610a5057600080fd5b9060005260206000209060020201600091509050806000018054610a73906118bc565b80601f0160208091040260200160405190810160405280929190818152602001828054610a9f906118bc565b8015610aec5780601f10610ac157610100808354040283529160200191610aec565b820191906000526020600020905b815481529060010190602001808311610acf57829003601f168201915b5050505050908060010154905082565b610b046110d5565b73ffffffffffffffffffffffffffffffffffffffff16610b22610db2565b73ffffffffffffffffffffffffffffffffffffffff1614610b78576040517f08c379a0000000000000000000000000000000000000000000000000000000008152600401610b6f906116cb565b60405180910390fd5b6004806005811115610bb3577f4e487b7100000000000000000000000000000000000000000000000000000000600052602160045260246000fd5b600560009054906101000a900460ff166005811115610bfb577f4e487b7100000000000000000000000000000000000000000000000000000000600052602160045260246000fd5b14610c3b576040517f08c379a0000000000000000000000000000000000000000000000000000000008152600401610c329061168b565b60405180910390fd5b6000806000905060005b600480549050811015610d0a578160048281548110610c8d577f4e487b7100000000000000000000000000000000000000000000000000000000600052603260045260246000fd5b9060005260206000209060020201600101541115610cf75780925060048181548110610ce2577f4e487b7100000000000000000000000000000000000000000000000000000000600052603260045260246000fd5b90600052602060002090600202016001015491505b8080610d02906118ee565b915050610c45565b5081600181905550505050565b600560009054906101000a900460ff1681565b610d326110d5565b73ffffffffffffffffffffffffffffffffffffffff16610d50610db2565b73ffffffffffffffffffffffffffffffffffffffff1614610da6576040517f08c379a0000000000000000000000000000000000000000000000000000000008152600401610d9d906116cb565b60405180910390fd5b610db060006110dd565b565b60008060009054906101000a900473ffffffffffffffffffffffffffffffffffffffff16905090565b60006005806005811115610e18577f4e487b7100000000000000000000000000000000000000000000000000000000600052602160045260246000fd5b600560009054906101000a900460ff166005811115610e60577f4e487b7100000000000000000000000000000000000000000000000000000000600052602160045260246000fd5b14610ea0576040517f08c379a0000000000000000000000000000000000000000000000000000000008152600401610e979061168b565b60405180910390fd5b60015491505090565b610eb16110d5565b73ffffffffffffffffffffffffffffffffffffffff16610ecf610db2565b73ffffffffffffffffffffffffffffffffffffffff1614610f25576040517f08c379a0000000000000000000000000000000000000000000000000000000008152600401610f1c906116cb565b60405180910390fd5b7f0a97a4ee45751e2abf3e4fc8946939630b11b371ea8ae39ccdc3056e98f5cc3f600560009054906101000a900460ff1682604051610f65929190611612565b60405180910390a180600560006101000a81548160ff02191690836005811115610fb8577f4e487b7100000000000000000000000000000000000000000000000000000000600052602160045260246000fd5b021790555050565b60015481565b6000600560009054906101000a900460ff16905090565b610fe56110d5565b73ffffffffffffffffffffffffffffffffffffffff16611003610db2565b73ffffffffffffffffffffffffffffffffffffffff1614611059576040517f08c379a0000000000000000000000000000000000000000000000000000000008152600401611050906116cb565b60405180910390fd5b600073ffffffffffffffffffffffffffffffffffffffff168173ffffffffffffffffffffffffffffffffffffffff1614156110c9576040517f08c379a00000000000000000000000000000000000000000000000000000000081526004016110c09061166b565b60405180910390fd5b6110d2816110dd565b50565b600033905090565b60008060009054906101000a900473ffffffffffffffffffffffffffffffffffffffff169050816000806101000a81548173ffffffffffffffffffffffffffffffffffffffff021916908373ffffffffffffffffffffffffffffffffffffffff1602179055508173ffffffffffffffffffffffffffffffffffffffff168173ffffffffffffffffffffffffffffffffffffffff167f8be0079c531659141344cd1fd0a4f28419497f9722a3daafe3b4186f6b6457e060405160405180910390a35050565b8280546111ad906118bc565b90600052602060002090601f0160209004810192826111cf5760008555611216565b82601f106111e857805160ff1916838001178555611216565b82800160010185558215611216579182015b828111156112155782518255916020019190600101906111fa565b5b5090506112239190611227565b5090565b5b80821115611240576000816000905550600101611228565b5090565b600061125761125284611777565b611746565b90508281526020810184848401111561126f57600080fd5b61127a84828561187a565b509392505050565b60008135905061129181611a18565b92915050565b6000813590506112a681611a2f565b92915050565b600082601f8301126112bd57600080fd5b81356112cd848260208601611244565b91505092915050565b6000813590506112e581611a3f565b92915050565b6000602082840312156112fd57600080fd5b600061130b84828501611282565b91505092915050565b60006020828403121561132657600080fd5b600061133484828501611297565b91505092915050565b60006020828403121561134f57600080fd5b600082013567ffffffffffffffff81111561136957600080fd5b611375848285016112ac565b91505092915050565b60006020828403121561139057600080fd5b600061139e848285016112d6565b91505092915050565b6113b081611819565b82525050565b6113bf81611868565b82525050565b60006113d0826117a7565b6113da81856117b2565b93506113ea818560208601611889565b6113f3816119f3565b840191505092915050565b600061140b6026836117b2565b91507f4f776e61626c653a206e6577206f776e657220697320746865207a65726f206160008301527f64647265737300000000000000000000000000000000000000000000000000006020830152604082019050919050565b6000611471600e836117b2565b91507f496e76616c6964205374617475730000000000000000000000000000000000006000830152602082019050919050565b60006114b16017836117b2565b91507f5520616c7265616479207375626d6974206120766f74650000000000000000006000830152602082019050919050565b60006114f16020836117b2565b91507f4f776e61626c653a2063616c6c6572206973206e6f7420746865206f776e65726000830152602082019050919050565b60006115316013836117b2565b91507f416c72656164792077686974656c6973746564000000000000000000000000006000830152602082019050919050565b60006115716015836117b2565b91507f5520617265206e6f742077686974656c697374656400000000000000000000006000830152602082019050919050565b6115ad8161185e565b82525050565b60006020820190506115c860008301846113a7565b92915050565b60006040820190506115e360008301856113a7565b6115f060208301846115a4565b9392505050565b600060208201905061160c60008301846113b6565b92915050565b600060408201905061162760008301856113b6565b61163460208301846113b6565b9392505050565b6000604082019050818103600083015261165581856113c5565b905061166460208301846115a4565b9392505050565b60006020820190508181036000830152611684816113fe565b9050919050565b600060208201905081810360008301526116a481611464565b9050919050565b600060208201905081810360008301526116c4816114a4565b9050919050565b600060208201905081810360008301526116e4816114e4565b9050919050565b6000602082019050818103600083015261170481611524565b9050919050565b6000602082019050818103600083015261172481611564565b9050919050565b600060208201905061174060008301846115a4565b92915050565b6000604051905081810181811067ffffffffffffffff8211171561176d5761176c6119c4565b5b8060405250919050565b600067ffffffffffffffff821115611792576117916119c4565b5b601f19601f8301169050602081019050919050565b600081519050919050565b600082825260208201905092915050565b60006117ce8261185e565b91506117d98361185e565b9250827fffffffffffffffffffffffffffffffffffffffffffffffffffffffffffffffff0382111561180e5761180d611937565b5b828201905092915050565b60006118248261183e565b9050919050565b600081905061183982611a04565b919050565b600073ffffffffffffffffffffffffffffffffffffffff82169050919050565b6000819050919050565b60006118738261182b565b9050919050565b82818337600083830152505050565b60005b838110156118a757808201518184015260208101905061188c565b838111156118b6576000848401525b50505050565b600060028204905060018216806118d457607f821691505b602082108114156118e8576118e7611995565b5b50919050565b60006118f98261185e565b91507fffffffffffffffffffffffffffffffffffffffffffffffffffffffffffffffff82141561192c5761192b611937565b5b600182019050919050565b7f4e487b7100000000000000000000000000000000000000000000000000000000600052601160045260246000fd5b7f4e487b7100000000000000000000000000000000000000000000000000000000600052602160045260246000fd5b7f4e487b7100000000000000000000000000000000000000000000000000000000600052602260045260246000fd5b7f4e487b7100000000000000000000000000000000000000000000000000000000600052604160045260246000fd5b6000601f19601f8301169050919050565b60068110611a1557611a14611966565b5b50565b611a2181611819565b8114611a2c57600080fd5b50565b60068110611a3c57600080fd5b50565b611a488161185e565b8114611a5357600080fd5b5056fea26469706673582212206aca9e8c337dc818e3ae9d4f3787043a852f47e272013c9168523b9ebd099dfc64736f6c63430008000033",
  "immutableReferences": {},
  "source": "// SPDX-License-Identifier: UNLICENSED\npragma solidity >=0.8.0;\n\nimport \"../../../openzeppelin-contracts/contracts/access/Ownable.sol\";\n\ncontract Voting is Ownable {\n    uint256 public winningProposalId = 0;\n    uint256 private id = 0;\n\n    mapping(address => Voter) private _voter;\n\n    struct Voter {\n        bool isRegistered;\n        bool hasVoted;\n        uint votedProposalId;\n    }\n    struct Proposal {\n        string description;\n        uint voteCount;\n    }\n    Proposal[] public proposal;\n\n    enum WorkflowStatus {\n        RegisteringVoters,\n        ProposalsRegistrationStarted,\n        ProposalsRegistrationEnded,\n        VotingSessionStarted,\n        VotingSessionEnded,\n        VotesTallied\n    }\n    WorkflowStatus public Status;\n    modifier inStatus(WorkflowStatus _status) {\n        require(Status == _status, \"Invalid Status\");\n        _;\n    }\n    function changeStatus(WorkflowStatus _newStatus) public onlyOwner() {\n        emit WorkflowStatusChange(Status, _newStatus);\n        Status = _newStatus;\n    }\n    function currentStatus() public view returns(WorkflowStatus) {\n        return Status;\n    }\n\n    event VoterRegistered(address voterAddress); \n    event WorkflowStatusChange(WorkflowStatus previousStatus, WorkflowStatus newStatus);\n    event ProposalRegistered(uint proposalId);\n    event Voted (address voter, uint proposalId);   \n\n    function getWhitelistVoters(address _address) public onlyOwner() inStatus(WorkflowStatus.RegisteringVoters) {\n        require(!_voter[_address].isRegistered, \"Already whitelisted\");\n        _voter[_address].isRegistered = true;\n        id++;\n        _voter[_address].votedProposalId = id;\n        emit VoterRegistered(_address);\n    }\n\n    function addProposal(string memory _description) public inStatus(WorkflowStatus.ProposalsRegistrationStarted) {\n        require(_voter[msg.sender].isRegistered == true, \"U are not whitelisted\");\n        uint256 _id = _voter[msg.sender].votedProposalId;\n        proposal[id].description = _description;\n        emit  ProposalRegistered(_id);\n    }\n\n    function addVote(uint256 _proposalId) public inStatus(WorkflowStatus.VotingSessionStarted) {\n        require(_voter[msg.sender].isRegistered == true, \"U are not whitelisted\");\n        require(!_voter[msg.sender].hasVoted, \"U already submit a vote\");\n        proposal[_proposalId].voteCount += 1;\n        _voter[msg.sender].hasVoted = true;\n        emit Voted(msg.sender, _proposalId);\n    }\n\n    function searchWinner() public onlyOwner() inStatus(WorkflowStatus.VotingSessionEnded) {\n        uint256 _id;\n        uint256 _vote = 0;\n        \n        for (uint256 i; i < proposal.length; i++) {\n            if (proposal[i].voteCount > _vote) {\n                _id = i;\n                _vote = proposal[i].voteCount;\n            }\n        }\n        winningProposalId = _id;\n    }\n\n    function getWinner() public view inStatus(WorkflowStatus.VotesTallied) returns(uint) {\n        return winningProposalId;\n    }\n}",
  "sourcePath": "/Users/chinoiserie/delivery/BLOCKCHAIN/Alyra/Developpeur-Ethereum-Template/3. Solidity/contracts/Voting.sol",
  "compiler": {
    "name": "solc",
    "version": "0.8.0+commit.c7dfd78e.Emscripten.clang"
  },
  "schemaVersion": "3.4.1",
  "updatedAt": "2021-12-15T19:26:39.192Z",
  "networkType": "ethereum",
  "devdoc": {
    "kind": "dev",
    "methods": {
      "owner()": {
        "details": "Returns the address of the current owner."
      },
      "renounceOwnership()": {
        "details": "Leaves the contract without owner. It will not be possible to call `onlyOwner` functions anymore. Can only be called by the current owner. NOTE: Renouncing ownership will leave the contract without an owner, thereby removing any functionality that is only available to the owner."
      },
      "transferOwnership(address)": {
        "details": "Transfers ownership of the contract to a new account (`newOwner`). Can only be called by the current owner."
      }
    },
    "version": 1
  },
  "userdoc": {
    "kind": "user",
    "methods": {},
    "version": 1
  }
}