{
  "contractName": "MyERC20",
  "abi": [
    {
      "inputs": [],
      "stateMutability": "nonpayable",
      "type": "constructor"
    },
    {
      "anonymous": false,
      "inputs": [
        {
          "indexed": true,
          "internalType": "address",
          "name": "_owner",
          "type": "address"
        },
        {
          "indexed": true,
          "internalType": "address",
          "name": "_spender",
          "type": "address"
        },
        {
          "indexed": false,
          "internalType": "uint256",
          "name": "_value",
          "type": "uint256"
        }
      ],
      "name": "Approval",
      "type": "event"
    },
    {
      "anonymous": false,
      "inputs": [
        {
          "indexed": true,
          "internalType": "address",
          "name": "_from",
          "type": "address"
        },
        {
          "indexed": true,
          "internalType": "address",
          "name": "_to",
          "type": "address"
        },
        {
          "indexed": false,
          "internalType": "uint256",
          "name": "_value",
          "type": "uint256"
        }
      ],
      "name": "Transfer",
      "type": "event"
    },
    {
      "inputs": [
        {
          "internalType": "address",
          "name": "",
          "type": "address"
        },
        {
          "internalType": "address",
          "name": "",
          "type": "address"
        }
      ],
      "name": "allowance",
      "outputs": [
        {
          "internalType": "uint256",
          "name": "",
          "type": "uint256"
        }
      ],
      "stateMutability": "view",
      "type": "function",
      "constant": true
    },
    {
      "inputs": [],
      "name": "authorizedContract",
      "outputs": [
        {
          "internalType": "address",
          "name": "",
          "type": "address"
        }
      ],
      "stateMutability": "view",
      "type": "function",
      "constant": true
    },
    {
      "inputs": [
        {
          "internalType": "address",
          "name": "",
          "type": "address"
        }
      ],
      "name": "balanceOf",
      "outputs": [
        {
          "internalType": "uint256",
          "name": "",
          "type": "uint256"
        }
      ],
      "stateMutability": "view",
      "type": "function",
      "constant": true
    },
    {
      "inputs": [],
      "name": "decimals",
      "outputs": [
        {
          "internalType": "uint256",
          "name": "",
          "type": "uint256"
        }
      ],
      "stateMutability": "view",
      "type": "function",
      "constant": true
    },
    {
      "inputs": [],
      "name": "name",
      "outputs": [
        {
          "internalType": "string",
          "name": "",
          "type": "string"
        }
      ],
      "stateMutability": "view",
      "type": "function",
      "constant": true
    },
    {
      "inputs": [],
      "name": "owner",
      "outputs": [
        {
          "internalType": "address",
          "name": "",
          "type": "address"
        }
      ],
      "stateMutability": "view",
      "type": "function",
      "constant": true
    },
    {
      "inputs": [],
      "name": "symbol",
      "outputs": [
        {
          "internalType": "string",
          "name": "",
          "type": "string"
        }
      ],
      "stateMutability": "view",
      "type": "function",
      "constant": true
    },
    {
      "inputs": [],
      "name": "totalSupply",
      "outputs": [
        {
          "internalType": "uint256",
          "name": "",
          "type": "uint256"
        }
      ],
      "stateMutability": "view",
      "type": "function",
      "constant": true
    },
    {
      "inputs": [
        {
          "internalType": "address",
          "name": "_to",
          "type": "address"
        },
        {
          "internalType": "uint256",
          "name": "_value",
          "type": "uint256"
        }
      ],
      "name": "transfer",
      "outputs": [
        {
          "internalType": "bool",
          "name": "success",
          "type": "bool"
        }
      ],
      "stateMutability": "nonpayable",
      "type": "function"
    },
    {
      "inputs": [
        {
          "internalType": "address",
          "name": "_spender",
          "type": "address"
        },
        {
          "internalType": "uint256",
          "name": "_value",
          "type": "uint256"
        }
      ],
      "name": "approve",
      "outputs": [
        {
          "internalType": "bool",
          "name": "success",
          "type": "bool"
        }
      ],
      "stateMutability": "nonpayable",
      "type": "function"
    },
    {
      "inputs": [
        {
          "internalType": "address",
          "name": "_from",
          "type": "address"
        },
        {
          "internalType": "address",
          "name": "_to",
          "type": "address"
        },
        {
          "internalType": "uint256",
          "name": "_value",
          "type": "uint256"
        }
      ],
      "name": "transferFrom",
      "outputs": [
        {
          "internalType": "bool",
          "name": "success",
          "type": "bool"
        }
      ],
      "stateMutability": "nonpayable",
      "type": "function"
    },
    {
      "inputs": [
        {
          "internalType": "address",
          "name": "_to",
          "type": "address"
        },
        {
          "internalType": "uint256",
          "name": "_amount",
          "type": "uint256"
        }
      ],
      "name": "sendReward",
      "outputs": [
        {
          "internalType": "bool",
          "name": "succes",
          "type": "bool"
        }
      ],
      "stateMutability": "nonpayable",
      "type": "function"
    },
    {
      "inputs": [
        {
          "internalType": "address",
          "name": "_contract",
          "type": "address"
        }
      ],
      "name": "setAutorizedContract",
      "outputs": [],
      "stateMutability": "nonpayable",
      "type": "function"
    },
    {
      "inputs": [
        {
          "internalType": "address",
          "name": "_newOwner",
          "type": "address"
        }
      ],
      "name": "setOwner",
      "outputs": [],
      "stateMutability": "nonpayable",
      "type": "function"
    }
  ],
  "bytecode": "0x60806040526040518060400160405280600c81526020017f72657761726420746f6b656e0000000000000000000000000000000000000000815250600090805190602001906200005192919062000102565b506040518060400160405280600281526020017f5254000000000000000000000000000000000000000000000000000000000000815250600190805190602001906200009f92919062000102565b506012600255348015620000b257600080fd5b5033600560006101000a81548173ffffffffffffffffffffffffffffffffffffffff021916908373ffffffffffffffffffffffffffffffffffffffff160217905550600060038190555062000217565b8280546200011090620001e1565b90600052602060002090601f01602090048101928262000134576000855562000180565b82601f106200014f57805160ff191683800117855562000180565b8280016001018555821562000180579182015b828111156200017f57825182559160200191906001019062000162565b5b5090506200018f919062000193565b5090565b5b80821115620001ae57600081600090555060010162000194565b5090565b7f4e487b7100000000000000000000000000000000000000000000000000000000600052602260045260246000fd5b60006002820490506001821680620001fa57607f821691505b60208210811415620002115762000210620001b2565b5b50919050565b6116a180620002276000396000f3fe608060405234801561001057600080fd5b5060043610610107576000357c01000000000000000000000000000000000000000000000000000000009004806370a08231116100a9578063a6591cdf11610083578063a6591cdf1461027e578063a9059cbb1461029c578063b927a2cc146102cc578063dd62ed3e146102e857610107565b806370a08231146102125780638da5cb5b1461024257806395d89b411461026057610107565b806313af4035116100e557806313af40351461018a57806318160ddd146101a657806323b872dd146101c4578063313ce567146101f457610107565b806306fdde031461010c57806307420a411461012a578063095ea7b31461015a575b600080fd5b610114610318565b6040516101219190611084565b60405180910390f35b610144600480360381019061013f919061113f565b6103a6565b604051610151919061119a565b60405180910390f35b610174600480360381019061016f919061113f565b6104c8565b604051610181919061119a565b60405180910390f35b6101a4600480360381019061019f91906111b5565b610629565b005b6101ae6106fd565b6040516101bb91906111f1565b60405180910390f35b6101de60048036038101906101d9919061120c565b610703565b6040516101eb919061119a565b60405180910390f35b6101fc6109ca565b60405161020991906111f1565b60405180910390f35b61022c600480360381019061022791906111b5565b6109d0565b60405161023991906111f1565b60405180910390f35b61024a6109e8565b604051610257919061126e565b60405180910390f35b610268610a0e565b6040516102759190611084565b60405180910390f35b610286610a9c565b604051610293919061126e565b60405180910390f35b6102b660048036038101906102b1919061113f565b610ac2565b6040516102c3919061119a565b60405180910390f35b6102e660048036038101906102e191906111b5565b610ad9565b005b61030260048036038101906102fd9190611289565b610bad565b60405161030f91906111f1565b60405180910390f35b60008054610325906112f8565b80601f0160208091040260200160405190810160405280929190818152602001828054610351906112f8565b801561039e5780601f106103735761010080835404028352916020019161039e565b820191906000526020600020905b81548152906001019060200180831161038157829003601f168201915b505050505081565b60008073ffffffffffffffffffffffffffffffffffffffff168373ffffffffffffffffffffffffffffffffffffffff16141580156103e45750600082115b610423576040517f08c379a000000000000000000000000000000000000000000000000000000000815260040161041a90611376565b60405180910390fd5b600460009054906101000a900473ffffffffffffffffffffffffffffffffffffffff1673ffffffffffffffffffffffffffffffffffffffff163373ffffffffffffffffffffffffffffffffffffffff16146104b3576040517f08c379a00000000000000000000000000000000000000000000000000000000081526004016104aa906113e2565b60405180910390fd5b6104bd8383610bd2565b506001905092915050565b60008073ffffffffffffffffffffffffffffffffffffffff168373ffffffffffffffffffffffffffffffffffffffff161415610539576040517f08c379a00000000000000000000000000000000000000000000000000000000081526004016105309061144e565b60405180910390fd5b81600760003373ffffffffffffffffffffffffffffffffffffffff1673ffffffffffffffffffffffffffffffffffffffff16815260200190815260200160002060008573ffffffffffffffffffffffffffffffffffffffff1673ffffffffffffffffffffffffffffffffffffffff168152602001908152602001600020819055508273ffffffffffffffffffffffffffffffffffffffff163373ffffffffffffffffffffffffffffffffffffffff167f8c5be1e5ebec7d5bd14f71427d1e84f3dd0314c0f7b2291e5b200ac8c7c3b9258460405161061791906111f1565b60405180910390a36001905092915050565b600560009054906101000a900473ffffffffffffffffffffffffffffffffffffffff1673ffffffffffffffffffffffffffffffffffffffff163373ffffffffffffffffffffffffffffffffffffffff16146106b9576040517f08c379a00000000000000000000000000000000000000000000000000000000081526004016106b0906114ba565b60405180910390fd5b80600560006101000a81548173ffffffffffffffffffffffffffffffffffffffff021916908373ffffffffffffffffffffffffffffffffffffffff16021790555050565b60035481565b600081600760008673ffffffffffffffffffffffffffffffffffffffff1673ffffffffffffffffffffffffffffffffffffffff16815260200190815260200160002060003373ffffffffffffffffffffffffffffffffffffffff1673ffffffffffffffffffffffffffffffffffffffff1681526020019081526020016000205410156107c4576040517f08c379a00000000000000000000000000000000000000000000000000000000081526004016107bb90611526565b60405180910390fd5b6107cf848484610d6f565b61085e82600760008773ffffffffffffffffffffffffffffffffffffffff1673ffffffffffffffffffffffffffffffffffffffff16815260200190815260200160002060003373ffffffffffffffffffffffffffffffffffffffff1673ffffffffffffffffffffffffffffffffffffffff16815260200190815260200160002054610fbf90919063ffffffff16565b600760008673ffffffffffffffffffffffffffffffffffffffff1673ffffffffffffffffffffffffffffffffffffffff16815260200190815260200160002060003373ffffffffffffffffffffffffffffffffffffffff1673ffffffffffffffffffffffffffffffffffffffff168152602001908152602001600020819055503373ffffffffffffffffffffffffffffffffffffffff168473ffffffffffffffffffffffffffffffffffffffff167f8c5be1e5ebec7d5bd14f71427d1e84f3dd0314c0f7b2291e5b200ac8c7c3b925600760008873ffffffffffffffffffffffffffffffffffffffff1673ffffffffffffffffffffffffffffffffffffffff16815260200190815260200160002060003373ffffffffffffffffffffffffffffffffffffffff1673ffffffffffffffffffffffffffffffffffffffff168152602001908152602001600020546040516109b791906111f1565b60405180910390a3600190509392505050565b60025481565b60066020528060005260406000206000915090505481565b600560009054906101000a900473ffffffffffffffffffffffffffffffffffffffff1681565b60018054610a1b906112f8565b80601f0160208091040260200160405190810160405280929190818152602001828054610a47906112f8565b8015610a945780601f10610a6957610100808354040283529160200191610a94565b820191906000526020600020905b815481529060010190602001808311610a7757829003601f168201915b505050505081565b600460009054906101000a900473ffffffffffffffffffffffffffffffffffffffff1681565b6000610acf338484610d6f565b6001905092915050565b600560009054906101000a900473ffffffffffffffffffffffffffffffffffffffff1673ffffffffffffffffffffffffffffffffffffffff163373ffffffffffffffffffffffffffffffffffffffff1614610b69576040517f08c379a0000000000000000000000000000000000000000000000000000000008152600401610b60906114ba565b60405180910390fd5b80600460006101000a81548173ffffffffffffffffffffffffffffffffffffffff021916908373ffffffffffffffffffffffffffffffffffffffff16021790555050565b6007602052816000526040600020602052806000526040600020600091509150505481565b60008073ffffffffffffffffffffffffffffffffffffffff168373ffffffffffffffffffffffffffffffffffffffff1614158015610c105750600082115b610c4f576040517f08c379a0000000000000000000000000000000000000000000000000000000008152600401610c4690611376565b60405180910390fd5b610c6482600354610fd590919063ffffffff16565b600381905550610cbc82600660008673ffffffffffffffffffffffffffffffffffffffff1673ffffffffffffffffffffffffffffffffffffffff16815260200190815260200160002054610fd590919063ffffffff16565b600660008573ffffffffffffffffffffffffffffffffffffffff1673ffffffffffffffffffffffffffffffffffffffff168152602001908152602001600020819055508273ffffffffffffffffffffffffffffffffffffffff16600073ffffffffffffffffffffffffffffffffffffffff167fddf252ad1be2c89b69c2b068fc378daa952ba7f163c4a11628f55a4df523b3ef84604051610d5d91906111f1565b60405180910390a36001905092915050565b600073ffffffffffffffffffffffffffffffffffffffff168273ffffffffffffffffffffffffffffffffffffffff161415610da957600080fd5b80600660008573ffffffffffffffffffffffffffffffffffffffff1673ffffffffffffffffffffffffffffffffffffffff168152602001908152602001600020541015610e2b576040517f08c379a0000000000000000000000000000000000000000000000000000000008152600401610e2290611592565b60405180910390fd5b610e7d81600660008673ffffffffffffffffffffffffffffffffffffffff1673ffffffffffffffffffffffffffffffffffffffff16815260200190815260200160002054610fbf90919063ffffffff16565b600660008573ffffffffffffffffffffffffffffffffffffffff1673ffffffffffffffffffffffffffffffffffffffff16815260200190815260200160002081905550610f1281600660008573ffffffffffffffffffffffffffffffffffffffff1673ffffffffffffffffffffffffffffffffffffffff16815260200190815260200160002054610fd590919063ffffffff16565b600660008473ffffffffffffffffffffffffffffffffffffffff1673ffffffffffffffffffffffffffffffffffffffff168152602001908152602001600020819055508173ffffffffffffffffffffffffffffffffffffffff168373ffffffffffffffffffffffffffffffffffffffff167fddf252ad1be2c89b69c2b068fc378daa952ba7f163c4a11628f55a4df523b3ef83604051610fb291906111f1565b60405180910390a3505050565b60008183610fcd91906115e1565b905092915050565b60008183610fe39190611615565b905092915050565b600081519050919050565b600082825260208201905092915050565b60005b8381101561102557808201518184015260208101905061100a565b83811115611034576000848401525b50505050565b6000601f19601f8301169050919050565b600061105682610feb565b6110608185610ff6565b9350611070818560208601611007565b6110798161103a565b840191505092915050565b6000602082019050818103600083015261109e818461104b565b905092915050565b600080fd5b600073ffffffffffffffffffffffffffffffffffffffff82169050919050565b60006110d6826110ab565b9050919050565b6110e6816110cb565b81146110f157600080fd5b50565b600081359050611103816110dd565b92915050565b6000819050919050565b61111c81611109565b811461112757600080fd5b50565b60008135905061113981611113565b92915050565b60008060408385031215611156576111556110a6565b5b6000611164858286016110f4565b92505060206111758582860161112a565b9150509250929050565b60008115159050919050565b6111948161117f565b82525050565b60006020820190506111af600083018461118b565b92915050565b6000602082840312156111cb576111ca6110a6565b5b60006111d9848285016110f4565b91505092915050565b6111eb81611109565b82525050565b600060208201905061120660008301846111e2565b92915050565b600080600060608486031215611225576112246110a6565b5b6000611233868287016110f4565b9350506020611244868287016110f4565b92505060406112558682870161112a565b9150509250925092565b611268816110cb565b82525050565b6000602082019050611283600083018461125f565b92915050565b600080604083850312156112a05761129f6110a6565b5b60006112ae858286016110f4565b92505060206112bf858286016110f4565b9150509250929050565b7f4e487b7100000000000000000000000000000000000000000000000000000000600052602260045260246000fd5b6000600282049050600182168061131057607f821691505b60208210811415611324576113236112c9565b5b50919050565b7f616464726573732030206f7220616d6f756e7420696e736966756369656e7400600082015250565b6000611360601f83610ff6565b915061136b8261132a565b602082019050919050565b6000602082019050818103600083015261138f81611353565b9050919050565b7f436f6e7472616374206e6f7420617574686f72697a6564000000000000000000600082015250565b60006113cc601783610ff6565b91506113d782611396565b602082019050919050565b600060208201905081810360008301526113fb816113bf565b9050919050565b7f63616e206e6f7420626520616464726573732030000000000000000000000000600082015250565b6000611438601483610ff6565b915061144382611402565b602082019050919050565b600060208201905081810360008301526114678161142b565b9050919050565b7f5520617265206e6f7420746865206f776e657200000000000000000000000000600082015250565b60006114a4601383610ff6565b91506114af8261146e565b602082019050919050565b600060208201905081810360008301526114d381611497565b9050919050565b7f6e6f7420616c6c6f776564206f722076616c756520746f6f2068696774680000600082015250565b6000611510601e83610ff6565b915061151b826114da565b602082019050919050565b6000602082019050818103600083015261153f81611503565b9050919050565b7f6e6f7420656e6f7567746820746f6b656e20746f2073656e6400000000000000600082015250565b600061157c601983610ff6565b915061158782611546565b602082019050919050565b600060208201905081810360008301526115ab8161156f565b9050919050565b7f4e487b7100000000000000000000000000000000000000000000000000000000600052601160045260246000fd5b60006115ec82611109565b91506115f783611109565b92508282101561160a576116096115b2565b5b828203905092915050565b600061162082611109565b915061162b83611109565b9250827fffffffffffffffffffffffffffffffffffffffffffffffffffffffffffffffff038211156116605761165f6115b2565b5b82820190509291505056fea2646970667358221220356d2adcb21838dfa221ede94f6270357dc3deb410856c135e514444a6e2cf4f64736f6c63430008090033",
  "immutableReferences": {},
  "source": "// SPDX-License-Identifier: MIT\npragma solidity >=0.4.22 <0.9.0;\n\nimport \"../client/node_modules/@openzeppelin/contracts/utils/math/SafeMath.sol\";\n\ncontract MyERC20 {\n  using SafeMath for uint;\n\n  string public name = \"reward token\";\n  string public symbol = \"RT\";\n  uint256 public decimals = 18;\n  uint256 public totalSupply;\n  address public authorizedContract;\n  address public owner;\n\n  mapping(address => uint256) public balanceOf;\n  mapping(address => mapping(address => uint256)) public allowance;\n\n  event Transfer(address indexed _from, address indexed _to, uint256 _value);\n  event Approval(address indexed _owner, address indexed _spender, uint256 _value);\n\n  constructor() {\n    owner = msg.sender;\n    totalSupply = 0;\n  }\n\n  modifier onlyOwner() {\n    require(msg.sender == owner, \"U are not the owner\");\n    _;\n  }\n\n  //primary function ERC20\n  function transfer(address _to, uint256 _value) public returns (bool success) {\n    _transfer(msg.sender, _to, _value);\n    return true;\n  }\n  function _transfer(address _from, address _to, uint256 _value) internal {\n    require(_to != address(0));\n    require(balanceOf[_from] >= _value, \"not enougth token to send\");\n    balanceOf[_from] = balanceOf[_from].sub(_value);\n    balanceOf[_to] = balanceOf[_to].add(_value);\n    emit Transfer(_from, _to, _value);\n  }\n  function approve(address _spender, uint256 _value) public returns (bool success) {\n    require(_spender != address(0), \"can not be address 0\");\n    allowance[msg.sender][_spender] = _value;\n    emit Approval(msg.sender, _spender, _value);\n    return true;\n  }\n  function transferFrom(address _from, address _to, uint256 _value) public returns (bool success) {\n    require(allowance[_from][msg.sender] >= _value, \"not allowed or value too higth\");\n    _transfer(_from, _to, _value);\n    allowance[_from][msg.sender] = allowance[_from][msg.sender].sub(_value);\n    emit Approval(_from, msg.sender, allowance[_from][msg.sender]);\n    return true;\n  }\n  // function for stacking\n  function _mintReward(address _account, uint256 _amount) internal returns (bool succes) {\n    require(_account != address(0) && _amount > 0, \"address 0 or amount insifucient\");\n    totalSupply = totalSupply.add(_amount);\n    balanceOf[_account] = balanceOf[_account].add(_amount);\n    emit Transfer(address(0), _account, _amount);\n    return true;\n  }\n  function sendReward(address _to, uint256 _amount) external returns (bool succes) {\n    require(_to != address(0) && _amount > 0, \"address 0 or amount insifucient\");\n    require(msg.sender == authorizedContract, \"Contract not authorized\");\n    _mintReward(_to, _amount);\n    return true;\n  }\n  //Only Owner\n  function setAutorizedContract(address _contract) public onlyOwner() {\n    authorizedContract = _contract;\n  }\n  function setOwner(address _newOwner) external onlyOwner() {\n    owner = _newOwner;\n  }\n}",
  "sourcePath": "/Users/chinoiserie/delivery/BLOCKCHAIN/Alyra/Developpeur-Ethereum-Template/7. Finance Dcentralise/Defi4/defi4/contracts/MyERC20.sol",
  "compiler": {
    "name": "solc",
    "version": "0.8.9+commit.e5eed63a.Emscripten.clang"
  },
  "schemaVersion": "3.2.0",
  "updatedAt": "2022-02-28T15:39:01.356Z",
  "networkType": "ethereum",
  "devdoc": {
    "kind": "dev",
    "methods": {},
    "version": 1
  },
  "userdoc": {
    "kind": "user",
    "methods": {},
    "version": 1
  }
}