{
  "contractName": "Stacking",
  "abi": [
    {
      "inputs": [],
      "stateMutability": "nonpayable",
      "type": "constructor"
    },
    {
      "anonymous": false,
      "inputs": [
        {
          "indexed": false,
          "internalType": "address",
          "name": "_erc20",
          "type": "address"
        },
        {
          "indexed": false,
          "internalType": "address",
          "name": "_from",
          "type": "address"
        },
        {
          "indexed": false,
          "internalType": "uint256",
          "name": "_reward",
          "type": "uint256"
        }
      ],
      "name": "ClaimReward",
      "type": "event"
    },
    {
      "anonymous": false,
      "inputs": [
        {
          "indexed": false,
          "internalType": "address",
          "name": "_erc20",
          "type": "address"
        },
        {
          "indexed": false,
          "internalType": "address",
          "name": "_from",
          "type": "address"
        },
        {
          "indexed": false,
          "internalType": "uint256",
          "name": "_amount",
          "type": "uint256"
        }
      ],
      "name": "NewStake",
      "type": "event"
    },
    {
      "anonymous": false,
      "inputs": [
        {
          "indexed": false,
          "internalType": "address",
          "name": "_erc20",
          "type": "address"
        },
        {
          "indexed": false,
          "internalType": "address",
          "name": "_from",
          "type": "address"
        },
        {
          "indexed": false,
          "internalType": "uint256",
          "name": "_amount",
          "type": "uint256"
        }
      ],
      "name": "Unstake",
      "type": "event"
    },
    {
      "inputs": [],
      "name": "interest",
      "outputs": [
        {
          "internalType": "uint256",
          "name": "",
          "type": "uint256"
        }
      ],
      "stateMutability": "view",
      "type": "function",
      "constant": true
    },
    {
      "inputs": [],
      "name": "interestPeriod",
      "outputs": [
        {
          "internalType": "uint256",
          "name": "",
          "type": "uint256"
        }
      ],
      "stateMutability": "view",
      "type": "function",
      "constant": true
    },
    {
      "inputs": [],
      "name": "owner",
      "outputs": [
        {
          "internalType": "address",
          "name": "",
          "type": "address"
        }
      ],
      "stateMutability": "view",
      "type": "function",
      "constant": true
    },
    {
      "inputs": [
        {
          "internalType": "uint256",
          "name": "",
          "type": "uint256"
        }
      ],
      "name": "pair",
      "outputs": [
        {
          "internalType": "string",
          "name": "name",
          "type": "string"
        },
        {
          "internalType": "address",
          "name": "addrERC",
          "type": "address"
        },
        {
          "internalType": "address",
          "name": "pair",
          "type": "address"
        },
        {
          "internalType": "uint256",
          "name": "decimal",
          "type": "uint256"
        }
      ],
      "stateMutability": "view",
      "type": "function",
      "constant": true
    },
    {
      "inputs": [
        {
          "internalType": "address",
          "name": "",
          "type": "address"
        },
        {
          "internalType": "uint256",
          "name": "",
          "type": "uint256"
        }
      ],
      "name": "stake",
      "outputs": [
        {
          "internalType": "contract ERC20",
          "name": "token",
          "type": "address"
        },
        {
          "internalType": "uint256",
          "name": "depositAmount",
          "type": "uint256"
        },
        {
          "internalType": "uint256",
          "name": "timeStake",
          "type": "uint256"
        },
        {
          "internalType": "bool",
          "name": "refund",
          "type": "bool"
        }
      ],
      "stateMutability": "view",
      "type": "function",
      "constant": true
    },
    {
      "inputs": [
        {
          "internalType": "address",
          "name": "_new",
          "type": "address"
        }
      ],
      "name": "setOwner",
      "outputs": [],
      "stateMutability": "nonpayable",
      "type": "function"
    },
    {
      "inputs": [
        {
          "internalType": "address",
          "name": "_contract",
          "type": "address"
        }
      ],
      "name": "setMyToken",
      "outputs": [],
      "stateMutability": "nonpayable",
      "type": "function"
    },
    {
      "inputs": [
        {
          "internalType": "string",
          "name": "_name",
          "type": "string"
        },
        {
          "internalType": "address",
          "name": "_erc",
          "type": "address"
        },
        {
          "internalType": "address",
          "name": "_pair",
          "type": "address"
        },
        {
          "internalType": "uint256",
          "name": "_decimal",
          "type": "uint256"
        }
      ],
      "name": "setPair",
      "outputs": [],
      "stateMutability": "nonpayable",
      "type": "function"
    },
    {
      "inputs": [
        {
          "internalType": "string",
          "name": "_name",
          "type": "string"
        },
        {
          "internalType": "address",
          "name": "_erc20",
          "type": "address"
        },
        {
          "internalType": "address",
          "name": "_pair",
          "type": "address"
        },
        {
          "internalType": "uint256",
          "name": "_decimal",
          "type": "uint256"
        }
      ],
      "name": "changePair",
      "outputs": [],
      "stateMutability": "nonpayable",
      "type": "function"
    },
    {
      "inputs": [
        {
          "internalType": "address",
          "name": "_erc20",
          "type": "address"
        },
        {
          "internalType": "address",
          "name": "_user",
          "type": "address"
        }
      ],
      "name": "getIfStake",
      "outputs": [
        {
          "internalType": "bool",
          "name": "succ",
          "type": "bool"
        },
        {
          "internalType": "uint256",
          "name": "res",
          "type": "uint256"
        }
      ],
      "stateMutability": "view",
      "type": "function",
      "constant": true
    },
    {
      "inputs": [
        {
          "internalType": "address",
          "name": "_erc20",
          "type": "address"
        },
        {
          "internalType": "uint256",
          "name": "_amount",
          "type": "uint256"
        }
      ],
      "name": "stakeErc",
      "outputs": [],
      "stateMutability": "nonpayable",
      "type": "function"
    },
    {
      "inputs": [
        {
          "internalType": "address",
          "name": "_erc20",
          "type": "address"
        },
        {
          "internalType": "uint256",
          "name": "_amount",
          "type": "uint256"
        },
        {
          "internalType": "uint256",
          "name": "_tokenId",
          "type": "uint256"
        }
      ],
      "name": "unstake",
      "outputs": [],
      "stateMutability": "nonpayable",
      "type": "function"
    },
    {
      "inputs": [
        {
          "internalType": "address",
          "name": "_erc20",
          "type": "address"
        }
      ],
      "name": "getStakeIdToWithdraw",
      "outputs": [
        {
          "internalType": "uint256",
          "name": "tokenId",
          "type": "uint256"
        }
      ],
      "stateMutability": "view",
      "type": "function",
      "constant": true
    },
    {
      "inputs": [
        {
          "internalType": "uint256",
          "name": "_tokenId",
          "type": "uint256"
        },
        {
          "internalType": "address",
          "name": "_pair",
          "type": "address"
        },
        {
          "internalType": "uint256",
          "name": "_decimals",
          "type": "uint256"
        }
      ],
      "name": "calculReward",
      "outputs": [
        {
          "internalType": "uint256",
          "name": "reward",
          "type": "uint256"
        }
      ],
      "stateMutability": "view",
      "type": "function",
      "constant": true
    },
    {
      "inputs": [
        {
          "internalType": "address",
          "name": "_pair",
          "type": "address"
        }
      ],
      "name": "getPrice",
      "outputs": [
        {
          "internalType": "uint256",
          "name": "res",
          "type": "uint256"
        }
      ],
      "stateMutability": "view",
      "type": "function",
      "constant": true
    },
    {
      "inputs": [
        {
          "internalType": "address",
          "name": "_user",
          "type": "address"
        },
        {
          "internalType": "uint256",
          "name": "_tokenId",
          "type": "uint256"
        }
      ],
      "name": "getAmountStaked",
      "outputs": [
        {
          "internalType": "uint256",
          "name": "amount",
          "type": "uint256"
        }
      ],
      "stateMutability": "view",
      "type": "function",
      "constant": true
    },
    {
      "inputs": [
        {
          "internalType": "address",
          "name": "_user",
          "type": "address"
        }
      ],
      "name": "getActiveStake",
      "outputs": [
        {
          "components": [
            {
              "internalType": "contract ERC20",
              "name": "token",
              "type": "address"
            },
            {
              "internalType": "uint256",
              "name": "depositAmount",
              "type": "uint256"
            },
            {
              "internalType": "uint256",
              "name": "timeStake",
              "type": "uint256"
            },
            {
              "internalType": "bool",
              "name": "refund",
              "type": "bool"
            }
          ],
          "internalType": "struct Stacking.Stake[]",
          "name": "res",
          "type": "tuple[]"
        }
      ],
      "stateMutability": "view",
      "type": "function",
      "constant": true
    },
    {
      "inputs": [],
      "name": "getAllPair",
      "outputs": [
        {
          "components": [
            {
              "internalType": "string",
              "name": "name",
              "type": "string"
            },
            {
              "internalType": "address",
              "name": "addrERC",
              "type": "address"
            },
            {
              "internalType": "address",
              "name": "pair",
              "type": "address"
            },
            {
              "internalType": "uint256",
              "name": "decimal",
              "type": "uint256"
            }
          ],
          "internalType": "struct Stacking.Pair[]",
          "name": "",
          "type": "tuple[]"
        }
      ],
      "stateMutability": "view",
      "type": "function",
      "constant": true
    },
    {
      "inputs": [
        {
          "internalType": "address",
          "name": "_erc20",
          "type": "address"
        }
      ],
      "name": "getPair",
      "outputs": [
        {
          "internalType": "address",
          "name": "addr",
          "type": "address"
        }
      ],
      "stateMutability": "view",
      "type": "function",
      "constant": true
    },
    {
      "inputs": [
        {
          "internalType": "address",
          "name": "_erc20",
          "type": "address"
        }
      ],
      "name": "getDecimal",
      "outputs": [
        {
          "internalType": "uint256",
          "name": "decimal",
          "type": "uint256"
        }
      ],
      "stateMutability": "view",
      "type": "function",
      "constant": true
    }
  ],
  "bytecode": "0x608060405262015180600155600a6002556000600360006101000a81548160ff02191690831515021790555034801561003757600080fd5b50336000806101000a81548173ffffffffffffffffffffffffffffffffffffffff021916908373ffffffffffffffffffffffffffffffffffffffff160217905550613fe4806100876000396000f3fe608060405234801561001057600080fd5b5060043610610149576000357c010000000000000000000000000000000000000000000000000000000090048063a5638f41116100ca578063c392f7661161008e578063c392f766146103b1578063cc3885fe146103cf578063d0d7b14c146103eb578063d9267f0b14610409578063e5e6e4881461043957610149565b8063a5638f41146102f8578063adc9772e14610314578063b37a5f6a14610347578063bc734d5214610377578063bea32af31461039357610149565b80635f14d7c8116101115780635f14d7c81461022b578063645751af1461025b5780638da5cb5b1461028e578063966da2b8146102ac578063a2bc66be146102dc57610149565b806313af40351461014e5780631531f9c01461016a5780631a788a021461019a57806341976e09146101ca57806349e47070146101fa575b600080fd5b61016860048036038101906101639190612bff565b610455565b005b610184600480360381019061017f9190612bff565b610526565b6040516101919190612dc3565b60405180910390f35b6101b460048036038101906101af9190612bff565b610872565b6040516101c19190612df4565b60405180910390f35b6101e460048036038101906101df9190612bff565b61096c565b6040516101f19190612e1e565b60405180910390f35b610214600480360381019061020f9190612e39565b610a1e565b604051610222929190612e88565b60405180910390f35b61024560048036038101906102409190612edd565b610b65565b6040516102529190612e1e565b60405180910390f35b61027560048036038101906102709190612f1d565b610bd2565b6040516102859493929190612fe3565b60405180910390f35b610296610cda565b6040516102a39190612df4565b60405180910390f35b6102c660048036038101906102c19190612bff565b610cfe565b6040516102d39190612e1e565b60405180910390f35b6102f660048036038101906102f1919061302f565b610dd4565b005b610312600480360381019061030d91906131b7565b61132f565b005b61032e60048036038101906103299190612edd565b61158d565b60405161033e9493929190613249565b60405180910390f35b610361600480360381019061035c919061328e565b611607565b60405161036e9190612e1e565b60405180910390f35b610391600480360381019061038c9190612bff565b61179f565b005b61039b611871565b6040516103a8919061345f565b60405180910390f35b6103b9611a18565b6040516103c69190612e1e565b60405180910390f35b6103e960048036038101906103e49190612edd565b611a1e565b005b6103f3611b67565b6040516104009190612e1e565b60405180910390f35b610423600480360381019061041e9190612bff565b611b6d565b6040516104309190612e1e565b60405180910390f35b610453600480360381019061044e91906131b7565b611d17565b005b60008054906101000a900473ffffffffffffffffffffffffffffffffffffffff1673ffffffffffffffffffffffffffffffffffffffff163373ffffffffffffffffffffffffffffffffffffffff16146104e3576040517f08c379a00000000000000000000000000000000000000000000000000000000081526004016104da906134cd565b60405180910390fd5b806000806101000a81548173ffffffffffffffffffffffffffffffffffffffff021916908373ffffffffffffffffffffffffffffffffffffffff16021790555050565b60606000805b600560008573ffffffffffffffffffffffffffffffffffffffff1673ffffffffffffffffffffffffffffffffffffffff168152602001908152602001600020805490508110156106145760001515600560008673ffffffffffffffffffffffffffffffffffffffff1673ffffffffffffffffffffffffffffffffffffffff16815260200190815260200160002082815481106105cb576105ca6134ed565b5b906000526020600020906004020160030160009054906101000a900460ff16151514156106015781806105fd9061354b565b9250505b808061060c9061354b565b91505061052c565b5060008167ffffffffffffffff8111156106315761063061308c565b5b60405190808252806020026020018201604052801561066a57816020015b610657612a56565b81526020019060019003908161064f5790505b5090506000805b600560008773ffffffffffffffffffffffffffffffffffffffff1673ffffffffffffffffffffffffffffffffffffffff168152602001908152602001600020805490508110156108665760001515600560008873ffffffffffffffffffffffffffffffffffffffff1673ffffffffffffffffffffffffffffffffffffffff16815260200190815260200160002082815481106107105761070f6134ed565b5b906000526020600020906004020160030160009054906101000a900460ff161515141561085357600560008773ffffffffffffffffffffffffffffffffffffffff1673ffffffffffffffffffffffffffffffffffffffff1681526020019081526020016000208181548110610788576107876134ed565b5b90600052602060002090600402016040518060800160405290816000820160009054906101000a900473ffffffffffffffffffffffffffffffffffffffff1673ffffffffffffffffffffffffffffffffffffffff1673ffffffffffffffffffffffffffffffffffffffff16815260200160018201548152602001600282015481526020016003820160009054906101000a900460ff161515151581525050838381518110610839576108386134ed565b5b6020026020010181905250818061084f9061354b565b9250505b808061085e9061354b565b915050610671565b50819350505050919050565b600080600090505b600480549050811015610961578273ffffffffffffffffffffffffffffffffffffffff16600482815481106108b2576108b16134ed565b5b906000526020600020906004020160010160009054906101000a900473ffffffffffffffffffffffffffffffffffffffff1673ffffffffffffffffffffffffffffffffffffffff16141561094e5760048181548110610914576109136134ed565b5b906000526020600020906004020160020160009054906101000a900473ffffffffffffffffffffffffffffffffffffffff16915050610967565b80806109599061354b565b91505061087a565b50600090505b919050565b60008082905060008173ffffffffffffffffffffffffffffffffffffffff1663feaf968c6040518163ffffffff167c010000000000000000000000000000000000000000000000000000000002815260040160a06040518083038186803b1580156109d657600080fd5b505afa1580156109ea573d6000803e3d6000fd5b505050506040513d601f19601f82011682018060405250810190610a0e9190613621565b5050509150508092505050919050565b6000806000806000905060005b600560008773ffffffffffffffffffffffffffffffffffffffff1673ffffffffffffffffffffffffffffffffffffffff16815260200190815260200160002080549050811015610b53578673ffffffffffffffffffffffffffffffffffffffff16600560008873ffffffffffffffffffffffffffffffffffffffff1673ffffffffffffffffffffffffffffffffffffffff1681526020019081526020016000208281548110610add57610adc6134ed565b5b906000526020600020906004020160000160009054906101000a900473ffffffffffffffffffffffffffffffffffffffff1673ffffffffffffffffffffffffffffffffffffffff161415610b405760019250809150828294509450505050610b5e565b8080610b4b9061354b565b915050610a2b565b506000809350935050505b9250929050565b6000600560008473ffffffffffffffffffffffffffffffffffffffff1673ffffffffffffffffffffffffffffffffffffffff1681526020019081526020016000208281548110610bb857610bb76134ed565b5b906000526020600020906004020160010154905092915050565b60048181548110610be257600080fd5b9060005260206000209060040201600091509050806000018054610c05906136cb565b80601f0160208091040260200160405190810160405280929190818152602001828054610c31906136cb565b8015610c7e5780601f10610c5357610100808354040283529160200191610c7e565b820191906000526020600020905b815481529060010190602001808311610c6157829003601f168201915b5050505050908060010160009054906101000a900473ffffffffffffffffffffffffffffffffffffffff16908060020160009054906101000a900473ffffffffffffffffffffffffffffffffffffffff16908060030154905084565b60008054906101000a900473ffffffffffffffffffffffffffffffffffffffff1681565b600080600090505b600480549050811015610dcd578273ffffffffffffffffffffffffffffffffffffffff1660048281548110610d3e57610d3d6134ed565b5b906000526020600020906004020160010160009054906101000a900473ffffffffffffffffffffffffffffffffffffffff1673ffffffffffffffffffffffffffffffffffffffff161415610dba5760048181548110610da057610d9f6134ed565b5b906000526020600020906004020160030154915050610dcf565b8080610dc59061354b565b915050610d06565b505b919050565b60001515600360009054906101000a900460ff16151514610e2a576040517f08c379a0000000000000000000000000000000000000000000000000000000008152600401610e2190613749565b60405180910390fd5b6001600360006101000a81548160ff0219169083151502179055506000600560003373ffffffffffffffffffffffffffffffffffffffff1673ffffffffffffffffffffffffffffffffffffffff1681526020019081526020016000208281548110610e9857610e976134ed565b5b90600052602060002090600402016040518060800160405290816000820160009054906101000a900473ffffffffffffffffffffffffffffffffffffffff1673ffffffffffffffffffffffffffffffffffffffff1673ffffffffffffffffffffffffffffffffffffffff16815260200160018201548152602001600282015481526020016003820160009054906101000a900460ff16151515158152505090508373ffffffffffffffffffffffffffffffffffffffff16816000015173ffffffffffffffffffffffffffffffffffffffff1614610faa576040517f08c379a0000000000000000000000000000000000000000000000000000000008152600401610fa1906137b5565b60405180910390fd5b8060200151831115610ff1576040517f08c379a0000000000000000000000000000000000000000000000000000000008152600401610fe890613847565b60405180910390fd5b806000015173ffffffffffffffffffffffffffffffffffffffff1663a9059cbb33856040518363ffffffff167c010000000000000000000000000000000000000000000000000000000002815260040161104c929190613867565b602060405180830381600087803b15801561106657600080fd5b505af115801561107a573d6000803e3d6000fd5b505050506040513d601f19601f8201168201806040525081019061109e91906138bc565b6110dd576040517f08c379a00000000000000000000000000000000000000000000000000000000081526004016110d490613935565b60405180910390fd5b600015158160600151151514611128576040517f08c379a000000000000000000000000000000000000000000000000000000000815260040161111f906139a1565b60405180910390fd5b6111328483611f1a565b611171576040517f08c379a000000000000000000000000000000000000000000000000000000000815260040161116890613a0d565b60405180910390fd5b806020015183106111f8576001600560003373ffffffffffffffffffffffffffffffffffffffff1673ffffffffffffffffffffffffffffffffffffffff16815260200190815260200160002083815481106111cf576111ce6134ed565b5b906000526020600020906004020160030160006101000a81548160ff0219169083151502179055505b61126d83600560003373ffffffffffffffffffffffffffffffffffffffff1673ffffffffffffffffffffffffffffffffffffffff168152602001908152602001600020848154811061124d5761124c6134ed565b5b9060005260206000209060040201600101546122eb90919063ffffffff16565b600560003373ffffffffffffffffffffffffffffffffffffffff1673ffffffffffffffffffffffffffffffffffffffff16815260200190815260200160002083815481106112be576112bd6134ed565b5b9060005260206000209060040201600101819055507f390b1276974b9463e5d66ab10df69b6f3d7b930eb066a0e66df327edd2cc811c84338560405161130693929190613a2d565b60405180910390a1506000600360006101000a81548160ff021916908315150217905550505050565b60008054906101000a900473ffffffffffffffffffffffffffffffffffffffff1673ffffffffffffffffffffffffffffffffffffffff163373ffffffffffffffffffffffffffffffffffffffff16146113bd576040517f08c379a00000000000000000000000000000000000000000000000000000000081526004016113b4906134cd565b60405180910390fd5b60005b600480549050811015611586578373ffffffffffffffffffffffffffffffffffffffff16600482815481106113f8576113f76134ed565b5b906000526020600020906004020160010160009054906101000a900473ffffffffffffffffffffffffffffffffffffffff1673ffffffffffffffffffffffffffffffffffffffff16141561157357846004828154811061145b5761145a6134ed565b5b9060005260206000209060040201600001908051906020019061147f929190612a96565b508360048281548110611495576114946134ed565b5b906000526020600020906004020160010160006101000a81548173ffffffffffffffffffffffffffffffffffffffff021916908373ffffffffffffffffffffffffffffffffffffffff16021790555082600482815481106114f9576114f86134ed565b5b906000526020600020906004020160020160006101000a81548173ffffffffffffffffffffffffffffffffffffffff021916908373ffffffffffffffffffffffffffffffffffffffff160217905550816004828154811061155d5761155c6134ed565b5b9060005260206000209060040201600301819055505b808061157e9061354b565b9150506113c0565b5050505050565b600560205281600052604060002081815481106115a957600080fd5b9060005260206000209060040201600091509150508060000160009054906101000a900473ffffffffffffffffffffffffffffffffffffffff16908060010154908060020154908060030160009054906101000a900460ff16905084565b60008061167f600560003373ffffffffffffffffffffffffffffffffffffffff1673ffffffffffffffffffffffffffffffffffffffff168152602001908152602001600020868154811061165e5761165d6134ed565b5b906000526020600020906004020160020154426122eb90919063ffffffff16565b905060006116986001548361230190919063ffffffff16565b905060006116c385600a6116ac9190613b97565b6116b58861096c565b61230190919063ffffffff16565b9050600061173c82600560003373ffffffffffffffffffffffffffffffffffffffff1673ffffffffffffffffffffffffffffffffffffffff1681526020019081526020016000208a8154811061171c5761171b6134ed565b5b90600052602060002090600402016001015461231790919063ffffffff16565b9050600061178e61016c6117808661177260646117646002548961231790919063ffffffff16565b61230190919063ffffffff16565b61231790919063ffffffff16565b61230190919063ffffffff16565b905080955050505050509392505050565b60008054906101000a900473ffffffffffffffffffffffffffffffffffffffff1673ffffffffffffffffffffffffffffffffffffffff163373ffffffffffffffffffffffffffffffffffffffff161461182d576040517f08c379a0000000000000000000000000000000000000000000000000000000008152600401611824906134cd565b60405180910390fd5b80600360016101000a81548173ffffffffffffffffffffffffffffffffffffffff021916908373ffffffffffffffffffffffffffffffffffffffff16021790555050565b60606004805480602002602001604051908101604052809291908181526020016000905b82821015611a0f57838290600052602060002090600402016040518060800160405290816000820180546118c8906136cb565b80601f01602080910402602001604051908101604052809291908181526020018280546118f4906136cb565b80156119415780601f1061191657610100808354040283529160200191611941565b820191906000526020600020905b81548152906001019060200180831161192457829003601f168201915b505050505081526020016001820160009054906101000a900473ffffffffffffffffffffffffffffffffffffffff1673ffffffffffffffffffffffffffffffffffffffff1673ffffffffffffffffffffffffffffffffffffffff1681526020016002820160009054906101000a900473ffffffffffffffffffffffffffffffffffffffff1673ffffffffffffffffffffffffffffffffffffffff1673ffffffffffffffffffffffffffffffffffffffff16815260200160038201548152505081526020019060010190611895565b50505050905090565b60025481565b60001515600360009054906101000a900460ff16151514611a74576040517f08c379a0000000000000000000000000000000000000000000000000000000008152600401611a6b90613749565b60405180910390fd5b6001600360006101000a81548160ff021916908315150217905550600080611a9c8433610a1e565b91509150600015158215151415611afb57611ab7848461232d565b611af6576040517f08c379a0000000000000000000000000000000000000000000000000000000008152600401611aed90613c2e565b60405180910390fd5b611b46565b611b0684848361262a565b611b45576040517f08c379a0000000000000000000000000000000000000000000000000000000008152600401611b3c90613c9a565b60405180910390fd5b5b50506000600360006101000a81548160ff0219169083151502179055505050565b60015481565b600080600090505b600560003373ffffffffffffffffffffffffffffffffffffffff1673ffffffffffffffffffffffffffffffffffffffff16815260200190815260200160002080549050811015611d10578273ffffffffffffffffffffffffffffffffffffffff16600560003373ffffffffffffffffffffffffffffffffffffffff1673ffffffffffffffffffffffffffffffffffffffff1681526020019081526020016000208281548110611c2757611c266134ed565b5b906000526020600020906004020160000160009054906101000a900473ffffffffffffffffffffffffffffffffffffffff1673ffffffffffffffffffffffffffffffffffffffff16148015611cef575060001515600560003373ffffffffffffffffffffffffffffffffffffffff1673ffffffffffffffffffffffffffffffffffffffff1681526020019081526020016000208281548110611ccc57611ccb6134ed565b5b906000526020600020906004020160030160009054906101000a900460ff161515145b15611cfd5780915050611d12565b8080611d089061354b565b915050611b75565b505b919050565b60008054906101000a900473ffffffffffffffffffffffffffffffffffffffff1673ffffffffffffffffffffffffffffffffffffffff163373ffffffffffffffffffffffffffffffffffffffff1614611da5576040517f08c379a0000000000000000000000000000000000000000000000000000000008152600401611d9c906134cd565b60405180910390fd5b611dad612b1c565b84816000018190525083816020019073ffffffffffffffffffffffffffffffffffffffff16908173ffffffffffffffffffffffffffffffffffffffff168152505082816040019073ffffffffffffffffffffffffffffffffffffffff16908173ffffffffffffffffffffffffffffffffffffffff16815250508181606001818152505060048190806001815401808255809150506001900390600052602060002090600402016000909190919091506000820151816000019080519060200190611e78929190612a96565b5060208201518160010160006101000a81548173ffffffffffffffffffffffffffffffffffffffff021916908373ffffffffffffffffffffffffffffffffffffffff16021790555060408201518160020160006101000a81548173ffffffffffffffffffffffffffffffffffffffff021916908373ffffffffffffffffffffffffffffffffffffffff1602179055506060820151816003015550505050505050565b600080600560003373ffffffffffffffffffffffffffffffffffffffff1673ffffffffffffffffffffffffffffffffffffffff1681526020019081526020016000208381548110611f6e57611f6d6134ed565b5b90600052602060002090600402016040518060800160405290816000820160009054906101000a900473ffffffffffffffffffffffffffffffffffffffff1673ffffffffffffffffffffffffffffffffffffffff1673ffffffffffffffffffffffffffffffffffffffff16815260200160018201548152602001600282015481526020016003820160009054906101000a900460ff1615151515815250509050600061201985610872565b9050600073ffffffffffffffffffffffffffffffffffffffff168173ffffffffffffffffffffffffffffffffffffffff16141561208b576040517f08c379a000000000000000000000000000000000000000000000000000000000815260040161208290613d06565b60405180910390fd5b8473ffffffffffffffffffffffffffffffffffffffff16826000015173ffffffffffffffffffffffffffffffffffffffff16146120fd576040517f08c379a00000000000000000000000000000000000000000000000000000000081526004016120f4906137b5565b60405180910390fd5b600061211a8561210c88610872565b61211589610cfe565b611607565b905060008111156122dd57600360019054906101000a900473ffffffffffffffffffffffffffffffffffffffff1673ffffffffffffffffffffffffffffffffffffffff166307420a4133836040518363ffffffff167c010000000000000000000000000000000000000000000000000000000002815260040161219e929190613867565b602060405180830381600087803b1580156121b857600080fd5b505af11580156121cc573d6000803e3d6000fd5b505050506040513d601f19601f820116820180604052508101906121f091906138bc565b61222f576040517f08c379a000000000000000000000000000000000000000000000000000000000815260040161222690613d72565b60405180910390fd5b42600560003373ffffffffffffffffffffffffffffffffffffffff1673ffffffffffffffffffffffffffffffffffffffff1681526020019081526020016000208681548110612281576122806134ed565b5b9060005260206000209060040201600201819055507f7e77f685b38c861064cb08f2776eb5dfd3c82f652ed9f21221b8c53b75628e518633836040516122c993929190613a2d565b60405180910390a1600193505050506122e5565b600093505050505b92915050565b600081836122f99190613d92565b905092915050565b6000818361230f9190613df5565b905092915050565b600081836123259190613e26565b905092915050565b6000612337612a56565b600061234285610872565b9050600073ffffffffffffffffffffffffffffffffffffffff168173ffffffffffffffffffffffffffffffffffffffff1614156123b4576040517f08c379a00000000000000000000000000000000000000000000000000000000081526004016123ab90613ecc565b60405180910390fd5b84826000019073ffffffffffffffffffffffffffffffffffffffff16908173ffffffffffffffffffffffffffffffffffffffff1681525050838260200181815250506301dfe200426124069190613d92565b826040018181525050600560003373ffffffffffffffffffffffffffffffffffffffff1673ffffffffffffffffffffffffffffffffffffffff16815260200190815260200160002082908060018154018082558091505060019003906000526020600020906004020160009091909190915060008201518160000160006101000a81548173ffffffffffffffffffffffffffffffffffffffff021916908373ffffffffffffffffffffffffffffffffffffffff160217905550602082015181600101556040820151816002015560608201518160030160006101000a81548160ff0219169083151502179055505050816000015173ffffffffffffffffffffffffffffffffffffffff166323b872dd3330876040518463ffffffff167c010000000000000000000000000000000000000000000000000000000002815260040161255293929190613a2d565b602060405180830381600087803b15801561256c57600080fd5b505af1158015612580573d6000803e3d6000fd5b505050506040513d601f19601f820116820180604052508101906125a491906138bc565b6125e3576040517f08c379a00000000000000000000000000000000000000000000000000000000081526004016125da90613f38565b60405180910390fd5b7f21ed7388df53e1bd56c33fd695bc2429685f2eca4f72839f39743aa22bccd64285338660405161261693929190613a2d565b60405180910390a160019250505092915050565b600080600560003373ffffffffffffffffffffffffffffffffffffffff1673ffffffffffffffffffffffffffffffffffffffff168152602001908152602001600020838154811061267e5761267d6134ed565b5b90600052602060002090600402016040518060800160405290816000820160009054906101000a900473ffffffffffffffffffffffffffffffffffffffff1673ffffffffffffffffffffffffffffffffffffffff1673ffffffffffffffffffffffffffffffffffffffff16815260200160018201548152602001600282015481526020016003820160009054906101000a900460ff1615151515815250509050600061272986610872565b9050600073ffffffffffffffffffffffffffffffffffffffff168173ffffffffffffffffffffffffffffffffffffffff16141561279b576040517f08c379a000000000000000000000000000000000000000000000000000000000815260040161279290613ecc565b60405180910390fd5b8573ffffffffffffffffffffffffffffffffffffffff16826000015173ffffffffffffffffffffffffffffffffffffffff16146127d757600080fd5b6127e18685611f1a565b50816000015173ffffffffffffffffffffffffffffffffffffffff166323b872dd3330886040518463ffffffff167c010000000000000000000000000000000000000000000000000000000002815260040161283f93929190613a2d565b602060405180830381600087803b15801561285957600080fd5b505af115801561286d573d6000803e3d6000fd5b505050506040513d601f19601f8201168201806040525081019061289191906138bc565b6128d0576040517f08c379a00000000000000000000000000000000000000000000000000000000081526004016128c790613f38565b60405180910390fd5b6128e7858360200151612a4090919063ffffffff16565b8260200181815250506301dfe200426129009190613d92565b826040018181525050600082606001901515908115158152505081600560003373ffffffffffffffffffffffffffffffffffffffff1673ffffffffffffffffffffffffffffffffffffffff168152602001908152602001600020858154811061296c5761296b6134ed565b5b906000526020600020906004020160008201518160000160006101000a81548173ffffffffffffffffffffffffffffffffffffffff021916908373ffffffffffffffffffffffffffffffffffffffff160217905550602082015181600101556040820151816002015560608201518160030160006101000a81548160ff0219169083151502179055509050507f21ed7388df53e1bd56c33fd695bc2429685f2eca4f72839f39743aa22bccd642863387604051612a2b93929190613a2d565b60405180910390a16001925050509392505050565b60008183612a4e9190613f58565b905092915050565b6040518060800160405280600073ffffffffffffffffffffffffffffffffffffffff16815260200160008152602001600081526020016000151581525090565b828054612aa2906136cb565b90600052602060002090601f016020900481019282612ac45760008555612b0b565b82601f10612add57805160ff1916838001178555612b0b565b82800160010185558215612b0b579182015b82811115612b0a578251825591602001919060010190612aef565b5b509050612b189190612b70565b5090565b604051806080016040528060608152602001600073ffffffffffffffffffffffffffffffffffffffff168152602001600073ffffffffffffffffffffffffffffffffffffffff168152602001600081525090565b5b80821115612b89576000816000905550600101612b71565b5090565b6000604051905090565b600080fd5b600080fd5b600073ffffffffffffffffffffffffffffffffffffffff82169050919050565b6000612bcc82612ba1565b9050919050565b612bdc81612bc1565b8114612be757600080fd5b50565b600081359050612bf981612bd3565b92915050565b600060208284031215612c1557612c14612b97565b5b6000612c2384828501612bea565b91505092915050565b600081519050919050565b600082825260208201905092915050565b6000819050602082019050919050565b6000819050919050565b6000612c7d612c78612c7384612ba1565b612c58565b612ba1565b9050919050565b6000612c8f82612c62565b9050919050565b6000612ca182612c84565b9050919050565b612cb181612c96565b82525050565b6000819050919050565b612cca81612cb7565b82525050565b60008115159050919050565b612ce581612cd0565b82525050565b608082016000820151612d016000850182612ca8565b506020820151612d146020850182612cc1565b506040820151612d276040850182612cc1565b506060820151612d3a6060850182612cdc565b50505050565b6000612d4c8383612ceb565b60808301905092915050565b6000602082019050919050565b6000612d7082612c2c565b612d7a8185612c37565b9350612d8583612c48565b8060005b83811015612db6578151612d9d8882612d40565b9750612da883612d58565b925050600181019050612d89565b5085935050505092915050565b60006020820190508181036000830152612ddd8184612d65565b905092915050565b612dee81612bc1565b82525050565b6000602082019050612e096000830184612de5565b92915050565b612e1881612cb7565b82525050565b6000602082019050612e336000830184612e0f565b92915050565b60008060408385031215612e5057612e4f612b97565b5b6000612e5e85828601612bea565b9250506020612e6f85828601612bea565b9150509250929050565b612e8281612cd0565b82525050565b6000604082019050612e9d6000830185612e79565b612eaa6020830184612e0f565b9392505050565b612eba81612cb7565b8114612ec557600080fd5b50565b600081359050612ed781612eb1565b92915050565b60008060408385031215612ef457612ef3612b97565b5b6000612f0285828601612bea565b9250506020612f1385828601612ec8565b9150509250929050565b600060208284031215612f3357612f32612b97565b5b6000612f4184828501612ec8565b91505092915050565b600081519050919050565b600082825260208201905092915050565b60005b83811015612f84578082015181840152602081019050612f69565b83811115612f93576000848401525b50505050565b6000601f19601f8301169050919050565b6000612fb582612f4a565b612fbf8185612f55565b9350612fcf818560208601612f66565b612fd881612f99565b840191505092915050565b60006080820190508181036000830152612ffd8187612faa565b905061300c6020830186612de5565b6130196040830185612de5565b6130266060830184612e0f565b95945050505050565b60008060006060848603121561304857613047612b97565b5b600061305686828701612bea565b935050602061306786828701612ec8565b925050604061307886828701612ec8565b9150509250925092565b600080fd5b600080fd5b7f4e487b7100000000000000000000000000000000000000000000000000000000600052604160045260246000fd5b6130c482612f99565b810181811067ffffffffffffffff821117156130e3576130e261308c565b5b80604052505050565b60006130f6612b8d565b905061310282826130bb565b919050565b600067ffffffffffffffff8211156131225761312161308c565b5b61312b82612f99565b9050602081019050919050565b82818337600083830152505050565b600061315a61315584613107565b6130ec565b90508281526020810184848401111561317657613175613087565b5b613181848285613138565b509392505050565b600082601f83011261319e5761319d613082565b5b81356131ae848260208601613147565b91505092915050565b600080600080608085870312156131d1576131d0612b97565b5b600085013567ffffffffffffffff8111156131ef576131ee612b9c565b5b6131fb87828801613189565b945050602061320c87828801612bea565b935050604061321d87828801612bea565b925050606061322e87828801612ec8565b91505092959194509250565b61324381612c96565b82525050565b600060808201905061325e600083018761323a565b61326b6020830186612e0f565b6132786040830185612e0f565b6132856060830184612e79565b95945050505050565b6000806000606084860312156132a7576132a6612b97565b5b60006132b586828701612ec8565b93505060206132c686828701612bea565b92505060406132d786828701612ec8565b9150509250925092565b600081519050919050565b600082825260208201905092915050565b6000819050602082019050919050565b600082825260208201905092915050565b600061332982612f4a565b613333818561330d565b9350613343818560208601612f66565b61334c81612f99565b840191505092915050565b61336081612bc1565b82525050565b60006080830160008301518482036000860152613383828261331e565b91505060208301516133986020860182613357565b5060408301516133ab6040860182613357565b5060608301516133be6060860182612cc1565b508091505092915050565b60006133d58383613366565b905092915050565b6000602082019050919050565b60006133f5826132e1565b6133ff81856132ec565b935083602082028501613411856132fd565b8060005b8581101561344d578484038952815161342e85826133c9565b9450613439836133dd565b925060208a01995050600181019050613415565b50829750879550505050505092915050565b6000602082019050818103600083015261347981846133ea565b905092915050565b7f5520617265206e6f7420746865206f776e657200000000000000000000000000600082015250565b60006134b7601383612f55565b91506134c282613481565b602082019050919050565b600060208201905081810360008301526134e6816134aa565b9050919050565b7f4e487b7100000000000000000000000000000000000000000000000000000000600052603260045260246000fd5b7f4e487b7100000000000000000000000000000000000000000000000000000000600052601160045260246000fd5b600061355682612cb7565b91507fffffffffffffffffffffffffffffffffffffffffffffffffffffffffffffffff8214156135895761358861351c565b5b600182019050919050565b600069ffffffffffffffffffff82169050919050565b6135b381613594565b81146135be57600080fd5b50565b6000815190506135d0816135aa565b92915050565b6000819050919050565b6135e9816135d6565b81146135f457600080fd5b50565b600081519050613606816135e0565b92915050565b60008151905061361b81612eb1565b92915050565b600080600080600060a0868803121561363d5761363c612b97565b5b600061364b888289016135c1565b955050602061365c888289016135f7565b945050604061366d8882890161360c565b935050606061367e8882890161360c565b925050608061368f888289016135c1565b9150509295509295909350565b7f4e487b7100000000000000000000000000000000000000000000000000000000600052602260045260246000fd5b600060028204905060018216806136e357607f821691505b602082108114156136f7576136f661369c565b5b50919050565b7f7265616e7472616e637900000000000000000000000000000000000000000000600082015250565b6000613733600a83612f55565b915061373e826136fd565b602082019050919050565b6000602082019050818103600083015261376281613726565b9050919050565b7f496e76616c696420546f6b656e00000000000000000000000000000000000000600082015250565b600061379f600d83612f55565b91506137aa82613769565b602082019050919050565b600060208201905081810360008301526137ce81613792565b9050919050565b7f57616e7420746f207769746864726177206d6f7265207468616e206465706f7360008201527f6974000000000000000000000000000000000000000000000000000000000000602082015250565b6000613831602283612f55565b915061383c826137d5565b604082019050919050565b6000602082019050818103600083015261386081613824565b9050919050565b600060408201905061387c6000830185612de5565b6138896020830184612e0f565b9392505050565b61389981612cd0565b81146138a457600080fd5b50565b6000815190506138b681613890565b92915050565b6000602082840312156138d2576138d1612b97565b5b60006138e0848285016138a7565b91505092915050565b7f4661696c656420746f207374616b652066756e64000000000000000000000000600082015250565b600061391f601483612f55565b915061392a826138e9565b602082019050919050565b6000602082019050818103600083015261394e81613912565b9050919050565b7f416c726561647920726566756e64000000000000000000000000000000000000600082015250565b600061398b600e83612f55565b915061399682613955565b602082019050919050565b600060208201905081810360008301526139ba8161397e565b9050919050565b7f4e65656420746f207374616b65206d696e696d756d2031206461790000000000600082015250565b60006139f7601b83612f55565b9150613a02826139c1565b602082019050919050565b60006020820190508181036000830152613a26816139ea565b9050919050565b6000606082019050613a426000830186612de5565b613a4f6020830185612de5565b613a5c6040830184612e0f565b949350505050565b6000600282049050919050565b6000808291508390505b6001851115613abb57808604811115613a9757613a9661351c565b5b6001851615613aa65780820291505b8081029050613ab485613a64565b9450613a7b565b94509492505050565b600082613ad45760019050613b90565b81613ae25760009050613b90565b8160018114613af85760028114613b0257613b31565b6001915050613b90565b60ff841115613b1457613b1361351c565b5b8360020a915084821115613b2b57613b2a61351c565b5b50613b90565b5060208310610133831016604e8410600b8410161715613b665782820a905083811115613b6157613b6061351c565b5b613b90565b613b738484846001613a71565b92509050818404811115613b8a57613b8961351c565b5b81810290505b9392505050565b6000613ba282612cb7565b9150613bad83612cb7565b9250613bda7fffffffffffffffffffffffffffffffffffffffffffffffffffffffffffffffff8484613ac4565b905092915050565b7f6661696c656420746f207374616b650000000000000000000000000000000000600082015250565b6000613c18600f83612f55565b9150613c2382613be2565b602082019050919050565b60006020820190508181036000830152613c4781613c0b565b9050919050565b7f6661696c656420746f20616464207374616b6500000000000000000000000000600082015250565b6000613c84601383612f55565b9150613c8f82613c4e565b602082019050919050565b60006020820190508181036000830152613cb381613c77565b9050919050565b7f5468697320746f6b656e2063616e277420686176652072657761726400000000600082015250565b6000613cf0601c83612f55565b9150613cfb82613cba565b602082019050919050565b60006020820190508181036000830152613d1f81613ce3565b9050919050565b7f6661696c656420746f20636c61696d2072657761726400000000000000000000600082015250565b6000613d5c601683612f55565b9150613d6782613d26565b602082019050919050565b60006020820190508181036000830152613d8b81613d4f565b9050919050565b6000613d9d82612cb7565b9150613da883612cb7565b925082821015613dbb57613dba61351c565b5b828203905092915050565b7f4e487b7100000000000000000000000000000000000000000000000000000000600052601260045260246000fd5b6000613e0082612cb7565b9150613e0b83612cb7565b925082613e1b57613e1a613dc6565b5b828204905092915050565b6000613e3182612cb7565b9150613e3c83612cb7565b9250817fffffffffffffffffffffffffffffffffffffffffffffffffffffffffffffffff0483118215151615613e7557613e7461351c565b5b828202905092915050565b7f43616e2774207374616b65207468697320746f6b656e00000000000000000000600082015250565b6000613eb6601683612f55565b9150613ec182613e80565b602082019050919050565b60006020820190508181036000830152613ee581613ea9565b9050919050565b7f5265766572743a2063616e2774207472616e736665722066756e647300000000600082015250565b6000613f22601c83612f55565b9150613f2d82613eec565b602082019050919050565b60006020820190508181036000830152613f5181613f15565b9050919050565b6000613f6382612cb7565b9150613f6e83612cb7565b9250827fffffffffffffffffffffffffffffffffffffffffffffffffffffffffffffffff03821115613fa357613fa261351c565b5b82820190509291505056fea2646970667358221220ddc61a76a81d4eb16bf2c8c8212f9848bdf586a9893f3f3f57c1680a922839b564736f6c63430008090033",
  "immutableReferences": {},
  "source": "// SPDX-License-Identifier: MIT\npragma solidity >=0.4.22 <0.9.0;\n\nimport \"../client/node_modules/@openzeppelin/contracts/token/ERC20/ERC20.sol\";\nimport \"../client/node_modules/@openzeppelin/contracts/utils/math/SafeMath.sol\";\nimport \"./MyERC20.sol\";\nimport \"../client/node_modules/@chainlink/contracts/src/v0.8/interfaces/AggregatorV3Interface.sol\";\n\ncontract Stacking {\n  using SafeMath for uint;\n  address public owner;\n  uint256 public interestPeriod = 1 days;\n  uint256 public interest = 10; //10% par ans\n  bool reantrancy = false;\n  MyERC20 myToken;\n\n  struct Stake {\n    ERC20 token;\n    uint256 depositAmount;\n    uint256 timeStake; // when stake begin\n    bool refund;\n  }\n  // pour securiser le smart contract\n  struct Pair {\n    string name;\n    address addrERC;\n    address pair;\n    uint decimal;\n  }\n  Pair[] public pair;\n\n  mapping(address => Stake[]) public stake;\n\n  event NewStake(address _erc20, address _from, uint256 _amount);\n  event Unstake(address _erc20, address _from, uint256 _amount);\n  event ClaimReward(address _erc20, address _from, uint256 _reward);\n\n  constructor() {\n    owner = msg.sender;\n  }\n\n  modifier onlyOwner() {\n    require(msg.sender == owner, \"U are not the owner\");\n    _;\n  }\n  modifier reantrancyGuard() {\n    require(reantrancy == false, \"reantrancy\");\n    reantrancy = true;\n    _;\n    reantrancy = false;\n  }\n  //Only Owner\n  function setOwner(address _new) external onlyOwner() {\n    owner = _new;\n  }\n  function setMyToken(address _contract) external onlyOwner() {\n    myToken = MyERC20(_contract);\n  }\n  function setPair(string memory _name, address _erc, address _pair, uint256 _decimal) external onlyOwner() {\n    Pair memory _Pair;\n    _Pair.name = _name;\n    _Pair.addrERC = _erc;\n    _Pair.pair = _pair;\n    _Pair.decimal = _decimal;\n    pair.push(_Pair);\n  }\n  function changePair(string memory _name, address _erc20, address _pair, uint256 _decimal) external onlyOwner() {\n    for (uint i = 0; i < pair.length; i++) {\n      if (pair[i].addrERC == _erc20) {\n        pair[i].name = _name;\n        pair[i].addrERC = _erc20;\n        pair[i].pair = _pair;\n        pair[i].decimal = _decimal;\n      }\n    }\n  }\n  //User\n  // need to approve this contract first before transfer token\n  function newStake(address _erc20, uint256 _amount) internal returns(bool success) {\n    Stake memory _stake;\n    address _pair = getPair(_erc20);\n    require(_pair != address(0), \"Can't stake this token\");\n    _stake.token = ERC20(_erc20);\n    _stake.depositAmount = _amount;\n    _stake.timeStake = block.timestamp - 364 days;\n    stake[msg.sender].push(_stake);\n    require(_stake.token.transferFrom(msg.sender, address(this), _amount), \"Revert: can't transfer funds\");\n    emit NewStake(_erc20, msg.sender, _amount);\n    return true;\n  }\n  function getIfStake(address _erc20, address _user) public view returns(bool succ, uint256 res) {\n    bool success;\n    uint256 tokenId = 0;\n    for(uint i = 0; i < stake[_user].length; i++) {\n      if(stake[_user][i].token == ERC20(_erc20)) {\n        success = true;\n        tokenId = i;\n        return (success, tokenId);\n      }\n    }\n    return (false, 0);\n  }\n  // function for new stake & for add stake\n  function stakeErc(address _erc20, uint256 _amount) public reantrancyGuard() {\n    (bool success, uint tokenId) = getIfStake(_erc20, msg.sender);\n    if (success == false) {\n      require(newStake(_erc20, _amount), \"failed to stake\");\n    } \n    else {\n      require(addStake(_erc20, _amount, tokenId), \"failed to add stake\");\n    }\n  }\n  function addStake(address _erc20, uint256 _amount, uint256 _tokenId) internal returns(bool success) {\n    Stake memory _stake = stake[msg.sender][_tokenId];\n    address _pair = getPair(_erc20);\n    require(_pair != address(0), \"Can't stake this token\");\n    require(_stake.token == ERC20(_erc20));\n    claimReward(_erc20, _tokenId);\n    require(_stake.token.transferFrom(msg.sender, address(this), _amount), \"Revert: can't transfer funds\");\n    _stake.depositAmount = _stake.depositAmount.add(_amount);\n    _stake.timeStake = block.timestamp - 364 days;\n    _stake.refund = false;\n    stake[msg.sender][_tokenId] = _stake;\n    emit NewStake(_erc20, msg.sender, _amount);\n    return true;\n  }\n\n  // call getStakeIdToWithdraw to find the id\n  function unstake(address _erc20, uint256 _amount, uint256 _tokenId) external reantrancyGuard() {\n    Stake memory _stake = stake[msg.sender][_tokenId];\n    require(_stake.token == ERC20(_erc20), \"Invalid Token\");\n    require(_amount <= _stake.depositAmount, \"Want to withdraw more than deposit\");\n    require(_stake.token.transfer(msg.sender, _amount), \"Failed to stake fund\");\n    require(_stake.refund == false, \"Already refund\");\n    require(claimReward(_erc20, _tokenId), \"Need to stake minimum 1 day\");\n    if (_amount >= _stake.depositAmount) {\n      stake[msg.sender][_tokenId].refund = true;\n    }\n    stake[msg.sender][_tokenId].depositAmount = stake[msg.sender][_tokenId].depositAmount.sub(_amount);\n    emit Unstake(_erc20, msg.sender, _amount);\n  }\n  //call this function before unstake\n  function getStakeIdToWithdraw(address _erc20) external view returns (uint256 tokenId) {\n    for (uint256 i = 0; i < stake[msg.sender].length; i++) {\n      if (stake[msg.sender][i].token == ERC20(_erc20) && stake[msg.sender][i].refund == false) {\n        return i;\n      }\n    }\n  }\n  // problem transaction fail\n  function claimReward(address _erc20, uint256 _tokenId) internal returns(bool success) {\n    Stake memory _stake = stake[msg.sender][_tokenId];\n    address _pair = getPair(_erc20);\n    require(_pair != address(0), \"This token can't have reward\");\n    require(_stake.token == ERC20(_erc20), \"Invalid Token\");\n    uint256 reward = calculReward(_tokenId, getPair(_erc20), getDecimal(_erc20));\n    if(reward > 0) {\n      require(myToken.sendReward(msg.sender, reward), \"failed to claim reward\");\n      stake[msg.sender][_tokenId].timeStake = block.timestamp;\n      emit ClaimReward(_erc20, msg.sender, reward);\n      return true;\n    }\n    return false;\n  }\n  function calculReward(uint256 _tokenId, address _pair, uint256 _decimals) public view returns (uint256 reward) {\n    uint256 resTime = block.timestamp.sub(stake[msg.sender][_tokenId].timeStake);\n    uint256 period = resTime.div(interestPeriod);\n    uint256 pairr = getPrice(_pair).div(10 ** _decimals);\n    uint256 amount = stake[msg.sender][_tokenId].depositAmount.mul(pairr);\n    uint256 res = amount.mul(interest).div(100).mul(period).div(364);\n    return res;\n  }\n  // get price with chainlink oracle use doc to scop the pair address \n  // => https://docs.chain.link/docs/ethereum-addresses/\n  function getPrice(address _pair) public view returns (uint res) {\n    AggregatorV3Interface priceFeed;\n    priceFeed = AggregatorV3Interface(_pair);\n    ( , int price, , , ) = priceFeed.latestRoundData();\n    return uint(price);\n  }\n  function getAmountStaked(address _user, uint256 _tokenId) public view returns (uint256 amount) {\n    return stake[_user][_tokenId].depositAmount;\n  }\n  function getActiveStake(address _user) public view returns (Stake[] memory res) {\n    uint256 nbActiveStake = 0;\n    for (uint i = 0; i < stake[_user].length; i++) {\n      if(stake[_user][i].refund == false)\n        nbActiveStake++;\n    }\n    Stake[] memory _activeStake = new Stake[](nbActiveStake);\n    uint256 counter = 0;\n    for (uint i = 0; i < stake[_user].length; i++) {\n      if(stake[_user][i].refund == false) {\n        _activeStake[counter] = stake[_user][i];\n        counter++;\n      }\n    }\n    return _activeStake;\n  }\n  function getAllPair() public view returns(Pair[] memory) {\n    return (pair);\n  }\n  function getPair(address _erc20) public view returns(address addr) {\n    for (uint i = 0; i < pair.length; i++) {\n      if (pair[i].addrERC == _erc20) {\n        return pair[i].pair;\n      }\n    }\n    return address(0);\n  }\n  function getDecimal(address _erc20) public view returns(uint decimal) {\n    for (uint i = 0; i < pair.length; i++) {\n      if (pair[i].addrERC == _erc20) {\n        return pair[i].decimal;\n      }\n    }\n  }\n}",
  "sourcePath": "/Users/chinoiserie/delivery/BLOCKCHAIN/Alyra/Developpeur-Ethereum-Template/7. Finance Dcentralise/Defi4/defi4/contracts/Stacking.sol",
  "compiler": {
    "name": "solc",
    "version": "0.8.9+commit.e5eed63a.Emscripten.clang"
  },
  "schemaVersion": "3.2.0",
  "updatedAt": "2022-02-28T15:39:01.380Z",
  "networkType": "ethereum",
  "devdoc": {
    "kind": "dev",
    "methods": {},
    "version": 1
  },
  "userdoc": {
    "kind": "user",
    "methods": {},
    "version": 1
  }
}