{
  "contractName": "Stacking",
  "abi": [
    {
      "inputs": [],
      "stateMutability": "nonpayable",
      "type": "constructor"
    },
    {
      "anonymous": false,
      "inputs": [
        {
          "indexed": false,
          "internalType": "address",
          "name": "_erc20",
          "type": "address"
        },
        {
          "indexed": false,
          "internalType": "address",
          "name": "_from",
          "type": "address"
        },
        {
          "indexed": false,
          "internalType": "uint256",
          "name": "_reward",
          "type": "uint256"
        }
      ],
      "name": "ClaimReward",
      "type": "event"
    },
    {
      "anonymous": false,
      "inputs": [
        {
          "indexed": false,
          "internalType": "address",
          "name": "_erc20",
          "type": "address"
        },
        {
          "indexed": false,
          "internalType": "address",
          "name": "_from",
          "type": "address"
        },
        {
          "indexed": false,
          "internalType": "uint256",
          "name": "_amount",
          "type": "uint256"
        }
      ],
      "name": "NewStake",
      "type": "event"
    },
    {
      "anonymous": false,
      "inputs": [
        {
          "indexed": false,
          "internalType": "address",
          "name": "_erc20",
          "type": "address"
        },
        {
          "indexed": false,
          "internalType": "address",
          "name": "_from",
          "type": "address"
        },
        {
          "indexed": false,
          "internalType": "uint256",
          "name": "_amount",
          "type": "uint256"
        }
      ],
      "name": "Unstake",
      "type": "event"
    },
    {
      "inputs": [],
      "name": "interest",
      "outputs": [
        {
          "internalType": "uint256",
          "name": "",
          "type": "uint256"
        }
      ],
      "stateMutability": "view",
      "type": "function",
      "constant": true
    },
    {
      "inputs": [],
      "name": "interestPeriod",
      "outputs": [
        {
          "internalType": "uint256",
          "name": "",
          "type": "uint256"
        }
      ],
      "stateMutability": "view",
      "type": "function",
      "constant": true
    },
    {
      "inputs": [],
      "name": "owner",
      "outputs": [
        {
          "internalType": "address",
          "name": "",
          "type": "address"
        }
      ],
      "stateMutability": "view",
      "type": "function",
      "constant": true
    },
    {
      "inputs": [
        {
          "internalType": "uint256",
          "name": "",
          "type": "uint256"
        }
      ],
      "name": "pair",
      "outputs": [
        {
          "internalType": "string",
          "name": "name",
          "type": "string"
        },
        {
          "internalType": "address",
          "name": "addrERC",
          "type": "address"
        },
        {
          "internalType": "address",
          "name": "pair",
          "type": "address"
        },
        {
          "internalType": "uint256",
          "name": "decimal",
          "type": "uint256"
        }
      ],
      "stateMutability": "view",
      "type": "function",
      "constant": true
    },
    {
      "inputs": [
        {
          "internalType": "address",
          "name": "",
          "type": "address"
        },
        {
          "internalType": "uint256",
          "name": "",
          "type": "uint256"
        }
      ],
      "name": "stake",
      "outputs": [
        {
          "internalType": "contract ERC20",
          "name": "token",
          "type": "address"
        },
        {
          "internalType": "uint256",
          "name": "depositAmount",
          "type": "uint256"
        },
        {
          "internalType": "uint256",
          "name": "timeStake",
          "type": "uint256"
        },
        {
          "internalType": "bool",
          "name": "refund",
          "type": "bool"
        }
      ],
      "stateMutability": "view",
      "type": "function",
      "constant": true
    },
    {
      "inputs": [
        {
          "internalType": "address",
          "name": "_new",
          "type": "address"
        }
      ],
      "name": "setOwner",
      "outputs": [],
      "stateMutability": "nonpayable",
      "type": "function"
    },
    {
      "inputs": [
        {
          "internalType": "address",
          "name": "_contract",
          "type": "address"
        }
      ],
      "name": "setMyToken",
      "outputs": [],
      "stateMutability": "nonpayable",
      "type": "function"
    },
    {
      "inputs": [
        {
          "internalType": "string",
          "name": "_name",
          "type": "string"
        },
        {
          "internalType": "address",
          "name": "_erc",
          "type": "address"
        },
        {
          "internalType": "address",
          "name": "_pair",
          "type": "address"
        },
        {
          "internalType": "uint256",
          "name": "_decimal",
          "type": "uint256"
        }
      ],
      "name": "setPair",
      "outputs": [],
      "stateMutability": "nonpayable",
      "type": "function"
    },
    {
      "inputs": [
        {
          "internalType": "string",
          "name": "_name",
          "type": "string"
        },
        {
          "internalType": "address",
          "name": "_erc20",
          "type": "address"
        },
        {
          "internalType": "address",
          "name": "_pair",
          "type": "address"
        }
      ],
      "name": "changePair",
      "outputs": [],
      "stateMutability": "nonpayable",
      "type": "function"
    },
    {
      "inputs": [
        {
          "internalType": "address",
          "name": "_erc20",
          "type": "address"
        }
      ],
      "name": "getPair",
      "outputs": [
        {
          "internalType": "address",
          "name": "res",
          "type": "address"
        }
      ],
      "stateMutability": "view",
      "type": "function",
      "constant": true
    },
    {
      "inputs": [
        {
          "internalType": "address",
          "name": "_erc20",
          "type": "address"
        },
        {
          "internalType": "uint256",
          "name": "_amount",
          "type": "uint256"
        }
      ],
      "name": "newStake",
      "outputs": [],
      "stateMutability": "nonpayable",
      "type": "function"
    },
    {
      "inputs": [
        {
          "internalType": "address",
          "name": "_erc20",
          "type": "address"
        },
        {
          "internalType": "uint256",
          "name": "_amount",
          "type": "uint256"
        },
        {
          "internalType": "uint256",
          "name": "_tokenId",
          "type": "uint256"
        },
        {
          "internalType": "uint256",
          "name": "_decimals",
          "type": "uint256"
        }
      ],
      "name": "addStake",
      "outputs": [],
      "stateMutability": "nonpayable",
      "type": "function"
    },
    {
      "inputs": [
        {
          "internalType": "address",
          "name": "_erc20",
          "type": "address"
        },
        {
          "internalType": "uint256",
          "name": "_amount",
          "type": "uint256"
        },
        {
          "internalType": "uint256",
          "name": "_tokenId",
          "type": "uint256"
        }
      ],
      "name": "unstake",
      "outputs": [],
      "stateMutability": "nonpayable",
      "type": "function"
    },
    {
      "inputs": [
        {
          "internalType": "address",
          "name": "_erc20",
          "type": "address"
        }
      ],
      "name": "getStakeIdToWithdraw",
      "outputs": [
        {
          "internalType": "uint256",
          "name": "tokenId",
          "type": "uint256"
        }
      ],
      "stateMutability": "view",
      "type": "function",
      "constant": true
    },
    {
      "inputs": [
        {
          "internalType": "address",
          "name": "_erc20",
          "type": "address"
        },
        {
          "internalType": "uint256",
          "name": "_tokenId",
          "type": "uint256"
        },
        {
          "internalType": "uint256",
          "name": "_decimals",
          "type": "uint256"
        }
      ],
      "name": "claimReward",
      "outputs": [],
      "stateMutability": "nonpayable",
      "type": "function"
    },
    {
      "inputs": [
        {
          "internalType": "uint256",
          "name": "_tokenId",
          "type": "uint256"
        },
        {
          "internalType": "address",
          "name": "_pair",
          "type": "address"
        },
        {
          "internalType": "uint256",
          "name": "_decimals",
          "type": "uint256"
        }
      ],
      "name": "calculReward",
      "outputs": [
        {
          "internalType": "uint256",
          "name": "reward",
          "type": "uint256"
        }
      ],
      "stateMutability": "view",
      "type": "function",
      "constant": true
    },
    {
      "inputs": [
        {
          "internalType": "address",
          "name": "_pair",
          "type": "address"
        }
      ],
      "name": "getPrice",
      "outputs": [
        {
          "internalType": "uint256",
          "name": "res",
          "type": "uint256"
        }
      ],
      "stateMutability": "view",
      "type": "function",
      "constant": true
    },
    {
      "inputs": [
        {
          "internalType": "address",
          "name": "_user",
          "type": "address"
        },
        {
          "internalType": "uint256",
          "name": "_tokenId",
          "type": "uint256"
        }
      ],
      "name": "getAmountStaked",
      "outputs": [
        {
          "internalType": "uint256",
          "name": "amount",
          "type": "uint256"
        }
      ],
      "stateMutability": "view",
      "type": "function",
      "constant": true
    },
    {
      "inputs": [
        {
          "internalType": "address",
          "name": "_user",
          "type": "address"
        }
      ],
      "name": "getActiveStake",
      "outputs": [
        {
          "components": [
            {
              "internalType": "contract ERC20",
              "name": "token",
              "type": "address"
            },
            {
              "internalType": "uint256",
              "name": "depositAmount",
              "type": "uint256"
            },
            {
              "internalType": "uint256",
              "name": "timeStake",
              "type": "uint256"
            },
            {
              "internalType": "bool",
              "name": "refund",
              "type": "bool"
            }
          ],
          "internalType": "struct Stacking.Stake[]",
          "name": "res",
          "type": "tuple[]"
        }
      ],
      "stateMutability": "view",
      "type": "function",
      "constant": true
    }
  ],
  "bytecode": "0x608060405262015180600155600a6002556000600360006101000a81548160ff02191690831515021790555034801561003757600080fd5b50336000806101000a81548173ffffffffffffffffffffffffffffffffffffffff021916908373ffffffffffffffffffffffffffffffffffffffff1602179055506137a0806100876000396000f3fe608060405234801561001057600080fd5b506004361061013e576000357c0100000000000000000000000000000000000000000000000000000000900480639e4f9558116100ca578063bc734d521161008e578063bc734d521461035f578063c392f7661461037b578063d0d7b14c14610399578063d9267f0b146103b7578063e5e6e488146103e75761013e565b80639e4f9558146102a8578063a2bc66be146102c4578063adc9772e146102e0578063b0b600fb14610313578063b37a5f6a1461032f5761013e565b80635f14d7c8116101115780635f14d7c8146101ef578063645751af1461021f5780638da5cb5b146102525780638fc94245146102705780639d06fc9a1461028c5761013e565b806313af4035146101435780631531f9c01461015f5780631a788a021461018f57806341976e09146101bf575b600080fd5b61015d6004803603810190610158919061269e565b610403565b005b6101796004803603810190610174919061269e565b6104d4565b6040516101869190612862565b60405180910390f35b6101a960048036038101906101a4919061269e565b610820565b6040516101b69190612893565b60405180910390f35b6101d960048036038101906101d4919061269e565b61091a565b6040516101e691906128bd565b60405180910390f35b61020960048036038101906102049190612904565b6109cc565b60405161021691906128bd565b60405180910390f35b61023960048036038101906102349190612944565b610a39565b6040516102499493929190612a0a565b60405180910390f35b61025a610b41565b6040516102679190612893565b60405180910390f35b61028a60048036038101906102859190612b8b565b610b65565b005b6102a660048036038101906102a19190612bfa565b610d98565b005b6102c260048036038101906102bd9190612c4d565b61119b565b005b6102de60048036038101906102d99190612bfa565b6115d9565b005b6102fa60048036038101906102f59190612904565b611ab5565b60405161030a9493929190612cd2565b60405180910390f35b61032d60048036038101906103289190612904565b611b2f565b005b61034960048036038101906103449190612d17565b611e7a565b60405161035691906128bd565b60405180910390f35b6103796004803603810190610374919061269e565b612012565b005b6103836120e4565b60405161039091906128bd565b60405180910390f35b6103a16120ea565b6040516103ae91906128bd565b60405180910390f35b6103d160048036038101906103cc919061269e565b6120f0565b6040516103de91906128bd565b60405180910390f35b61040160048036038101906103fc9190612d6a565b61229a565b005b60008054906101000a900473ffffffffffffffffffffffffffffffffffffffff1673ffffffffffffffffffffffffffffffffffffffff163373ffffffffffffffffffffffffffffffffffffffff1614610491576040517f08c379a000000000000000000000000000000000000000000000000000000000815260040161048890612e39565b60405180910390fd5b806000806101000a81548173ffffffffffffffffffffffffffffffffffffffff021916908373ffffffffffffffffffffffffffffffffffffffff16021790555050565b60606000805b600560008573ffffffffffffffffffffffffffffffffffffffff1673ffffffffffffffffffffffffffffffffffffffff168152602001908152602001600020805490508110156105c25760001515600560008673ffffffffffffffffffffffffffffffffffffffff1673ffffffffffffffffffffffffffffffffffffffff168152602001908152602001600020828154811061057957610578612e59565b5b906000526020600020906004020160030160009054906101000a900460ff16151514156105af5781806105ab90612eb7565b9250505b80806105ba90612eb7565b9150506104da565b5060008167ffffffffffffffff8111156105df576105de612a60565b5b60405190808252806020026020018201604052801561061857816020015b6106056124f5565b8152602001906001900390816105fd5790505b5090506000805b600560008773ffffffffffffffffffffffffffffffffffffffff1673ffffffffffffffffffffffffffffffffffffffff168152602001908152602001600020805490508110156108145760001515600560008873ffffffffffffffffffffffffffffffffffffffff1673ffffffffffffffffffffffffffffffffffffffff16815260200190815260200160002082815481106106be576106bd612e59565b5b906000526020600020906004020160030160009054906101000a900460ff161515141561080157600560008773ffffffffffffffffffffffffffffffffffffffff1673ffffffffffffffffffffffffffffffffffffffff168152602001908152602001600020818154811061073657610735612e59565b5b90600052602060002090600402016040518060800160405290816000820160009054906101000a900473ffffffffffffffffffffffffffffffffffffffff1673ffffffffffffffffffffffffffffffffffffffff1673ffffffffffffffffffffffffffffffffffffffff16815260200160018201548152602001600282015481526020016003820160009054906101000a900460ff1615151515815250508383815181106107e7576107e6612e59565b5b602002602001018190525081806107fd90612eb7565b9250505b808061080c90612eb7565b91505061061f565b50819350505050919050565b600080600090505b60048054905081101561090f578273ffffffffffffffffffffffffffffffffffffffff16600482815481106108605761085f612e59565b5b906000526020600020906004020160010160009054906101000a900473ffffffffffffffffffffffffffffffffffffffff1673ffffffffffffffffffffffffffffffffffffffff1614156108fc57600481815481106108c2576108c1612e59565b5b906000526020600020906004020160020160009054906101000a900473ffffffffffffffffffffffffffffffffffffffff16915050610915565b808061090790612eb7565b915050610828565b50600090505b919050565b60008082905060008173ffffffffffffffffffffffffffffffffffffffff1663feaf968c6040518163ffffffff167c010000000000000000000000000000000000000000000000000000000002815260040160a06040518083038186803b15801561098457600080fd5b505afa158015610998573d6000803e3d6000fd5b505050506040513d601f19601f820116820180604052508101906109bc9190612f8d565b5050509150508092505050919050565b6000600560008473ffffffffffffffffffffffffffffffffffffffff1673ffffffffffffffffffffffffffffffffffffffff1681526020019081526020016000208281548110610a1f57610a1e612e59565b5b906000526020600020906004020160010154905092915050565b60048181548110610a4957600080fd5b9060005260206000209060040201600091509050806000018054610a6c90613037565b80601f0160208091040260200160405190810160405280929190818152602001828054610a9890613037565b8015610ae55780601f10610aba57610100808354040283529160200191610ae5565b820191906000526020600020905b815481529060010190602001808311610ac857829003601f168201915b5050505050908060010160009054906101000a900473ffffffffffffffffffffffffffffffffffffffff16908060020160009054906101000a900473ffffffffffffffffffffffffffffffffffffffff16908060030154905084565b60008054906101000a900473ffffffffffffffffffffffffffffffffffffffff1681565b60008054906101000a900473ffffffffffffffffffffffffffffffffffffffff1673ffffffffffffffffffffffffffffffffffffffff163373ffffffffffffffffffffffffffffffffffffffff1614610bf3576040517f08c379a0000000000000000000000000000000000000000000000000000000008152600401610bea90612e39565b60405180910390fd5b60005b600480549050811015610d92578273ffffffffffffffffffffffffffffffffffffffff1660048281548110610c2e57610c2d612e59565b5b906000526020600020906004020160010160009054906101000a900473ffffffffffffffffffffffffffffffffffffffff1673ffffffffffffffffffffffffffffffffffffffff161415610d7f578360048281548110610c9157610c90612e59565b5b90600052602060002090600402016000019080519060200190610cb5929190612535565b508260048281548110610ccb57610cca612e59565b5b906000526020600020906004020160010160006101000a81548173ffffffffffffffffffffffffffffffffffffffff021916908373ffffffffffffffffffffffffffffffffffffffff1602179055508160048281548110610d2f57610d2e612e59565b5b906000526020600020906004020160020160006101000a81548173ffffffffffffffffffffffffffffffffffffffff021916908373ffffffffffffffffffffffffffffffffffffffff1602179055505b8080610d8a90612eb7565b915050610bf6565b50505050565b60001515600360009054906101000a900460ff16151514610db857600080fd5b6001600360006101000a81548160ff0219169083151502179055506000600560003373ffffffffffffffffffffffffffffffffffffffff1673ffffffffffffffffffffffffffffffffffffffff1681526020019081526020016000208381548110610e2657610e25612e59565b5b90600052602060002090600402016040518060800160405290816000820160009054906101000a900473ffffffffffffffffffffffffffffffffffffffff1673ffffffffffffffffffffffffffffffffffffffff1673ffffffffffffffffffffffffffffffffffffffff16815260200160018201548152602001600282015481526020016003820160009054906101000a900460ff16151515158152505090506000610ed185610820565b9050600073ffffffffffffffffffffffffffffffffffffffff168173ffffffffffffffffffffffffffffffffffffffff161415610f43576040517f08c379a0000000000000000000000000000000000000000000000000000000008152600401610f3a906130b5565b60405180910390fd5b8473ffffffffffffffffffffffffffffffffffffffff16826000015173ffffffffffffffffffffffffffffffffffffffff1614610fb5576040517f08c379a0000000000000000000000000000000000000000000000000000000008152600401610fac90613121565b60405180910390fd5b6000610fca85610fc488610820565b86611e7a565b9050600360019054906101000a900473ffffffffffffffffffffffffffffffffffffffff1673ffffffffffffffffffffffffffffffffffffffff166307420a4133836040518363ffffffff167c0100000000000000000000000000000000000000000000000000000000028152600401611045929190613141565b602060405180830381600087803b15801561105f57600080fd5b505af1158015611073573d6000803e3d6000fd5b505050506040513d601f19601f820116820180604052508101906110979190613196565b6110d6576040517f08c379a00000000000000000000000000000000000000000000000000000000081526004016110cd9061320f565b60405180910390fd5b42600560003373ffffffffffffffffffffffffffffffffffffffff1673ffffffffffffffffffffffffffffffffffffffff168152602001908152602001600020868154811061112857611127612e59565b5b9060005260206000209060040201600201819055507f7e77f685b38c861064cb08f2776eb5dfd3c82f652ed9f21221b8c53b75628e518633836040516111709392919061322f565b60405180910390a15050506000600360006101000a81548160ff021916908315150217905550505050565b60001515600360009054906101000a900460ff161515146111bb57600080fd5b6001600360006101000a81548160ff0219169083151502179055506000600560003373ffffffffffffffffffffffffffffffffffffffff1673ffffffffffffffffffffffffffffffffffffffff168152602001908152602001600020838154811061122957611228612e59565b5b90600052602060002090600402016040518060800160405290816000820160009054906101000a900473ffffffffffffffffffffffffffffffffffffffff1673ffffffffffffffffffffffffffffffffffffffff1673ffffffffffffffffffffffffffffffffffffffff16815260200160018201548152602001600282015481526020016003820160009054906101000a900460ff161515151581525050905060006112d486610820565b9050600073ffffffffffffffffffffffffffffffffffffffff168173ffffffffffffffffffffffffffffffffffffffff161415611346576040517f08c379a000000000000000000000000000000000000000000000000000000000815260040161133d906132b2565b60405180910390fd5b8573ffffffffffffffffffffffffffffffffffffffff16826000015173ffffffffffffffffffffffffffffffffffffffff161461138257600080fd5b61138d868585610d98565b6113a485836020015161249d90919063ffffffff16565b504282604001818152505081600560003373ffffffffffffffffffffffffffffffffffffffff1673ffffffffffffffffffffffffffffffffffffffff168152602001908152602001600020858154811061140157611400612e59565b5b906000526020600020906004020160008201518160000160006101000a81548173ffffffffffffffffffffffffffffffffffffffff021916908373ffffffffffffffffffffffffffffffffffffffff160217905550602082015181600101556040820151816002015560608201518160030160006101000a81548160ff021916908315150217905550905050816000015173ffffffffffffffffffffffffffffffffffffffff166323b872dd3330886040518463ffffffff167c01000000000000000000000000000000000000000000000000000000000281526004016114ea9392919061322f565b602060405180830381600087803b15801561150457600080fd5b505af1158015611518573d6000803e3d6000fd5b505050506040513d601f19601f8201168201806040525081019061153c9190613196565b61157b576040517f08c379a00000000000000000000000000000000000000000000000000000000081526004016115729061331e565b60405180910390fd5b7f21ed7388df53e1bd56c33fd695bc2429685f2eca4f72839f39743aa22bccd6428633876040516115ae9392919061322f565b60405180910390a150506000600360006101000a81548160ff02191690831515021790555050505050565b60001515600360009054906101000a900460ff161515146115f957600080fd5b6001600360006101000a81548160ff0219169083151502179055506000600560003373ffffffffffffffffffffffffffffffffffffffff1673ffffffffffffffffffffffffffffffffffffffff168152602001908152602001600020828154811061166757611666612e59565b5b90600052602060002090600402016040518060800160405290816000820160009054906101000a900473ffffffffffffffffffffffffffffffffffffffff1673ffffffffffffffffffffffffffffffffffffffff1673ffffffffffffffffffffffffffffffffffffffff16815260200160018201548152602001600282015481526020016003820160009054906101000a900460ff16151515158152505090508373ffffffffffffffffffffffffffffffffffffffff16816000015173ffffffffffffffffffffffffffffffffffffffff1614611779576040517f08c379a000000000000000000000000000000000000000000000000000000000815260040161177090613121565b60405180910390fd5b80602001518311156117c0576040517f08c379a00000000000000000000000000000000000000000000000000000000081526004016117b7906133b0565b60405180910390fd5b806000015173ffffffffffffffffffffffffffffffffffffffff1663a9059cbb33856040518363ffffffff167c010000000000000000000000000000000000000000000000000000000002815260040161181b929190613141565b602060405180830381600087803b15801561183557600080fd5b505af1158015611849573d6000803e3d6000fd5b505050506040513d601f19601f8201168201806040525081019061186d9190613196565b6118ac576040517f08c379a00000000000000000000000000000000000000000000000000000000081526004016118a39061341c565b60405180910390fd5b6000151581606001511515146118f7576040517f08c379a00000000000000000000000000000000000000000000000000000000081526004016118ee90613488565b60405180910390fd5b8060200151831061197e576001600560003373ffffffffffffffffffffffffffffffffffffffff1673ffffffffffffffffffffffffffffffffffffffff168152602001908152602001600020838154811061195557611954612e59565b5b906000526020600020906004020160030160006101000a81548160ff0219169083151502179055505b6119f383600560003373ffffffffffffffffffffffffffffffffffffffff1673ffffffffffffffffffffffffffffffffffffffff16815260200190815260200160002084815481106119d3576119d2612e59565b5b9060005260206000209060040201600101546124b390919063ffffffff16565b600560003373ffffffffffffffffffffffffffffffffffffffff1673ffffffffffffffffffffffffffffffffffffffff1681526020019081526020016000208381548110611a4457611a43612e59565b5b9060005260206000209060040201600101819055507f390b1276974b9463e5d66ab10df69b6f3d7b930eb066a0e66df327edd2cc811c843385604051611a8c9392919061322f565b60405180910390a1506000600360006101000a81548160ff021916908315150217905550505050565b60056020528160005260406000208181548110611ad157600080fd5b9060005260206000209060040201600091509150508060000160009054906101000a900473ffffffffffffffffffffffffffffffffffffffff16908060010154908060020154908060030160009054906101000a900460ff16905084565b60001515600360009054906101000a900460ff16151514611b4f57600080fd5b6001600360006101000a81548160ff021916908315150217905550611b726124f5565b6000611b7d84610820565b9050600073ffffffffffffffffffffffffffffffffffffffff168173ffffffffffffffffffffffffffffffffffffffff161415611bef576040517f08c379a0000000000000000000000000000000000000000000000000000000008152600401611be6906132b2565b60405180910390fd5b83826000019073ffffffffffffffffffffffffffffffffffffffff16908173ffffffffffffffffffffffffffffffffffffffff1681525050828260200181815250506301da9c0042611c4191906134a8565b826040018181525050600560003373ffffffffffffffffffffffffffffffffffffffff1673ffffffffffffffffffffffffffffffffffffffff16815260200190815260200160002082908060018154018082558091505060019003906000526020600020906004020160009091909190915060008201518160000160006101000a81548173ffffffffffffffffffffffffffffffffffffffff021916908373ffffffffffffffffffffffffffffffffffffffff160217905550602082015181600101556040820151816002015560608201518160030160006101000a81548160ff0219169083151502179055505050816000015173ffffffffffffffffffffffffffffffffffffffff166323b872dd3330866040518463ffffffff167c0100000000000000000000000000000000000000000000000000000000028152600401611d8d9392919061322f565b602060405180830381600087803b158015611da757600080fd5b505af1158015611dbb573d6000803e3d6000fd5b505050506040513d601f19601f82011682018060405250810190611ddf9190613196565b611e1e576040517f08c379a0000000000000000000000000000000000000000000000000000000008152600401611e159061331e565b60405180910390fd5b7f21ed7388df53e1bd56c33fd695bc2429685f2eca4f72839f39743aa22bccd642843385604051611e519392919061322f565b60405180910390a150506000600360006101000a81548160ff0219169083151502179055505050565b600080611ef2600560003373ffffffffffffffffffffffffffffffffffffffff1673ffffffffffffffffffffffffffffffffffffffff1681526020019081526020016000208681548110611ed157611ed0612e59565b5b906000526020600020906004020160020154426124b390919063ffffffff16565b90506000611f0b600154836124c990919063ffffffff16565b90506000611f3685600a611f1f919061360f565b611f288861091a565b6124c990919063ffffffff16565b90506000611faf82600560003373ffffffffffffffffffffffffffffffffffffffff1673ffffffffffffffffffffffffffffffffffffffff1681526020019081526020016000208a81548110611f8f57611f8e612e59565b5b9060005260206000209060040201600101546124df90919063ffffffff16565b90506000612001610168611ff386611fe56064611fd7600254896124df90919063ffffffff16565b6124c990919063ffffffff16565b6124df90919063ffffffff16565b6124c990919063ffffffff16565b905080955050505050509392505050565b60008054906101000a900473ffffffffffffffffffffffffffffffffffffffff1673ffffffffffffffffffffffffffffffffffffffff163373ffffffffffffffffffffffffffffffffffffffff16146120a0576040517f08c379a000000000000000000000000000000000000000000000000000000000815260040161209790612e39565b60405180910390fd5b80600360016101000a81548173ffffffffffffffffffffffffffffffffffffffff021916908373ffffffffffffffffffffffffffffffffffffffff16021790555050565b60025481565b60015481565b600080600090505b600560003373ffffffffffffffffffffffffffffffffffffffff1673ffffffffffffffffffffffffffffffffffffffff16815260200190815260200160002080549050811015612293578273ffffffffffffffffffffffffffffffffffffffff16600560003373ffffffffffffffffffffffffffffffffffffffff1673ffffffffffffffffffffffffffffffffffffffff16815260200190815260200160002082815481106121aa576121a9612e59565b5b906000526020600020906004020160000160009054906101000a900473ffffffffffffffffffffffffffffffffffffffff1673ffffffffffffffffffffffffffffffffffffffff16148015612272575060001515600560003373ffffffffffffffffffffffffffffffffffffffff1673ffffffffffffffffffffffffffffffffffffffff168152602001908152602001600020828154811061224f5761224e612e59565b5b906000526020600020906004020160030160009054906101000a900460ff161515145b156122805780915050612295565b808061228b90612eb7565b9150506120f8565b505b919050565b60008054906101000a900473ffffffffffffffffffffffffffffffffffffffff1673ffffffffffffffffffffffffffffffffffffffff163373ffffffffffffffffffffffffffffffffffffffff1614612328576040517f08c379a000000000000000000000000000000000000000000000000000000000815260040161231f90612e39565b60405180910390fd5b6123306125bb565b84816000018190525083816020019073ffffffffffffffffffffffffffffffffffffffff16908173ffffffffffffffffffffffffffffffffffffffff168152505082816040019073ffffffffffffffffffffffffffffffffffffffff16908173ffffffffffffffffffffffffffffffffffffffff168152505081816060018181525050600481908060018154018082558091505060019003906000526020600020906004020160009091909190915060008201518160000190805190602001906123fb929190612535565b5060208201518160010160006101000a81548173ffffffffffffffffffffffffffffffffffffffff021916908373ffffffffffffffffffffffffffffffffffffffff16021790555060408201518160020160006101000a81548173ffffffffffffffffffffffffffffffffffffffff021916908373ffffffffffffffffffffffffffffffffffffffff1602179055506060820151816003015550505050505050565b600081836124ab919061365a565b905092915050565b600081836124c191906134a8565b905092915050565b600081836124d791906136df565b905092915050565b600081836124ed9190613710565b905092915050565b6040518060800160405280600073ffffffffffffffffffffffffffffffffffffffff16815260200160008152602001600081526020016000151581525090565b82805461254190613037565b90600052602060002090601f01602090048101928261256357600085556125aa565b82601f1061257c57805160ff19168380011785556125aa565b828001600101855582156125aa579182015b828111156125a957825182559160200191906001019061258e565b5b5090506125b7919061260f565b5090565b604051806080016040528060608152602001600073ffffffffffffffffffffffffffffffffffffffff168152602001600073ffffffffffffffffffffffffffffffffffffffff168152602001600081525090565b5b80821115612628576000816000905550600101612610565b5090565b6000604051905090565b600080fd5b600080fd5b600073ffffffffffffffffffffffffffffffffffffffff82169050919050565b600061266b82612640565b9050919050565b61267b81612660565b811461268657600080fd5b50565b60008135905061269881612672565b92915050565b6000602082840312156126b4576126b3612636565b5b60006126c284828501612689565b91505092915050565b600081519050919050565b600082825260208201905092915050565b6000819050602082019050919050565b6000819050919050565b600061271c61271761271284612640565b6126f7565b612640565b9050919050565b600061272e82612701565b9050919050565b600061274082612723565b9050919050565b61275081612735565b82525050565b6000819050919050565b61276981612756565b82525050565b60008115159050919050565b6127848161276f565b82525050565b6080820160008201516127a06000850182612747565b5060208201516127b36020850182612760565b5060408201516127c66040850182612760565b5060608201516127d9606085018261277b565b50505050565b60006127eb838361278a565b60808301905092915050565b6000602082019050919050565b600061280f826126cb565b61281981856126d6565b9350612824836126e7565b8060005b8381101561285557815161283c88826127df565b9750612847836127f7565b925050600181019050612828565b5085935050505092915050565b6000602082019050818103600083015261287c8184612804565b905092915050565b61288d81612660565b82525050565b60006020820190506128a86000830184612884565b92915050565b6128b781612756565b82525050565b60006020820190506128d260008301846128ae565b92915050565b6128e181612756565b81146128ec57600080fd5b50565b6000813590506128fe816128d8565b92915050565b6000806040838503121561291b5761291a612636565b5b600061292985828601612689565b925050602061293a858286016128ef565b9150509250929050565b60006020828403121561295a57612959612636565b5b6000612968848285016128ef565b91505092915050565b600081519050919050565b600082825260208201905092915050565b60005b838110156129ab578082015181840152602081019050612990565b838111156129ba576000848401525b50505050565b6000601f19601f8301169050919050565b60006129dc82612971565b6129e6818561297c565b93506129f681856020860161298d565b6129ff816129c0565b840191505092915050565b60006080820190508181036000830152612a2481876129d1565b9050612a336020830186612884565b612a406040830185612884565b612a4d60608301846128ae565b95945050505050565b600080fd5b600080fd5b7f4e487b7100000000000000000000000000000000000000000000000000000000600052604160045260246000fd5b612a98826129c0565b810181811067ffffffffffffffff82111715612ab757612ab6612a60565b5b80604052505050565b6000612aca61262c565b9050612ad68282612a8f565b919050565b600067ffffffffffffffff821115612af657612af5612a60565b5b612aff826129c0565b9050602081019050919050565b82818337600083830152505050565b6000612b2e612b2984612adb565b612ac0565b905082815260208101848484011115612b4a57612b49612a5b565b5b612b55848285612b0c565b509392505050565b600082601f830112612b7257612b71612a56565b5b8135612b82848260208601612b1b565b91505092915050565b600080600060608486031215612ba457612ba3612636565b5b600084013567ffffffffffffffff811115612bc257612bc161263b565b5b612bce86828701612b5d565b9350506020612bdf86828701612689565b9250506040612bf086828701612689565b9150509250925092565b600080600060608486031215612c1357612c12612636565b5b6000612c2186828701612689565b9350506020612c32868287016128ef565b9250506040612c43868287016128ef565b9150509250925092565b60008060008060808587031215612c6757612c66612636565b5b6000612c7587828801612689565b9450506020612c86878288016128ef565b9350506040612c97878288016128ef565b9250506060612ca8878288016128ef565b91505092959194509250565b612cbd81612735565b82525050565b612ccc8161276f565b82525050565b6000608082019050612ce76000830187612cb4565b612cf460208301866128ae565b612d0160408301856128ae565b612d0e6060830184612cc3565b95945050505050565b600080600060608486031215612d3057612d2f612636565b5b6000612d3e868287016128ef565b9350506020612d4f86828701612689565b9250506040612d60868287016128ef565b9150509250925092565b60008060008060808587031215612d8457612d83612636565b5b600085013567ffffffffffffffff811115612da257612da161263b565b5b612dae87828801612b5d565b9450506020612dbf87828801612689565b9350506040612dd087828801612689565b9250506060612de1878288016128ef565b91505092959194509250565b7f5520617265206e6f7420746865206f776e657200000000000000000000000000600082015250565b6000612e2360138361297c565b9150612e2e82612ded565b602082019050919050565b60006020820190508181036000830152612e5281612e16565b9050919050565b7f4e487b7100000000000000000000000000000000000000000000000000000000600052603260045260246000fd5b7f4e487b7100000000000000000000000000000000000000000000000000000000600052601160045260246000fd5b6000612ec282612756565b91507fffffffffffffffffffffffffffffffffffffffffffffffffffffffffffffffff821415612ef557612ef4612e88565b5b600182019050919050565b600069ffffffffffffffffffff82169050919050565b612f1f81612f00565b8114612f2a57600080fd5b50565b600081519050612f3c81612f16565b92915050565b6000819050919050565b612f5581612f42565b8114612f6057600080fd5b50565b600081519050612f7281612f4c565b92915050565b600081519050612f87816128d8565b92915050565b600080600080600060a08688031215612fa957612fa8612636565b5b6000612fb788828901612f2d565b9550506020612fc888828901612f63565b9450506040612fd988828901612f78565b9350506060612fea88828901612f78565b9250506080612ffb88828901612f2d565b9150509295509295909350565b7f4e487b7100000000000000000000000000000000000000000000000000000000600052602260045260246000fd5b6000600282049050600182168061304f57607f821691505b6020821081141561306357613062613008565b5b50919050565b7f5468697320746f6b656e2063616e277420686176652072657761726400000000600082015250565b600061309f601c8361297c565b91506130aa82613069565b602082019050919050565b600060208201905081810360008301526130ce81613092565b9050919050565b7f496e76616c696420546f6b656e00000000000000000000000000000000000000600082015250565b600061310b600d8361297c565b9150613116826130d5565b602082019050919050565b6000602082019050818103600083015261313a816130fe565b9050919050565b60006040820190506131566000830185612884565b61316360208301846128ae565b9392505050565b6131738161276f565b811461317e57600080fd5b50565b6000815190506131908161316a565b92915050565b6000602082840312156131ac576131ab612636565b5b60006131ba84828501613181565b91505092915050565b7f6661696c656420746f20636c61696d2072657761726400000000000000000000600082015250565b60006131f960168361297c565b9150613204826131c3565b602082019050919050565b60006020820190508181036000830152613228816131ec565b9050919050565b60006060820190506132446000830186612884565b6132516020830185612884565b61325e60408301846128ae565b949350505050565b7f43616e2774207374616b65207468697320746f6b656e00000000000000000000600082015250565b600061329c60168361297c565b91506132a782613266565b602082019050919050565b600060208201905081810360008301526132cb8161328f565b9050919050565b7f5265766572743a2063616e2774207472616e736665722066756e647300000000600082015250565b6000613308601c8361297c565b9150613313826132d2565b602082019050919050565b60006020820190508181036000830152613337816132fb565b9050919050565b7f57616e7420746f207769746864726177206d6f7265207468616e206465706f7360008201527f6974000000000000000000000000000000000000000000000000000000000000602082015250565b600061339a60228361297c565b91506133a58261333e565b604082019050919050565b600060208201905081810360008301526133c98161338d565b9050919050565b7f4661696c656420746f207374616b652066756e64000000000000000000000000600082015250565b600061340660148361297c565b9150613411826133d0565b602082019050919050565b60006020820190508181036000830152613435816133f9565b9050919050565b7f416c726561647920726566756e64000000000000000000000000000000000000600082015250565b6000613472600e8361297c565b915061347d8261343c565b602082019050919050565b600060208201905081810360008301526134a181613465565b9050919050565b60006134b382612756565b91506134be83612756565b9250828210156134d1576134d0612e88565b5b828203905092915050565b6000600282049050919050565b6000808291508390505b60018511156135335780860481111561350f5761350e612e88565b5b600185161561351e5780820291505b808102905061352c856134dc565b94506134f3565b94509492505050565b60008261354c5760019050613608565b8161355a5760009050613608565b8160018114613570576002811461357a576135a9565b6001915050613608565b60ff84111561358c5761358b612e88565b5b8360020a9150848211156135a3576135a2612e88565b5b50613608565b5060208310610133831016604e8410600b84101617156135de5782820a9050838111156135d9576135d8612e88565b5b613608565b6135eb84848460016134e9565b9250905081840481111561360257613601612e88565b5b81810290505b9392505050565b600061361a82612756565b915061362583612756565b92506136527fffffffffffffffffffffffffffffffffffffffffffffffffffffffffffffffff848461353c565b905092915050565b600061366582612756565b915061367083612756565b9250827fffffffffffffffffffffffffffffffffffffffffffffffffffffffffffffffff038211156136a5576136a4612e88565b5b828201905092915050565b7f4e487b7100000000000000000000000000000000000000000000000000000000600052601260045260246000fd5b60006136ea82612756565b91506136f583612756565b925082613705576137046136b0565b5b828204905092915050565b600061371b82612756565b915061372683612756565b9250817fffffffffffffffffffffffffffffffffffffffffffffffffffffffffffffffff048311821515161561375f5761375e612e88565b5b82820290509291505056fea26469706673582212201567fedd6445d9afa2de07771eb7c051fc21181f23b9fb319a1f6eab514fc63a64736f6c63430008090033",
  "immutableReferences": {},
  "source": "// SPDX-License-Identifier: MIT\npragma solidity >=0.4.22 <0.9.0;\n\nimport \"../client/node_modules/@openzeppelin/contracts/token/ERC20/ERC20.sol\";\nimport \"../client/node_modules/@openzeppelin/contracts/utils/math/SafeMath.sol\";\nimport \"./MyERC20.sol\";\nimport \"../client/node_modules/@chainlink/contracts/src/v0.8/interfaces/AggregatorV3Interface.sol\";\n\ncontract Stacking {\n  using SafeMath for uint;\n  address public owner;\n  uint256 public interestPeriod = 1 days;\n  uint256 public interest = 10; //10% par ans\n  bool reantrancy = false;\n  MyERC20 myToken;\n\n  struct Stake {\n    ERC20 token;\n    uint256 depositAmount;\n    uint256 timeStake; // when stake begin\n    bool refund;\n  }\n  // pour securiser le smart contract\n  struct Pair {\n    string name;\n    address addrERC;\n    address pair;\n    uint decimal;\n  }\n  Pair[] public pair;\n\n  mapping(address => Stake[]) public stake;\n\n  event NewStake(address _erc20, address _from, uint256 _amount);\n  event Unstake(address _erc20, address _from, uint256 _amount);\n  event ClaimReward(address _erc20, address _from, uint256 _reward);\n\n  constructor() {\n    owner = msg.sender;\n  }\n\n  modifier onlyOwner() {\n    require(msg.sender == owner, \"U are not the owner\");\n    _;\n  }\n  modifier reantrancyGuard() {\n    require(reantrancy == false);\n    reantrancy = true;\n    _;\n    reantrancy = false;\n  }\n  //Only Owner\n  function setOwner(address _new) external onlyOwner() {\n    owner = _new;\n  }\n  function setMyToken(address _contract) external onlyOwner() {\n    myToken = MyERC20(_contract);\n  }\n  function setPair(string memory _name, address _erc, address _pair, uint256 _decimal) external onlyOwner() {\n    Pair memory _Pair;\n    _Pair.name = _name;\n    _Pair.addrERC = _erc;\n    _Pair.pair = _pair;\n    _Pair.decimal = _decimal;\n    pair.push(_Pair);\n  }\n  function changePair(string memory _name, address _erc20, address _pair) external onlyOwner() {\n    for (uint i = 0; i < pair.length; i++) {\n      if (pair[i].addrERC == _erc20) {\n        pair[i].name = _name;\n        pair[i].addrERC = _erc20;\n        pair[i].pair = _pair;\n      }\n    }\n  }\n  function getPair(address _erc20) public view returns(address res) {\n    for (uint i = 0; i < pair.length; i++) {\n      if (pair[i].addrERC == _erc20) {\n        return pair[i].pair;\n      }\n    }\n    return address(0);\n  }\n  //User\n  // need to approve this contract first before transfer token\n  function newStake(address _erc20, uint256 _amount) external reantrancyGuard() {\n    Stake memory _stake;\n    address _pair = getPair(_erc20);\n    require(_pair != address(0), \"Can't stake this token\");\n    _stake.token = ERC20(_erc20);\n    _stake.depositAmount = _amount;\n    _stake.timeStake = block.timestamp - 360 days;\n    stake[msg.sender].push(_stake);\n    require(_stake.token.transferFrom(msg.sender, address(this), _amount), \"Revert: can't transfer funds\");\n    emit NewStake(_erc20, msg.sender, _amount);\n  }\n  function addStake(address _erc20, uint256 _amount, uint256 _tokenId, uint256 _decimals) external reantrancyGuard() {\n    Stake memory _stake = stake[msg.sender][_tokenId];\n    address _pair = getPair(_erc20);\n    require(_pair != address(0), \"Can't stake this token\");\n    require(_stake.token == ERC20(_erc20));\n    claimReward(_erc20, _tokenId, _decimals);\n    _stake.depositAmount.add(_amount);\n    _stake.timeStake = block.timestamp;\n    stake[msg.sender][_tokenId] = _stake;\n    require(_stake.token.transferFrom(msg.sender, address(this), _amount), \"Revert: can't transfer funds\");\n    emit NewStake(_erc20, msg.sender, _amount);\n  }\n\n  // call getStakeIdToWithdraw to find the id\n  function unstake(address _erc20, uint256 _amount, uint256 _tokenId) external reantrancyGuard() {\n    Stake memory _stake = stake[msg.sender][_tokenId];\n    require(_stake.token == ERC20(_erc20), \"Invalid Token\");\n    require(_amount <= _stake.depositAmount, \"Want to withdraw more than deposit\");\n    require(_stake.token.transfer(msg.sender, _amount), \"Failed to stake fund\");\n    require(_stake.refund == false, \"Already refund\");\n    if (_amount >= _stake.depositAmount) {\n      stake[msg.sender][_tokenId].refund = true;\n    }\n    stake[msg.sender][_tokenId].depositAmount = stake[msg.sender][_tokenId].depositAmount.sub(_amount);\n    emit Unstake(_erc20, msg.sender, _amount);\n  }\n  //call this function before unstake\n  function getStakeIdToWithdraw(address _erc20) external view returns (uint256 tokenId) {\n    for (uint256 i = 0; i < stake[msg.sender].length; i++) {\n      if (stake[msg.sender][i].token == ERC20(_erc20) && stake[msg.sender][i].refund == false) {\n        return i;\n      }\n    }\n  }\n  // problem transaction fail\n  function claimReward(address _erc20,uint256 _tokenId, uint256 _decimals) public reantrancyGuard() {\n    Stake memory _stake = stake[msg.sender][_tokenId];\n    address _pair = getPair(_erc20);\n    require(_pair != address(0), \"This token can't have reward\");\n    require(_stake.token == ERC20(_erc20), \"Invalid Token\");\n    uint256 reward = calculReward(_tokenId, getPair(_erc20), _decimals);\n    require(myToken.sendReward(msg.sender, reward), \"failed to claim reward\");\n    stake[msg.sender][_tokenId].timeStake = block.timestamp;\n    emit ClaimReward(_erc20, msg.sender, reward);\n  }\n  function calculReward(uint256 _tokenId, address _pair, uint256 _decimals) public view returns (uint256 reward) {\n    uint256 resTime = block.timestamp.sub(stake[msg.sender][_tokenId].timeStake);\n    uint256 period = resTime.div(interestPeriod);\n    uint256 pairr = getPrice(_pair).div(10 ** _decimals);\n    uint256 amount = stake[msg.sender][_tokenId].depositAmount.mul(pairr);\n    uint256 res = amount.mul(interest).div(100).mul(period).div(360);\n    return res;\n  }\n  // get price with chainlink oracle use doc to scop the pair address \n  // => https://docs.chain.link/docs/ethereum-addresses/\n  function getPrice(address _pair) public view returns (uint res) {\n    AggregatorV3Interface priceFeed;\n    priceFeed = AggregatorV3Interface(_pair);\n    ( , int price, , , ) = priceFeed.latestRoundData();\n    return uint(price);\n  }\n  function getAmountStaked(address _user, uint256 _tokenId) public view returns (uint256 amount) {\n    return stake[_user][_tokenId].depositAmount;\n  }\n  function getActiveStake(address _user) public view returns (Stake[] memory res) {\n    uint256 nbActiveStake = 0;\n    for (uint i = 0; i < stake[_user].length; i++) {\n      if(stake[_user][i].refund == false)\n        nbActiveStake++;\n    }\n    Stake[] memory _activeStake = new Stake[](nbActiveStake);\n    uint256 counter = 0;\n    for (uint i = 0; i < stake[_user].length; i++) {\n      if(stake[_user][i].refund == false) {\n        _activeStake[counter] = stake[_user][i];\n        counter++;\n      }\n    }\n    return _activeStake;\n  }\n}",
  "sourcePath": "/Users/chinoiserie/delivery/BLOCKCHAIN/Alyra/Developpeur-Ethereum-Template/7. Finance Dcentralise/Defi4/defi4/contracts/Stacking.sol",
  "compiler": {
    "name": "solc",
    "version": "0.8.9+commit.e5eed63a.Emscripten.clang"
  },
  "schemaVersion": "3.2.0",
  "updatedAt": "2022-02-23T14:42:17.501Z",
  "networkType": "ethereum",
  "devdoc": {
    "kind": "dev",
    "methods": {},
    "version": 1
  },
  "userdoc": {
    "kind": "user",
    "methods": {},
    "version": 1
  }
}