{
  "contractName": "Stacking",
  "abi": [
    {
      "inputs": [],
      "stateMutability": "nonpayable",
      "type": "constructor"
    },
    {
      "anonymous": false,
      "inputs": [
        {
          "indexed": false,
          "internalType": "address",
          "name": "_erc20",
          "type": "address"
        },
        {
          "indexed": false,
          "internalType": "address",
          "name": "_from",
          "type": "address"
        },
        {
          "indexed": false,
          "internalType": "uint256",
          "name": "_reward",
          "type": "uint256"
        }
      ],
      "name": "ClaimReward",
      "type": "event"
    },
    {
      "anonymous": false,
      "inputs": [
        {
          "indexed": false,
          "internalType": "address",
          "name": "_erc20",
          "type": "address"
        },
        {
          "indexed": false,
          "internalType": "address",
          "name": "_from",
          "type": "address"
        },
        {
          "indexed": false,
          "internalType": "uint256",
          "name": "_amount",
          "type": "uint256"
        }
      ],
      "name": "NewStake",
      "type": "event"
    },
    {
      "anonymous": false,
      "inputs": [
        {
          "indexed": false,
          "internalType": "address",
          "name": "_erc20",
          "type": "address"
        },
        {
          "indexed": false,
          "internalType": "address",
          "name": "_from",
          "type": "address"
        },
        {
          "indexed": false,
          "internalType": "uint256",
          "name": "_amount",
          "type": "uint256"
        }
      ],
      "name": "Unstake",
      "type": "event"
    },
    {
      "inputs": [],
      "name": "interest",
      "outputs": [
        {
          "internalType": "uint256",
          "name": "",
          "type": "uint256"
        }
      ],
      "stateMutability": "view",
      "type": "function",
      "constant": true
    },
    {
      "inputs": [],
      "name": "interestPeriod",
      "outputs": [
        {
          "internalType": "uint256",
          "name": "",
          "type": "uint256"
        }
      ],
      "stateMutability": "view",
      "type": "function",
      "constant": true
    },
    {
      "inputs": [],
      "name": "owner",
      "outputs": [
        {
          "internalType": "address",
          "name": "",
          "type": "address"
        }
      ],
      "stateMutability": "view",
      "type": "function",
      "constant": true
    },
    {
      "inputs": [
        {
          "internalType": "uint256",
          "name": "",
          "type": "uint256"
        }
      ],
      "name": "pair",
      "outputs": [
        {
          "internalType": "string",
          "name": "name",
          "type": "string"
        },
        {
          "internalType": "address",
          "name": "addrERC",
          "type": "address"
        },
        {
          "internalType": "address",
          "name": "pair",
          "type": "address"
        },
        {
          "internalType": "uint256",
          "name": "decimal",
          "type": "uint256"
        }
      ],
      "stateMutability": "view",
      "type": "function",
      "constant": true
    },
    {
      "inputs": [
        {
          "internalType": "address",
          "name": "",
          "type": "address"
        },
        {
          "internalType": "uint256",
          "name": "",
          "type": "uint256"
        }
      ],
      "name": "stake",
      "outputs": [
        {
          "internalType": "contract ERC20",
          "name": "token",
          "type": "address"
        },
        {
          "internalType": "uint256",
          "name": "depositAmount",
          "type": "uint256"
        },
        {
          "internalType": "uint256",
          "name": "timeStake",
          "type": "uint256"
        },
        {
          "internalType": "bool",
          "name": "refund",
          "type": "bool"
        }
      ],
      "stateMutability": "view",
      "type": "function",
      "constant": true
    },
    {
      "inputs": [
        {
          "internalType": "address",
          "name": "_new",
          "type": "address"
        }
      ],
      "name": "setOwner",
      "outputs": [],
      "stateMutability": "nonpayable",
      "type": "function"
    },
    {
      "inputs": [
        {
          "internalType": "address",
          "name": "_contract",
          "type": "address"
        }
      ],
      "name": "setMyToken",
      "outputs": [],
      "stateMutability": "nonpayable",
      "type": "function"
    },
    {
      "inputs": [
        {
          "internalType": "string",
          "name": "_name",
          "type": "string"
        },
        {
          "internalType": "address",
          "name": "_erc",
          "type": "address"
        },
        {
          "internalType": "address",
          "name": "_pair",
          "type": "address"
        },
        {
          "internalType": "uint256",
          "name": "_decimal",
          "type": "uint256"
        }
      ],
      "name": "setPair",
      "outputs": [],
      "stateMutability": "nonpayable",
      "type": "function"
    },
    {
      "inputs": [
        {
          "internalType": "string",
          "name": "_name",
          "type": "string"
        },
        {
          "internalType": "address",
          "name": "_erc20",
          "type": "address"
        },
        {
          "internalType": "address",
          "name": "_pair",
          "type": "address"
        },
        {
          "internalType": "uint256",
          "name": "_decimal",
          "type": "uint256"
        }
      ],
      "name": "changePair",
      "outputs": [],
      "stateMutability": "nonpayable",
      "type": "function"
    },
    {
      "inputs": [
        {
          "internalType": "address",
          "name": "_erc20",
          "type": "address"
        },
        {
          "internalType": "address",
          "name": "_user",
          "type": "address"
        }
      ],
      "name": "getIfStake",
      "outputs": [
        {
          "internalType": "bool",
          "name": "succ",
          "type": "bool"
        },
        {
          "internalType": "uint256",
          "name": "res",
          "type": "uint256"
        }
      ],
      "stateMutability": "view",
      "type": "function",
      "constant": true
    },
    {
      "inputs": [
        {
          "internalType": "address",
          "name": "_erc20",
          "type": "address"
        },
        {
          "internalType": "uint256",
          "name": "_amount",
          "type": "uint256"
        }
      ],
      "name": "stakeErc",
      "outputs": [],
      "stateMutability": "nonpayable",
      "type": "function"
    },
    {
      "inputs": [
        {
          "internalType": "address",
          "name": "_erc20",
          "type": "address"
        },
        {
          "internalType": "uint256",
          "name": "_amount",
          "type": "uint256"
        },
        {
          "internalType": "uint256",
          "name": "_tokenId",
          "type": "uint256"
        }
      ],
      "name": "unstake",
      "outputs": [],
      "stateMutability": "nonpayable",
      "type": "function"
    },
    {
      "inputs": [
        {
          "internalType": "address",
          "name": "_erc20",
          "type": "address"
        }
      ],
      "name": "getStakeIdToWithdraw",
      "outputs": [
        {
          "internalType": "uint256",
          "name": "tokenId",
          "type": "uint256"
        }
      ],
      "stateMutability": "view",
      "type": "function",
      "constant": true
    },
    {
      "inputs": [
        {
          "internalType": "uint256",
          "name": "_tokenId",
          "type": "uint256"
        },
        {
          "internalType": "address",
          "name": "_pair",
          "type": "address"
        },
        {
          "internalType": "uint256",
          "name": "_decimals",
          "type": "uint256"
        }
      ],
      "name": "calculReward",
      "outputs": [
        {
          "internalType": "uint256",
          "name": "reward",
          "type": "uint256"
        }
      ],
      "stateMutability": "view",
      "type": "function",
      "constant": true
    },
    {
      "inputs": [
        {
          "internalType": "address",
          "name": "_pair",
          "type": "address"
        }
      ],
      "name": "getPrice",
      "outputs": [
        {
          "internalType": "uint256",
          "name": "res",
          "type": "uint256"
        }
      ],
      "stateMutability": "view",
      "type": "function",
      "constant": true
    },
    {
      "inputs": [
        {
          "internalType": "address",
          "name": "_user",
          "type": "address"
        },
        {
          "internalType": "uint256",
          "name": "_tokenId",
          "type": "uint256"
        }
      ],
      "name": "getAmountStaked",
      "outputs": [
        {
          "internalType": "uint256",
          "name": "amount",
          "type": "uint256"
        }
      ],
      "stateMutability": "view",
      "type": "function",
      "constant": true
    },
    {
      "inputs": [
        {
          "internalType": "address",
          "name": "_user",
          "type": "address"
        }
      ],
      "name": "getActiveStake",
      "outputs": [
        {
          "components": [
            {
              "internalType": "contract ERC20",
              "name": "token",
              "type": "address"
            },
            {
              "internalType": "uint256",
              "name": "depositAmount",
              "type": "uint256"
            },
            {
              "internalType": "uint256",
              "name": "timeStake",
              "type": "uint256"
            },
            {
              "internalType": "bool",
              "name": "refund",
              "type": "bool"
            }
          ],
          "internalType": "struct Stacking.Stake[]",
          "name": "res",
          "type": "tuple[]"
        }
      ],
      "stateMutability": "view",
      "type": "function",
      "constant": true
    },
    {
      "inputs": [],
      "name": "getAllPair",
      "outputs": [
        {
          "components": [
            {
              "internalType": "string",
              "name": "name",
              "type": "string"
            },
            {
              "internalType": "address",
              "name": "addrERC",
              "type": "address"
            },
            {
              "internalType": "address",
              "name": "pair",
              "type": "address"
            },
            {
              "internalType": "uint256",
              "name": "decimal",
              "type": "uint256"
            }
          ],
          "internalType": "struct Stacking.Pair[]",
          "name": "",
          "type": "tuple[]"
        }
      ],
      "stateMutability": "view",
      "type": "function",
      "constant": true
    },
    {
      "inputs": [
        {
          "internalType": "address",
          "name": "_erc20",
          "type": "address"
        }
      ],
      "name": "getPair",
      "outputs": [
        {
          "internalType": "address",
          "name": "addr",
          "type": "address"
        }
      ],
      "stateMutability": "view",
      "type": "function",
      "constant": true
    },
    {
      "inputs": [
        {
          "internalType": "address",
          "name": "_erc20",
          "type": "address"
        }
      ],
      "name": "getDecimal",
      "outputs": [
        {
          "internalType": "uint256",
          "name": "decimal",
          "type": "uint256"
        }
      ],
      "stateMutability": "view",
      "type": "function",
      "constant": true
    }
  ],
  "bytecode": "0x608060405262015180600155600a6002556000600360006101000a81548160ff02191690831515021790555034801561003757600080fd5b50336000806101000a81548173ffffffffffffffffffffffffffffffffffffffff021916908373ffffffffffffffffffffffffffffffffffffffff160217905550614108806100876000396000f3fe608060405234801561001057600080fd5b5060043610610149576000357c010000000000000000000000000000000000000000000000000000000090048063a5638f41116100ca578063c392f7661161008e578063c392f766146103b1578063cc3885fe146103cf578063d0d7b14c146103eb578063d9267f0b14610409578063e5e6e4881461043957610149565b8063a5638f41146102f8578063adc9772e14610314578063b37a5f6a14610347578063bc734d5214610377578063bea32af31461039357610149565b80635f14d7c8116101115780635f14d7c81461022b578063645751af1461025b5780638da5cb5b1461028e578063966da2b8146102ac578063a2bc66be146102dc57610149565b806313af40351461014e5780631531f9c01461016a5780631a788a021461019a57806341976e09146101ca57806349e47070146101fa575b600080fd5b61016860048036038101906101639190612cb7565b610455565b005b610184600480360381019061017f9190612cb7565b610526565b6040516101919190612e7b565b60405180910390f35b6101b460048036038101906101af9190612cb7565b610872565b6040516101c19190612eac565b60405180910390f35b6101e460048036038101906101df9190612cb7565b61096c565b6040516101f19190612ed6565b60405180910390f35b610214600480360381019061020f9190612ef1565b610a1e565b604051610222929190612f40565b60405180910390f35b61024560048036038101906102409190612f95565b610b65565b6040516102529190612ed6565b60405180910390f35b61027560048036038101906102709190612fd5565b610bd2565b604051610285949392919061309b565b60405180910390f35b610296610cda565b6040516102a39190612eac565b60405180910390f35b6102c660048036038101906102c19190612cb7565b610cfe565b6040516102d39190612ed6565b60405180910390f35b6102f660048036038101906102f191906130e7565b610dd4565b005b610312600480360381019061030d919061326f565b6113e7565b005b61032e60048036038101906103299190612f95565b611645565b60405161033e9493929190613301565b60405180910390f35b610361600480360381019061035c9190613346565b6116bf565b60405161036e9190612ed6565b60405180910390f35b610391600480360381019061038c9190612cb7565b611857565b005b61039b611929565b6040516103a89190613517565b60405180910390f35b6103b9611ad0565b6040516103c69190612ed6565b60405180910390f35b6103e960048036038101906103e49190612f95565b611ad6565b005b6103f3611c1f565b6040516104009190612ed6565b60405180910390f35b610423600480360381019061041e9190612cb7565b611c25565b6040516104309190612ed6565b60405180910390f35b610453600480360381019061044e919061326f565b611dcf565b005b60008054906101000a900473ffffffffffffffffffffffffffffffffffffffff1673ffffffffffffffffffffffffffffffffffffffff163373ffffffffffffffffffffffffffffffffffffffff16146104e3576040517f08c379a00000000000000000000000000000000000000000000000000000000081526004016104da90613585565b60405180910390fd5b806000806101000a81548173ffffffffffffffffffffffffffffffffffffffff021916908373ffffffffffffffffffffffffffffffffffffffff16021790555050565b60606000805b600560008573ffffffffffffffffffffffffffffffffffffffff1673ffffffffffffffffffffffffffffffffffffffff168152602001908152602001600020805490508110156106145760001515600560008673ffffffffffffffffffffffffffffffffffffffff1673ffffffffffffffffffffffffffffffffffffffff16815260200190815260200160002082815481106105cb576105ca6135a5565b5b906000526020600020906004020160030160009054906101000a900460ff16151514156106015781806105fd90613603565b9250505b808061060c90613603565b91505061052c565b5060008167ffffffffffffffff81111561063157610630613144565b5b60405190808252806020026020018201604052801561066a57816020015b610657612b0e565b81526020019060019003908161064f5790505b5090506000805b600560008773ffffffffffffffffffffffffffffffffffffffff1673ffffffffffffffffffffffffffffffffffffffff168152602001908152602001600020805490508110156108665760001515600560008873ffffffffffffffffffffffffffffffffffffffff1673ffffffffffffffffffffffffffffffffffffffff16815260200190815260200160002082815481106107105761070f6135a5565b5b906000526020600020906004020160030160009054906101000a900460ff161515141561085357600560008773ffffffffffffffffffffffffffffffffffffffff1673ffffffffffffffffffffffffffffffffffffffff1681526020019081526020016000208181548110610788576107876135a5565b5b90600052602060002090600402016040518060800160405290816000820160009054906101000a900473ffffffffffffffffffffffffffffffffffffffff1673ffffffffffffffffffffffffffffffffffffffff1673ffffffffffffffffffffffffffffffffffffffff16815260200160018201548152602001600282015481526020016003820160009054906101000a900460ff161515151581525050838381518110610839576108386135a5565b5b6020026020010181905250818061084f90613603565b9250505b808061085e90613603565b915050610671565b50819350505050919050565b600080600090505b600480549050811015610961578273ffffffffffffffffffffffffffffffffffffffff16600482815481106108b2576108b16135a5565b5b906000526020600020906004020160010160009054906101000a900473ffffffffffffffffffffffffffffffffffffffff1673ffffffffffffffffffffffffffffffffffffffff16141561094e5760048181548110610914576109136135a5565b5b906000526020600020906004020160020160009054906101000a900473ffffffffffffffffffffffffffffffffffffffff16915050610967565b808061095990613603565b91505061087a565b50600090505b919050565b60008082905060008173ffffffffffffffffffffffffffffffffffffffff1663feaf968c6040518163ffffffff167c010000000000000000000000000000000000000000000000000000000002815260040160a06040518083038186803b1580156109d657600080fd5b505afa1580156109ea573d6000803e3d6000fd5b505050506040513d601f19601f82011682018060405250810190610a0e91906136d9565b5050509150508092505050919050565b6000806000806000905060005b600560008773ffffffffffffffffffffffffffffffffffffffff1673ffffffffffffffffffffffffffffffffffffffff16815260200190815260200160002080549050811015610b53578673ffffffffffffffffffffffffffffffffffffffff16600560008873ffffffffffffffffffffffffffffffffffffffff1673ffffffffffffffffffffffffffffffffffffffff1681526020019081526020016000208281548110610add57610adc6135a5565b5b906000526020600020906004020160000160009054906101000a900473ffffffffffffffffffffffffffffffffffffffff1673ffffffffffffffffffffffffffffffffffffffff161415610b405760019250809150828294509450505050610b5e565b8080610b4b90613603565b915050610a2b565b506000809350935050505b9250929050565b6000600560008473ffffffffffffffffffffffffffffffffffffffff1673ffffffffffffffffffffffffffffffffffffffff1681526020019081526020016000208281548110610bb857610bb76135a5565b5b906000526020600020906004020160010154905092915050565b60048181548110610be257600080fd5b9060005260206000209060040201600091509050806000018054610c0590613783565b80601f0160208091040260200160405190810160405280929190818152602001828054610c3190613783565b8015610c7e5780601f10610c5357610100808354040283529160200191610c7e565b820191906000526020600020905b815481529060010190602001808311610c6157829003601f168201915b5050505050908060010160009054906101000a900473ffffffffffffffffffffffffffffffffffffffff16908060020160009054906101000a900473ffffffffffffffffffffffffffffffffffffffff16908060030154905084565b60008054906101000a900473ffffffffffffffffffffffffffffffffffffffff1681565b600080600090505b600480549050811015610dcd578273ffffffffffffffffffffffffffffffffffffffff1660048281548110610d3e57610d3d6135a5565b5b906000526020600020906004020160010160009054906101000a900473ffffffffffffffffffffffffffffffffffffffff1673ffffffffffffffffffffffffffffffffffffffff161415610dba5760048181548110610da057610d9f6135a5565b5b906000526020600020906004020160030154915050610dcf565b8080610dc590613603565b915050610d06565b505b919050565b60001515600360009054906101000a900460ff16151514610e2a576040517f08c379a0000000000000000000000000000000000000000000000000000000008152600401610e2190613801565b60405180910390fd5b6001600360006101000a81548160ff0219169083151502179055506000600560003373ffffffffffffffffffffffffffffffffffffffff1673ffffffffffffffffffffffffffffffffffffffff1681526020019081526020016000208281548110610e9857610e976135a5565b5b90600052602060002090600402016040518060800160405290816000820160009054906101000a900473ffffffffffffffffffffffffffffffffffffffff1673ffffffffffffffffffffffffffffffffffffffff1673ffffffffffffffffffffffffffffffffffffffff16815260200160018201548152602001600282015481526020016003820160009054906101000a900460ff16151515158152505090508373ffffffffffffffffffffffffffffffffffffffff16816000015173ffffffffffffffffffffffffffffffffffffffff1614610faa576040517f08c379a0000000000000000000000000000000000000000000000000000000008152600401610fa19061386d565b60405180910390fd5b8060200151831115610ff1576040517f08c379a0000000000000000000000000000000000000000000000000000000008152600401610fe8906138ff565b60405180910390fd5b60008311611034576040517f08c379a000000000000000000000000000000000000000000000000000000000815260040161102b9061396b565b60405180910390fd5b806000015173ffffffffffffffffffffffffffffffffffffffff1663a9059cbb33856040518363ffffffff167c010000000000000000000000000000000000000000000000000000000002815260040161108f92919061398b565b602060405180830381600087803b1580156110a957600080fd5b505af11580156110bd573d6000803e3d6000fd5b505050506040513d601f19601f820116820180604052508101906110e191906139e0565b611120576040517f08c379a000000000000000000000000000000000000000000000000000000000815260040161111790613a59565b60405180910390fd5b60001515816060015115151461116b576040517f08c379a000000000000000000000000000000000000000000000000000000000815260040161116290613ac5565b60405180910390fd5b6111758483611fd2565b6111b4576040517f08c379a00000000000000000000000000000000000000000000000000000000081526004016111ab90613b31565b60405180910390fd5b8060200151831061123b576001600560003373ffffffffffffffffffffffffffffffffffffffff1673ffffffffffffffffffffffffffffffffffffffff1681526020019081526020016000208381548110611212576112116135a5565b5b906000526020600020906004020160030160006101000a81548160ff0219169083151502179055505b6112b083600560003373ffffffffffffffffffffffffffffffffffffffff1673ffffffffffffffffffffffffffffffffffffffff16815260200190815260200160002084815481106112905761128f6135a5565b5b9060005260206000209060040201600101546123a390919063ffffffff16565b600560003373ffffffffffffffffffffffffffffffffffffffff1673ffffffffffffffffffffffffffffffffffffffff1681526020019081526020016000208381548110611301576113006135a5565b5b90600052602060002090600402016001018190555062015180426113259190613b51565b600560003373ffffffffffffffffffffffffffffffffffffffff1673ffffffffffffffffffffffffffffffffffffffff1681526020019081526020016000208381548110611376576113756135a5565b5b9060005260206000209060040201600201819055507f390b1276974b9463e5d66ab10df69b6f3d7b930eb066a0e66df327edd2cc811c8433856040516113be93929190613b85565b60405180910390a1506000600360006101000a81548160ff021916908315150217905550505050565b60008054906101000a900473ffffffffffffffffffffffffffffffffffffffff1673ffffffffffffffffffffffffffffffffffffffff163373ffffffffffffffffffffffffffffffffffffffff1614611475576040517f08c379a000000000000000000000000000000000000000000000000000000000815260040161146c90613585565b60405180910390fd5b60005b60048054905081101561163e578373ffffffffffffffffffffffffffffffffffffffff16600482815481106114b0576114af6135a5565b5b906000526020600020906004020160010160009054906101000a900473ffffffffffffffffffffffffffffffffffffffff1673ffffffffffffffffffffffffffffffffffffffff16141561162b578460048281548110611513576115126135a5565b5b90600052602060002090600402016000019080519060200190611537929190612b4e565b50836004828154811061154d5761154c6135a5565b5b906000526020600020906004020160010160006101000a81548173ffffffffffffffffffffffffffffffffffffffff021916908373ffffffffffffffffffffffffffffffffffffffff16021790555082600482815481106115b1576115b06135a5565b5b906000526020600020906004020160020160006101000a81548173ffffffffffffffffffffffffffffffffffffffff021916908373ffffffffffffffffffffffffffffffffffffffff1602179055508160048281548110611615576116146135a5565b5b9060005260206000209060040201600301819055505b808061163690613603565b915050611478565b5050505050565b6005602052816000526040600020818154811061166157600080fd5b9060005260206000209060040201600091509150508060000160009054906101000a900473ffffffffffffffffffffffffffffffffffffffff16908060010154908060020154908060030160009054906101000a900460ff16905084565b600080611737600560003373ffffffffffffffffffffffffffffffffffffffff1673ffffffffffffffffffffffffffffffffffffffff1681526020019081526020016000208681548110611716576117156135a5565b5b906000526020600020906004020160020154426123a390919063ffffffff16565b90506000611750600154836123b990919063ffffffff16565b9050600061177b85600a6117649190613cef565b61176d8861096c565b6123b990919063ffffffff16565b905060006117f482600560003373ffffffffffffffffffffffffffffffffffffffff1673ffffffffffffffffffffffffffffffffffffffff1681526020019081526020016000208a815481106117d4576117d36135a5565b5b9060005260206000209060040201600101546123cf90919063ffffffff16565b9050600061184661016c6118388661182a606461181c600254896123cf90919063ffffffff16565b6123b990919063ffffffff16565b6123cf90919063ffffffff16565b6123b990919063ffffffff16565b905080955050505050509392505050565b60008054906101000a900473ffffffffffffffffffffffffffffffffffffffff1673ffffffffffffffffffffffffffffffffffffffff163373ffffffffffffffffffffffffffffffffffffffff16146118e5576040517f08c379a00000000000000000000000000000000000000000000000000000000081526004016118dc90613585565b60405180910390fd5b80600360016101000a81548173ffffffffffffffffffffffffffffffffffffffff021916908373ffffffffffffffffffffffffffffffffffffffff16021790555050565b60606004805480602002602001604051908101604052809291908181526020016000905b82821015611ac7578382906000526020600020906004020160405180608001604052908160008201805461198090613783565b80601f01602080910402602001604051908101604052809291908181526020018280546119ac90613783565b80156119f95780601f106119ce576101008083540402835291602001916119f9565b820191906000526020600020905b8154815290600101906020018083116119dc57829003601f168201915b505050505081526020016001820160009054906101000a900473ffffffffffffffffffffffffffffffffffffffff1673ffffffffffffffffffffffffffffffffffffffff1673ffffffffffffffffffffffffffffffffffffffff1681526020016002820160009054906101000a900473ffffffffffffffffffffffffffffffffffffffff1673ffffffffffffffffffffffffffffffffffffffff1673ffffffffffffffffffffffffffffffffffffffff1681526020016003820154815250508152602001906001019061194d565b50505050905090565b60025481565b60001515600360009054906101000a900460ff16151514611b2c576040517f08c379a0000000000000000000000000000000000000000000000000000000008152600401611b2390613801565b60405180910390fd5b6001600360006101000a81548160ff021916908315150217905550600080611b548433610a1e565b91509150600015158215151415611bb357611b6f84846123e5565b611bae576040517f08c379a0000000000000000000000000000000000000000000000000000000008152600401611ba590613d86565b60405180910390fd5b611bfe565b611bbe8484836126e2565b611bfd576040517f08c379a0000000000000000000000000000000000000000000000000000000008152600401611bf490613df2565b60405180910390fd5b5b50506000600360006101000a81548160ff0219169083151502179055505050565b60015481565b600080600090505b600560003373ffffffffffffffffffffffffffffffffffffffff1673ffffffffffffffffffffffffffffffffffffffff16815260200190815260200160002080549050811015611dc8578273ffffffffffffffffffffffffffffffffffffffff16600560003373ffffffffffffffffffffffffffffffffffffffff1673ffffffffffffffffffffffffffffffffffffffff1681526020019081526020016000208281548110611cdf57611cde6135a5565b5b906000526020600020906004020160000160009054906101000a900473ffffffffffffffffffffffffffffffffffffffff1673ffffffffffffffffffffffffffffffffffffffff16148015611da7575060001515600560003373ffffffffffffffffffffffffffffffffffffffff1673ffffffffffffffffffffffffffffffffffffffff1681526020019081526020016000208281548110611d8457611d836135a5565b5b906000526020600020906004020160030160009054906101000a900460ff161515145b15611db55780915050611dca565b8080611dc090613603565b915050611c2d565b505b919050565b60008054906101000a900473ffffffffffffffffffffffffffffffffffffffff1673ffffffffffffffffffffffffffffffffffffffff163373ffffffffffffffffffffffffffffffffffffffff1614611e5d576040517f08c379a0000000000000000000000000000000000000000000000000000000008152600401611e5490613585565b60405180910390fd5b611e65612bd4565b84816000018190525083816020019073ffffffffffffffffffffffffffffffffffffffff16908173ffffffffffffffffffffffffffffffffffffffff168152505082816040019073ffffffffffffffffffffffffffffffffffffffff16908173ffffffffffffffffffffffffffffffffffffffff16815250508181606001818152505060048190806001815401808255809150506001900390600052602060002090600402016000909190919091506000820151816000019080519060200190611f30929190612b4e565b5060208201518160010160006101000a81548173ffffffffffffffffffffffffffffffffffffffff021916908373ffffffffffffffffffffffffffffffffffffffff16021790555060408201518160020160006101000a81548173ffffffffffffffffffffffffffffffffffffffff021916908373ffffffffffffffffffffffffffffffffffffffff1602179055506060820151816003015550505050505050565b600080600560003373ffffffffffffffffffffffffffffffffffffffff1673ffffffffffffffffffffffffffffffffffffffff1681526020019081526020016000208381548110612026576120256135a5565b5b90600052602060002090600402016040518060800160405290816000820160009054906101000a900473ffffffffffffffffffffffffffffffffffffffff1673ffffffffffffffffffffffffffffffffffffffff1673ffffffffffffffffffffffffffffffffffffffff16815260200160018201548152602001600282015481526020016003820160009054906101000a900460ff161515151581525050905060006120d185610872565b9050600073ffffffffffffffffffffffffffffffffffffffff168173ffffffffffffffffffffffffffffffffffffffff161415612143576040517f08c379a000000000000000000000000000000000000000000000000000000000815260040161213a90613e5e565b60405180910390fd5b8473ffffffffffffffffffffffffffffffffffffffff16826000015173ffffffffffffffffffffffffffffffffffffffff16146121b5576040517f08c379a00000000000000000000000000000000000000000000000000000000081526004016121ac9061386d565b60405180910390fd5b60006121d2856121c488610872565b6121cd89610cfe565b6116bf565b9050600081111561239557600360019054906101000a900473ffffffffffffffffffffffffffffffffffffffff1673ffffffffffffffffffffffffffffffffffffffff166307420a4133836040518363ffffffff167c010000000000000000000000000000000000000000000000000000000002815260040161225692919061398b565b602060405180830381600087803b15801561227057600080fd5b505af1158015612284573d6000803e3d6000fd5b505050506040513d601f19601f820116820180604052508101906122a891906139e0565b6122e7576040517f08c379a00000000000000000000000000000000000000000000000000000000081526004016122de90613eca565b60405180910390fd5b42600560003373ffffffffffffffffffffffffffffffffffffffff1673ffffffffffffffffffffffffffffffffffffffff1681526020019081526020016000208681548110612339576123386135a5565b5b9060005260206000209060040201600201819055507f7e77f685b38c861064cb08f2776eb5dfd3c82f652ed9f21221b8c53b75628e5186338360405161238193929190613b85565b60405180910390a16001935050505061239d565b600093505050505b92915050565b600081836123b19190613b51565b905092915050565b600081836123c79190613f19565b905092915050565b600081836123dd9190613f4a565b905092915050565b60006123ef612b0e565b60006123fa85610872565b9050600073ffffffffffffffffffffffffffffffffffffffff168173ffffffffffffffffffffffffffffffffffffffff16141561246c576040517f08c379a000000000000000000000000000000000000000000000000000000000815260040161246390613ff0565b60405180910390fd5b84826000019073ffffffffffffffffffffffffffffffffffffffff16908173ffffffffffffffffffffffffffffffffffffffff1681525050838260200181815250506301dfe200426124be9190613b51565b826040018181525050600560003373ffffffffffffffffffffffffffffffffffffffff1673ffffffffffffffffffffffffffffffffffffffff16815260200190815260200160002082908060018154018082558091505060019003906000526020600020906004020160009091909190915060008201518160000160006101000a81548173ffffffffffffffffffffffffffffffffffffffff021916908373ffffffffffffffffffffffffffffffffffffffff160217905550602082015181600101556040820151816002015560608201518160030160006101000a81548160ff0219169083151502179055505050816000015173ffffffffffffffffffffffffffffffffffffffff166323b872dd3330876040518463ffffffff167c010000000000000000000000000000000000000000000000000000000002815260040161260a93929190613b85565b602060405180830381600087803b15801561262457600080fd5b505af1158015612638573d6000803e3d6000fd5b505050506040513d601f19601f8201168201806040525081019061265c91906139e0565b61269b576040517f08c379a00000000000000000000000000000000000000000000000000000000081526004016126929061405c565b60405180910390fd5b7f21ed7388df53e1bd56c33fd695bc2429685f2eca4f72839f39743aa22bccd6428533866040516126ce93929190613b85565b60405180910390a160019250505092915050565b600080600560003373ffffffffffffffffffffffffffffffffffffffff1673ffffffffffffffffffffffffffffffffffffffff1681526020019081526020016000208381548110612736576127356135a5565b5b90600052602060002090600402016040518060800160405290816000820160009054906101000a900473ffffffffffffffffffffffffffffffffffffffff1673ffffffffffffffffffffffffffffffffffffffff1673ffffffffffffffffffffffffffffffffffffffff16815260200160018201548152602001600282015481526020016003820160009054906101000a900460ff161515151581525050905060006127e186610872565b9050600073ffffffffffffffffffffffffffffffffffffffff168173ffffffffffffffffffffffffffffffffffffffff161415612853576040517f08c379a000000000000000000000000000000000000000000000000000000000815260040161284a90613ff0565b60405180910390fd5b8573ffffffffffffffffffffffffffffffffffffffff16826000015173ffffffffffffffffffffffffffffffffffffffff161461288f57600080fd5b6128998685611fd2565b50816000015173ffffffffffffffffffffffffffffffffffffffff166323b872dd3330886040518463ffffffff167c01000000000000000000000000000000000000000000000000000000000281526004016128f793929190613b85565b602060405180830381600087803b15801561291157600080fd5b505af1158015612925573d6000803e3d6000fd5b505050506040513d601f19601f8201168201806040525081019061294991906139e0565b612988576040517f08c379a000000000000000000000000000000000000000000000000000000000815260040161297f9061405c565b60405180910390fd5b61299f858360200151612af890919063ffffffff16565b8260200181815250506301dfe200426129b89190613b51565b826040018181525050600082606001901515908115158152505081600560003373ffffffffffffffffffffffffffffffffffffffff1673ffffffffffffffffffffffffffffffffffffffff1681526020019081526020016000208581548110612a2457612a236135a5565b5b906000526020600020906004020160008201518160000160006101000a81548173ffffffffffffffffffffffffffffffffffffffff021916908373ffffffffffffffffffffffffffffffffffffffff160217905550602082015181600101556040820151816002015560608201518160030160006101000a81548160ff0219169083151502179055509050507f21ed7388df53e1bd56c33fd695bc2429685f2eca4f72839f39743aa22bccd642863387604051612ae393929190613b85565b60405180910390a16001925050509392505050565b60008183612b06919061407c565b905092915050565b6040518060800160405280600073ffffffffffffffffffffffffffffffffffffffff16815260200160008152602001600081526020016000151581525090565b828054612b5a90613783565b90600052602060002090601f016020900481019282612b7c5760008555612bc3565b82601f10612b9557805160ff1916838001178555612bc3565b82800160010185558215612bc3579182015b82811115612bc2578251825591602001919060010190612ba7565b5b509050612bd09190612c28565b5090565b604051806080016040528060608152602001600073ffffffffffffffffffffffffffffffffffffffff168152602001600073ffffffffffffffffffffffffffffffffffffffff168152602001600081525090565b5b80821115612c41576000816000905550600101612c29565b5090565b6000604051905090565b600080fd5b600080fd5b600073ffffffffffffffffffffffffffffffffffffffff82169050919050565b6000612c8482612c59565b9050919050565b612c9481612c79565b8114612c9f57600080fd5b50565b600081359050612cb181612c8b565b92915050565b600060208284031215612ccd57612ccc612c4f565b5b6000612cdb84828501612ca2565b91505092915050565b600081519050919050565b600082825260208201905092915050565b6000819050602082019050919050565b6000819050919050565b6000612d35612d30612d2b84612c59565b612d10565b612c59565b9050919050565b6000612d4782612d1a565b9050919050565b6000612d5982612d3c565b9050919050565b612d6981612d4e565b82525050565b6000819050919050565b612d8281612d6f565b82525050565b60008115159050919050565b612d9d81612d88565b82525050565b608082016000820151612db96000850182612d60565b506020820151612dcc6020850182612d79565b506040820151612ddf6040850182612d79565b506060820151612df26060850182612d94565b50505050565b6000612e048383612da3565b60808301905092915050565b6000602082019050919050565b6000612e2882612ce4565b612e328185612cef565b9350612e3d83612d00565b8060005b83811015612e6e578151612e558882612df8565b9750612e6083612e10565b925050600181019050612e41565b5085935050505092915050565b60006020820190508181036000830152612e958184612e1d565b905092915050565b612ea681612c79565b82525050565b6000602082019050612ec16000830184612e9d565b92915050565b612ed081612d6f565b82525050565b6000602082019050612eeb6000830184612ec7565b92915050565b60008060408385031215612f0857612f07612c4f565b5b6000612f1685828601612ca2565b9250506020612f2785828601612ca2565b9150509250929050565b612f3a81612d88565b82525050565b6000604082019050612f556000830185612f31565b612f626020830184612ec7565b9392505050565b612f7281612d6f565b8114612f7d57600080fd5b50565b600081359050612f8f81612f69565b92915050565b60008060408385031215612fac57612fab612c4f565b5b6000612fba85828601612ca2565b9250506020612fcb85828601612f80565b9150509250929050565b600060208284031215612feb57612fea612c4f565b5b6000612ff984828501612f80565b91505092915050565b600081519050919050565b600082825260208201905092915050565b60005b8381101561303c578082015181840152602081019050613021565b8381111561304b576000848401525b50505050565b6000601f19601f8301169050919050565b600061306d82613002565b613077818561300d565b935061308781856020860161301e565b61309081613051565b840191505092915050565b600060808201905081810360008301526130b58187613062565b90506130c46020830186612e9d565b6130d16040830185612e9d565b6130de6060830184612ec7565b95945050505050565b600080600060608486031215613100576130ff612c4f565b5b600061310e86828701612ca2565b935050602061311f86828701612f80565b925050604061313086828701612f80565b9150509250925092565b600080fd5b600080fd5b7f4e487b7100000000000000000000000000000000000000000000000000000000600052604160045260246000fd5b61317c82613051565b810181811067ffffffffffffffff8211171561319b5761319a613144565b5b80604052505050565b60006131ae612c45565b90506131ba8282613173565b919050565b600067ffffffffffffffff8211156131da576131d9613144565b5b6131e382613051565b9050602081019050919050565b82818337600083830152505050565b600061321261320d846131bf565b6131a4565b90508281526020810184848401111561322e5761322d61313f565b5b6132398482856131f0565b509392505050565b600082601f8301126132565761325561313a565b5b81356132668482602086016131ff565b91505092915050565b6000806000806080858703121561328957613288612c4f565b5b600085013567ffffffffffffffff8111156132a7576132a6612c54565b5b6132b387828801613241565b94505060206132c487828801612ca2565b93505060406132d587828801612ca2565b92505060606132e687828801612f80565b91505092959194509250565b6132fb81612d4e565b82525050565b600060808201905061331660008301876132f2565b6133236020830186612ec7565b6133306040830185612ec7565b61333d6060830184612f31565b95945050505050565b60008060006060848603121561335f5761335e612c4f565b5b600061336d86828701612f80565b935050602061337e86828701612ca2565b925050604061338f86828701612f80565b9150509250925092565b600081519050919050565b600082825260208201905092915050565b6000819050602082019050919050565b600082825260208201905092915050565b60006133e182613002565b6133eb81856133c5565b93506133fb81856020860161301e565b61340481613051565b840191505092915050565b61341881612c79565b82525050565b6000608083016000830151848203600086015261343b82826133d6565b9150506020830151613450602086018261340f565b506040830151613463604086018261340f565b5060608301516134766060860182612d79565b508091505092915050565b600061348d838361341e565b905092915050565b6000602082019050919050565b60006134ad82613399565b6134b781856133a4565b9350836020820285016134c9856133b5565b8060005b8581101561350557848403895281516134e68582613481565b94506134f183613495565b925060208a019950506001810190506134cd565b50829750879550505050505092915050565b6000602082019050818103600083015261353181846134a2565b905092915050565b7f5520617265206e6f7420746865206f776e657200000000000000000000000000600082015250565b600061356f60138361300d565b915061357a82613539565b602082019050919050565b6000602082019050818103600083015261359e81613562565b9050919050565b7f4e487b7100000000000000000000000000000000000000000000000000000000600052603260045260246000fd5b7f4e487b7100000000000000000000000000000000000000000000000000000000600052601160045260246000fd5b600061360e82612d6f565b91507fffffffffffffffffffffffffffffffffffffffffffffffffffffffffffffffff821415613641576136406135d4565b5b600182019050919050565b600069ffffffffffffffffffff82169050919050565b61366b8161364c565b811461367657600080fd5b50565b60008151905061368881613662565b92915050565b6000819050919050565b6136a18161368e565b81146136ac57600080fd5b50565b6000815190506136be81613698565b92915050565b6000815190506136d381612f69565b92915050565b600080600080600060a086880312156136f5576136f4612c4f565b5b600061370388828901613679565b9550506020613714888289016136af565b9450506040613725888289016136c4565b9350506060613736888289016136c4565b925050608061374788828901613679565b9150509295509295909350565b7f4e487b7100000000000000000000000000000000000000000000000000000000600052602260045260246000fd5b6000600282049050600182168061379b57607f821691505b602082108114156137af576137ae613754565b5b50919050565b7f7265616e7472616e637900000000000000000000000000000000000000000000600082015250565b60006137eb600a8361300d565b91506137f6826137b5565b602082019050919050565b6000602082019050818103600083015261381a816137de565b9050919050565b7f496e76616c696420546f6b656e00000000000000000000000000000000000000600082015250565b6000613857600d8361300d565b915061386282613821565b602082019050919050565b600060208201905081810360008301526138868161384a565b9050919050565b7f57616e7420746f207769746864726177206d6f7265207468616e206465706f7360008201527f6974000000000000000000000000000000000000000000000000000000000000602082015250565b60006138e960228361300d565b91506138f48261388d565b604082019050919050565b60006020820190508181036000830152613918816138dc565b9050919050565b7f63616e206e6f74207769746864726177207a65726f0000000000000000000000600082015250565b600061395560158361300d565b91506139608261391f565b602082019050919050565b6000602082019050818103600083015261398481613948565b9050919050565b60006040820190506139a06000830185612e9d565b6139ad6020830184612ec7565b9392505050565b6139bd81612d88565b81146139c857600080fd5b50565b6000815190506139da816139b4565b92915050565b6000602082840312156139f6576139f5612c4f565b5b6000613a04848285016139cb565b91505092915050565b7f4661696c656420746f207374616b652066756e64000000000000000000000000600082015250565b6000613a4360148361300d565b9150613a4e82613a0d565b602082019050919050565b60006020820190508181036000830152613a7281613a36565b9050919050565b7f416c726561647920726566756e64000000000000000000000000000000000000600082015250565b6000613aaf600e8361300d565b9150613aba82613a79565b602082019050919050565b60006020820190508181036000830152613ade81613aa2565b9050919050565b7f4e65656420746f207374616b65206d696e696d756d2031206461790000000000600082015250565b6000613b1b601b8361300d565b9150613b2682613ae5565b602082019050919050565b60006020820190508181036000830152613b4a81613b0e565b9050919050565b6000613b5c82612d6f565b9150613b6783612d6f565b925082821015613b7a57613b796135d4565b5b828203905092915050565b6000606082019050613b9a6000830186612e9d565b613ba76020830185612e9d565b613bb46040830184612ec7565b949350505050565b6000600282049050919050565b6000808291508390505b6001851115613c1357808604811115613bef57613bee6135d4565b5b6001851615613bfe5780820291505b8081029050613c0c85613bbc565b9450613bd3565b94509492505050565b600082613c2c5760019050613ce8565b81613c3a5760009050613ce8565b8160018114613c505760028114613c5a57613c89565b6001915050613ce8565b60ff841115613c6c57613c6b6135d4565b5b8360020a915084821115613c8357613c826135d4565b5b50613ce8565b5060208310610133831016604e8410600b8410161715613cbe5782820a905083811115613cb957613cb86135d4565b5b613ce8565b613ccb8484846001613bc9565b92509050818404811115613ce257613ce16135d4565b5b81810290505b9392505050565b6000613cfa82612d6f565b9150613d0583612d6f565b9250613d327fffffffffffffffffffffffffffffffffffffffffffffffffffffffffffffffff8484613c1c565b905092915050565b7f6661696c656420746f207374616b650000000000000000000000000000000000600082015250565b6000613d70600f8361300d565b9150613d7b82613d3a565b602082019050919050565b60006020820190508181036000830152613d9f81613d63565b9050919050565b7f6661696c656420746f20616464207374616b6500000000000000000000000000600082015250565b6000613ddc60138361300d565b9150613de782613da6565b602082019050919050565b60006020820190508181036000830152613e0b81613dcf565b9050919050565b7f5468697320746f6b656e2063616e277420686176652072657761726400000000600082015250565b6000613e48601c8361300d565b9150613e5382613e12565b602082019050919050565b60006020820190508181036000830152613e7781613e3b565b9050919050565b7f6661696c656420746f20636c61696d2072657761726400000000000000000000600082015250565b6000613eb460168361300d565b9150613ebf82613e7e565b602082019050919050565b60006020820190508181036000830152613ee381613ea7565b9050919050565b7f4e487b7100000000000000000000000000000000000000000000000000000000600052601260045260246000fd5b6000613f2482612d6f565b9150613f2f83612d6f565b925082613f3f57613f3e613eea565b5b828204905092915050565b6000613f5582612d6f565b9150613f6083612d6f565b9250817fffffffffffffffffffffffffffffffffffffffffffffffffffffffffffffffff0483118215151615613f9957613f986135d4565b5b828202905092915050565b7f43616e2774207374616b65207468697320746f6b656e00000000000000000000600082015250565b6000613fda60168361300d565b9150613fe582613fa4565b602082019050919050565b6000602082019050818103600083015261400981613fcd565b9050919050565b7f5265766572743a2063616e2774207472616e736665722066756e647300000000600082015250565b6000614046601c8361300d565b915061405182614010565b602082019050919050565b6000602082019050818103600083015261407581614039565b9050919050565b600061408782612d6f565b915061409283612d6f565b9250827fffffffffffffffffffffffffffffffffffffffffffffffffffffffffffffffff038211156140c7576140c66135d4565b5b82820190509291505056fea2646970667358221220c1e8b39539f14a73f8b096e0682dceeeba4a3fe1ac4c848345161a18545594c364736f6c63430008090033",
  "immutableReferences": {},
  "source": "// SPDX-License-Identifier: MIT\npragma solidity >=0.4.22 <0.9.0;\n\nimport \"../client/node_modules/@openzeppelin/contracts/token/ERC20/ERC20.sol\";\nimport \"../client/node_modules/@openzeppelin/contracts/utils/math/SafeMath.sol\";\nimport \"./MyERC20.sol\";\nimport \"../client/node_modules/@chainlink/contracts/src/v0.8/interfaces/AggregatorV3Interface.sol\";\n\ncontract Stacking {\n  using SafeMath for uint;\n  address public owner;\n  uint256 public interestPeriod = 1 days;\n  uint256 public interest = 10; //10% par ans\n  bool reantrancy = false;\n  MyERC20 myToken;\n\n  struct Stake {\n    ERC20 token;\n    uint256 depositAmount;\n    uint256 timeStake; // when stake begin\n    bool refund;\n  }\n  // pour securiser le smart contract\n  struct Pair {\n    string name;\n    address addrERC;\n    address pair;\n    uint decimal;\n  }\n  Pair[] public pair;\n\n  mapping(address => Stake[]) public stake;\n\n  event NewStake(address _erc20, address _from, uint256 _amount);\n  event Unstake(address _erc20, address _from, uint256 _amount);\n  event ClaimReward(address _erc20, address _from, uint256 _reward);\n\n  constructor() {\n    owner = msg.sender;\n  }\n\n  modifier onlyOwner() {\n    require(msg.sender == owner, \"U are not the owner\");\n    _;\n  }\n  modifier reantrancyGuard() {\n    require(reantrancy == false, \"reantrancy\");\n    reantrancy = true;\n    _;\n    reantrancy = false;\n  }\n  //Only Owner\n  function setOwner(address _new) external onlyOwner() {\n    owner = _new;\n  }\n  function setMyToken(address _contract) external onlyOwner() {\n    myToken = MyERC20(_contract);\n  }\n  function setPair(string memory _name, address _erc, address _pair, uint256 _decimal) external onlyOwner() {\n    Pair memory _Pair;\n    _Pair.name = _name;\n    _Pair.addrERC = _erc;\n    _Pair.pair = _pair;\n    _Pair.decimal = _decimal;\n    pair.push(_Pair);\n  }\n  function changePair(string memory _name, address _erc20, address _pair, uint256 _decimal) external onlyOwner() {\n    for (uint i = 0; i < pair.length; i++) {\n      if (pair[i].addrERC == _erc20) {\n        pair[i].name = _name;\n        pair[i].addrERC = _erc20;\n        pair[i].pair = _pair;\n        pair[i].decimal = _decimal;\n      }\n    }\n  }\n  //User\n  // need to approve this contract first before transfer token\n  function newStake(address _erc20, uint256 _amount) internal returns(bool success) {\n    Stake memory _stake;\n    address _pair = getPair(_erc20);\n    require(_pair != address(0), \"Can't stake this token\");\n    _stake.token = ERC20(_erc20);\n    _stake.depositAmount = _amount;\n    _stake.timeStake = block.timestamp - 364 days;\n    stake[msg.sender].push(_stake);\n    require(_stake.token.transferFrom(msg.sender, address(this), _amount), \"Revert: can't transfer funds\");\n    emit NewStake(_erc20, msg.sender, _amount);\n    return true;\n  }\n  function getIfStake(address _erc20, address _user) public view returns(bool succ, uint256 res) {\n    bool success;\n    uint256 tokenId = 0;\n    for(uint i = 0; i < stake[_user].length; i++) {\n      if(stake[_user][i].token == ERC20(_erc20)) {\n        success = true;\n        tokenId = i;\n        return (success, tokenId);\n      }\n    }\n    return (false, 0);\n  }\n  // function for new stake & for add stake\n  function stakeErc(address _erc20, uint256 _amount) public reantrancyGuard() {\n    (bool success, uint tokenId) = getIfStake(_erc20, msg.sender);\n    if (success == false) {\n      require(newStake(_erc20, _amount), \"failed to stake\");\n    } \n    else {\n      require(addStake(_erc20, _amount, tokenId), \"failed to add stake\");\n    }\n  }\n  function addStake(address _erc20, uint256 _amount, uint256 _tokenId) internal returns(bool success) {\n    Stake memory _stake = stake[msg.sender][_tokenId];\n    address _pair = getPair(_erc20);\n    require(_pair != address(0), \"Can't stake this token\");\n    require(_stake.token == ERC20(_erc20));\n    claimReward(_erc20, _tokenId);\n    require(_stake.token.transferFrom(msg.sender, address(this), _amount), \"Revert: can't transfer funds\");\n    _stake.depositAmount = _stake.depositAmount.add(_amount);\n    _stake.timeStake = block.timestamp - 364 days;\n    _stake.refund = false;\n    stake[msg.sender][_tokenId] = _stake;\n    emit NewStake(_erc20, msg.sender, _amount);\n    return true;\n  }\n\n  // call getStakeIdToWithdraw to find the id\n  function unstake(address _erc20, uint256 _amount, uint256 _tokenId) external reantrancyGuard() {\n    Stake memory _stake = stake[msg.sender][_tokenId];\n    require(_stake.token == ERC20(_erc20), \"Invalid Token\");\n    require(_amount <= _stake.depositAmount, \"Want to withdraw more than deposit\");\n    require(_amount > 0, \"can not withdraw zero\");\n    require(_stake.token.transfer(msg.sender, _amount), \"Failed to stake fund\");\n    require(_stake.refund == false, \"Already refund\");\n    require(claimReward(_erc20, _tokenId), \"Need to stake minimum 1 day\");\n    if (_amount >= _stake.depositAmount) {\n      stake[msg.sender][_tokenId].refund = true;\n    }\n    stake[msg.sender][_tokenId].depositAmount = stake[msg.sender][_tokenId].depositAmount.sub(_amount);\n    stake[msg.sender][_tokenId].timeStake = block.timestamp - 1 days;\n    emit Unstake(_erc20, msg.sender, _amount);\n  }\n  //call this function before unstake\n  function getStakeIdToWithdraw(address _erc20) external view returns (uint256 tokenId) {\n    for (uint256 i = 0; i < stake[msg.sender].length; i++) {\n      if (stake[msg.sender][i].token == ERC20(_erc20) && stake[msg.sender][i].refund == false) {\n        return i;\n      }\n    }\n  }\n  // problem transaction fail\n  function claimReward(address _erc20, uint256 _tokenId) internal returns(bool success) {\n    Stake memory _stake = stake[msg.sender][_tokenId];\n    address _pair = getPair(_erc20);\n    require(_pair != address(0), \"This token can't have reward\");\n    require(_stake.token == ERC20(_erc20), \"Invalid Token\");\n    uint256 reward = calculReward(_tokenId, getPair(_erc20), getDecimal(_erc20));\n    if(reward > 0) {\n      require(myToken.sendReward(msg.sender, reward), \"failed to claim reward\");\n      stake[msg.sender][_tokenId].timeStake = block.timestamp;\n      emit ClaimReward(_erc20, msg.sender, reward);\n      return true;\n    }\n    return false;\n  }\n  function calculReward(uint256 _tokenId, address _pair, uint256 _decimals) public view returns (uint256 reward) {\n    uint256 resTime = block.timestamp.sub(stake[msg.sender][_tokenId].timeStake);\n    uint256 period = resTime.div(interestPeriod);\n    uint256 pairr = getPrice(_pair).div(10 ** _decimals);\n    uint256 amount = stake[msg.sender][_tokenId].depositAmount.mul(pairr);\n    uint256 res = amount.mul(interest).div(100).mul(period).div(364);\n    return res;\n  }\n  // get price with chainlink oracle use doc to scop the pair address \n  // => https://docs.chain.link/docs/ethereum-addresses/\n  function getPrice(address _pair) public view returns (uint res) {\n    AggregatorV3Interface priceFeed;\n    priceFeed = AggregatorV3Interface(_pair);\n    ( , int price, , , ) = priceFeed.latestRoundData();\n    return uint(price);\n  }\n  function getAmountStaked(address _user, uint256 _tokenId) public view returns (uint256 amount) {\n    return stake[_user][_tokenId].depositAmount;\n  }\n  function getActiveStake(address _user) public view returns (Stake[] memory res) {\n    uint256 nbActiveStake = 0;\n    for (uint i = 0; i < stake[_user].length; i++) {\n      if(stake[_user][i].refund == false)\n        nbActiveStake++;\n    }\n    Stake[] memory _activeStake = new Stake[](nbActiveStake);\n    uint256 counter = 0;\n    for (uint i = 0; i < stake[_user].length; i++) {\n      if(stake[_user][i].refund == false) {\n        _activeStake[counter] = stake[_user][i];\n        counter++;\n      }\n    }\n    return _activeStake;\n  }\n  function getAllPair() public view returns(Pair[] memory) {\n    return (pair);\n  }\n  function getPair(address _erc20) public view returns(address addr) {\n    for (uint i = 0; i < pair.length; i++) {\n      if (pair[i].addrERC == _erc20) {\n        return pair[i].pair;\n      }\n    }\n    return address(0);\n  }\n  function getDecimal(address _erc20) public view returns(uint decimal) {\n    for (uint i = 0; i < pair.length; i++) {\n      if (pair[i].addrERC == _erc20) {\n        return pair[i].decimal;\n      }\n    }\n  }\n}",
  "sourcePath": "/Users/chinoiserie/delivery/BLOCKCHAIN/Alyra/Developpeur-Ethereum-Template/7. Finance Dcentralise/Defi4/defi4/contracts/Stacking.sol",
  "compiler": {
    "name": "solc",
    "version": "0.8.9+commit.e5eed63a.Emscripten.clang"
  },
  "schemaVersion": "3.2.0",
  "updatedAt": "2022-02-28T17:37:44.181Z",
  "networkType": "ethereum",
  "devdoc": {
    "kind": "dev",
    "methods": {},
    "version": 1
  },
  "userdoc": {
    "kind": "user",
    "methods": {},
    "version": 1
  }
}